:020000040000fa
:10000000f03f0020f91d0000b9230000bf230000cd
:1000100000000000000000000000000000000000e0
:10002000000000000000000000000000731000004d
:1000300000000000000000007310000073100000ba
:10004000731000007310000073100000451f0000c3
:100050007310000073100000731000007310000094
:1000600073100000590b00007310000073100000a3
:1000700025090000000000000000000073100000cf
:100080007310000073100000731000007310000064
:10009000731000000000000000000000731000005a
:1000a0007310000073100000731000007310000044
:0800b0000000000073100000c5
:020000040000fa
:1000b800f8b5c046f8bc08bc9e467047d91d00007c
:1000c800f8b5c046f8bc08bc9e467047b11d000094
:020000040000fa
:1000d800f0b58bb0040000910192242901d80129c0
:1000e80003d11622bc4b1a6056e0e36be26c9342d4
:1000f80024d25a1ce2631d78202df6d02b00093b30
:10010800042bf2d90222223b934300220892934205
:100118000bd12d3d6b425d416b420893e26ce36b62
:10012800934210d25a1ce2631d78009be26c002bac
:100138000ed0102b56d1302d0cd053e0200001f0fa
:10014800d7f80500d8e7200001f0d2f80500ece761
:10015800302d45d1e36b934224d25a1ce2631d78bb
:1001680020232b43782b2fd1e36be26c93421ed2d2
:100178005a1ce2631d781022984b00925b5d0f2b8e
:1001880000d8cce0e36c002b00d1b3e1019ae36b1b
:10019800002a11d0023be363002600273000390013
:1001a8000bb0f0bd200001f0a3f80500d8e720004f
:1001b80001f09ef80500dee7013be363002200231f
:1001c800200002f017f8e7e7009b002b00d1a4e01d
:1001d800009b0a2b00d0a2e00023009f01931ce0a3
:1001e8000a2300937d4b00995b5d8b42f0d3002a74
:1001f80002d0e36b013be36300220023200001f0ff
:10020800f9ff6ee7019ee36b7e437519303d01955a
:1002180093426cd25a1ce2631d782b00303be26c8f
:10022800092b03d86e4b01999942ebd90027019eff
:100238002b00303b0193e36c0493019b092b33d8cb
:10024800684b9f4213d802d1674b9e420fd80023b8
:100258000a223000390001f0effd019b02930023d0
:100268000393029bdb434a1c46d1984244d95b4b1b
:10027800009a5b5d934217d2e36be26c934200d322
:100288001de15a1ce2631878544b009a1b5c934298
:10029800f2d3109e119f22224f4b1a600123109a0d
:1002a800134201d000230893e36c002b02d0e36bc8
:1002b800013be363119bbb4200d911e103d1109bc1
:1002c800b34200d90ce10123109a134200d0fae09e
:1002d800089b002b00d0f6e0222201267642f71771
:1002e8003d4b1a60109b119cf618674156e7200099
:1002f80000f0feff050090e7e36b049a029e039f5f
:1003080036184f41934203d25a1ce2631d788fe797
:10031800200000f0edff05008ae708230093009b0a
:100328005e1e3340019300d0c1e0009a1733534357
:100338002e4a1b065b0fd35c0293284b009a5b5d29
:10034800e16c9a4203d92a4a019890422dd9029a1f
:1003580001204042c11701f0afff0027019e09901c
:1003680004911e4b5b5d0193e36c019a0693009b1d
:10037800934200d87be7049b9f4200d977e703d1db
:10038800099b9e4200d972e7029a3000390001f0b9
:100398009fff019b069a03431e00e36b0f009342e5
:1003a80014d25a1ce2631d78dbe7019e029a96403c
:1003b8001e43e36b01968b4203d25a1ce2631d78fd
:1003c800bbe7200000f094ff0500b6e7200000f02e
:1003d8008fff0500c5e7c046d8000020880e000042
:1003e8009899991999999919999999997e0e00004e
:1003f800ffffff07019e009a5643f3180193e36b32
:100408008b424fd25a1ce2631d783e4b009a5b5dcb
:10041800e16c9a4203d93c4a01989042ead90027f4
:10042800019e384b5b5d0193e36c019a0293009b3c
:10043800934200d81be7002f17d01a000023300082
:10044800190001f0f9fc002309913a0019000098fd
:1004580001f0f2fc099b069300230793069a079b79
:1004680080185941002900d001e73b00320000986c
:10047800002101f0e1fc019b049300230593049bf8
:10048800db434a1c02d1984200d9f0e6049e059f3e
:10049800e36b029a36184f4193420bd25a1ce2631f
:1004a8001d78bee7200000f023ff0500ade700231c
:1004b8000193aae7200000f01bff0500b1e7200028
:1004c80000f016ffe0e6119b9f4203d808d1109b6d
:1004d8009e4205d9109e119f22220c4b1a605de6a0
:1004e800089b013300d059e633003c0000275e42e8
:1004f800a74153e6019b00260027002b00d04de6bc
:100508005ce6c046880e0000c6711c07d8000020b3
:020000040000fa
:100518000023f0b504001600f1b007910893059385
:10052800079b1b78002b68d0002309930a930b9331
:100538000eab0c93802307a920000d9301f0bcfd9e
:100548000500079b1a78002a01d0252a42d1089a6b
:10055800551908951a78252a32d100255a1c079270
:100568000b955a782a2a02d1023307930135079846
:1005780001f084fc02000b90c317200001f03afe42
:10058800079b1a78303a092a4dd907a801f062fd6d
:10059800079b0700187801f000ff672865dc6528cd
:1005a80000dbcce0612800d1c9e03fdc079b2528af
:1005b80000d1f3e05b2800d10ee1079b01330793dc
:1005c800039b013300d0fae0059b002b15d1013bba
:1005d800059312e0e36be26c934211d25a1ce2637a
:1005e8001b780393079b039a1b7893420fd0e36c05
:1005f800002b02d0e36b013be363059871b0f0bdbb
:10060800200000f075fe030003900133ead1089b37
:1006180007a901330893079b20000133079301f0d2
:100628004bfd2d188de701330793a9e7632800d107
:1006380099e06428c1d108ab09aa2ea9200001f0cd
:100648006bfd002800da67e1079b01330793002d53
:1006580000d0b4e03300012239002ea801f0e4f8fc
:10066800051e69da6b1cafd0c7e7702843d00bdcd6
:100678006e2852d031dc69289fd108ab09aa2ea96f
:10068800200000f049fbdce7752815d078282bd02e
:10069800732800d091e7802f00d08ee7079b0133a5
:1006a800079300239d4203d133681a1d32601b68eb
:1006b8000093012208ab6ce008ab09aa2ea9200020
:1006c80001f041fd002800da26e1079b013307937a
:1006d800002d74d133002a00bee708ab09aa2ea961
:1006e800200000f0adfeede708ab09aa2ea9200016
:1006f80000f046fce6e708ab09aa2ea9200000f0a6
:100708003ffc002800da07e1079b01330793002d1f
:1007180055d133002a00f0219fe7079b0133079347
:10072800089b2e93db172f93002d48d133002a0006
:1007380039002ea801f078f8059b5b19efe608aba5
:1007480009aa2ea9200001f039fe002800dae3e00a
:10075800079b01330793002d31d1320039002ea8b1
:1007680001f0d6fa7ce7802f00d026e70b9b049394
:10077800002b01d101330b93079b0133079300230f
:100788009d4203d133681a1d32601b680022009312
:1007980008ab09a9200000f0ebfe61e7802f00d02c
:1007a8000be701330793e26ce36b934209d25a1cbf
:1007b800e2631878252808d1089b0133089300259f
:1007c800bae7200000f094fdf4e7e36c002bf6d0c4
:1007d800e36b013be363f2e7802f00d0ede60022f4
:1007e8000492954204d13268111d31601268049256
:1007f8005a1c07925a7800255e2a02d102330793c1
:10080800013502222eafff322900380001f0b5fd74
:1008180000233b70079b1a782d2a26d101330793b2
:100828000123a93204a95b1b5218137001235d1b15
:10083800ebb29c462ea9079a13785d2b1fd100278f
:10084800049bbb423ed1e36be26c93425fd25a1cdd
:10085800e2631b780393039a2eab9b185d78002df7
:100868003fd0089b01330893ede75d2aded10133c1
:100878000793012304aa07325b1bff32d5e7002b3d
:10088800ddd02d2b06d0079b1a780133ba18557086
:100898000793d0e7089b1b78002bf4d05d2bf2d090
:1008a800531c0793069b1b7850788342ebda60460b
:1008b80001335854f8e7049b039ada55089b01372b
:1008c80001330893e36be26c3d0093421ad25a1c41
:1008d800e2631b780393039a2eab9b185b78002b7b
:1008e800e9d1e36c002b02d0e36b013be363002dfd
:1008f80000d162e6049b002b00d15ee60023049a37
:1009080053555ae6200000f0f3fc0390e3e720007b
:0c09180000f0eefc03909ee70500a3e653
:020000040000fa
:1009240080b500af894b9b7ddbb2002b00d10ae17f
:10093400864b5b8b9bb21a0002231340022b08d117
:10094400834b2022ff219954814b21220221995467
:10095400b0e07e4b5b8b9bb21a0001231340012b4a
:1009640008d17b4b2022ff219954794b212202216b
:1009740099549fe0754b5b8b9bb21a000423134080
:10098400042b08d1724b2022ff219954704b212251
:10099400012199548ee06e4b20229b5c5bb2022baa
:1009a40009d003dc002b00d183e083e0032b54d077
:1009b400042b12d07ee0664b1b69002b06d0644bdf
:1009c4009b880021180001f03bf873e0604b9b8882
:1009d4000121180001f034f86ce05d4b9a695c4b1e
:1009e4001b699a4225d15a4b5b69002b10d0584b96
:1009f4009b885a00554b01210a435a62c046534b07
:100a0400db69002bfbd1524b20220321995451e086
:100a14004e4b5a684d4bc02189020a435a60c04666
:100a24004a4bdb69002bfbd1494b20220621995408
:100a340040e0474b9a68464b9b69d318434a197860
:100a44002823d154424b9b695a1c414b9a61c0469e
:100a54003e4bdb69002bfbd12ce03d4bda693c4b70
:100a64005b69013b9a420fd1384b5a68374be021fe
:100a7400c9020a435a60c046344bdb69002bfbd1e0
:100a8400334b202206219954c046304bdb69002b9e
:100a9400fbd12e492e4bda682d4bdb69d318282263
:100aa4008a5cd2b21a702a4bdb695a1c284bda6171
:100ab40000e0c046264b20229b5c5bb201331dd173
:100ac400234b202200219954204b5a681f4bc021ec
:100ad40089020a435a60c0461c4bdb69002bfbd1d8
:100ae4001a4b83221a761a4b5b6a002b2bd0184bb5
:100af4005a6a174b9b6a1800904724e0144b202233
:100b04009b5c5bb2062b1ed1114b20220021995411
:100b14000f4b2122002199540c4b83221a76c04694
:100b24000a4b5b8b9bb21a0030231340102bf7d176
:100b3400074b5b6a002b06d0054b5a6a044b9b6a31
:100b440018009047c046c046bd4680bd0014004210
:040b5400500000202d
:020000040000fa
:100b580080b582b000af00237b6000233b606a4b06
:100b68009b7ddbb2002b00d1cae0674b5b68072294
:100b780013407b60644b1b7edbb21a0004231340d6
:100b8800042b27d1604b9b6a3b60604b5a695f4bd3
:100b9800db689a421ed27b68002b0dd15b4b5a68ea
:100ba8005a4b5b69d3183a68d2b21a70574b5b69d3
:100bb8005a1c564b5a610de0544b5a68534b5b69ab
:100bc8005b00d3183a6892b21a80504b5b695a1c82
:100bd8004e4b5a614c4b1b7edbb21a00012313406b
:100be800012b61d1484b01221a757b68002b20d15b
:100bf800464b9a69454b9b689a420dd2434b1a68fb
:100c0800424b9b69d3181a783f4b9a623f4b9b69ba
:100c18005a1c3e4b9a612de03c4b1b69002b29d096
:100c2800394bff229a62394b1b695a1e374b1a619e
:100c380020e0364b9a69354b9b689a420ed2334b6b
:100c48001a68324b9b695b00d3181a882e4b9a623c
:100c58002e4b9b695a1c2d4b9a610be02b4b1b6941
:100c6800002b07d0284b2a4a9a62284b1b695a1e28
:100c7800264b1a61254b9a69244b9b689a4207d1e7
:100c8800224b1b69002b03d1224b01221a700be067
:100c98001e4b5a691d4bdb689a4205d11a4b01223b
:100ca8009a75194b04221a75174b1b7edbb21a0072
:100cb80002231340022b1cd1164b1b78002b18d093
:100cc800124b5a69114bdb689a4212d10f4b002222
:100cd8001a770d4b07221a750e4b00221a700b4b10
:100ce8001b6a002b05d0094b1a6a084b5b6a18006f
:100cf8009047084b1b78002b02d0034b02229a75b1
:100d0800c046bd4602b080bd000800427c000020fd
:080d1800ffff0000dc000020d9
:020000040000fa
:100d2000f0b51f00936889b003931369040004931e
:100d3000d3680591019301f0e5f83b681818039b0f
:100d40003860002b02d1049b013b03930a230093dc
:100d500000231e000293039b9e4241da049b013b49
:100d6000b3423ddde36be26c93420fd25a1ce26367
:100d70001d782b0002222b3b9343334311d1019b5f
:100d80001d703b6801333b600123e2e7200000f067
:100d9000b3fa0500431cecd1002e21d1280009b084
:100da000f0bd029b9e4209d1731c0293009b0a2b4b
:100db0002cd1023b302d54d0002302932b00303b2a
:100dc000092b48d9009b102b04d1280001f050fac0
:100dd000002847d1e36c002b02d0e36b013be363b7
:100de0000023019a9355009b0a2b42d11a0007a9b0
:100df000019801f0b3fa059b019a18605960079bae
:100e000001259342cad102256d42c7e7009b082bfa
:100e1000d2d118332b43782bced1e36be26c9342c3
:100e200015d25a1ce2631878e36c002b02d0e36bf6
:100e3000013be36301f01cfa0028cbd0019b9d55d8
:100e40003b68013601333b601023009383e72000a9
:100e500000f052fae8e7009b082b03d1372d01dda3
:100e600002330093019b9d553b68013601333b6083
:0e0e700071e7009a07a9019801f066fabbe746
:020000040000fa
:100e7e00000102040703060500ffffffffffffff4f
:100e8e00ffffffffffffffffffffffffffffffff64
:100e9e00ffffffffffffffffffffffffffffffff54
:100eae00ffffffffffffffffffff0001020304052f
:100ebe0006070809ffffffffffffff0a0b0c0d0ed1
:100ece000f101112131415161718191a1b1c1d1eac
:100ede001f20212223ffffffffffff0a0b0c0d0e29
:100eee000f101112131415161718191a1b1c1d1e8c
:100efe001f20212223ffffffffffffffffffffff4a
:100f0e00ffffffffffffffffffffffffffffffffe3
:100f1e00ffffffffffffffffffffffffffffffffd3
:100f2e00ffffffffffffffffffffffffffffffffc3
:100f3e00ffffffffffffffffffffffffffffffffb3
:100f4e00ffffffffffffffffffffffffffffffffa3
:100f5e00ffffffffffffffffffffffffffffffff93
:100f6e00ffffffffffffffffffffffffffffffff83
:0a0f7e00ffffffffffffffffffff73
:020000040000fa
:100f8800f0b51f00936887b00193136904000293ba
:100f9800d3680391009300f0b1ff3b681818019bd8
:100fa8003860002b02d1029b013b01930026019b74
:100fb8009e4231da029b013bb3422ddde36be26cca
:100fc80093423cd25a1ce2631d78280001f04cf988
:100fd800002843d1012e19d1280001f0def9782824
:100fe80014d1009b1b78302b10d1e36be26c934239
:100ff80030d25a1ce2631878e36c002b02d0e36b02
:10100800013be36301f030f9002827d1e36c002ba2
:1010180002d0e36b013be3630023009a05a99355d3
:101028000098102201f08cf9039b009a186059600f
:10103800059b012593420ad102256d4207e0200055
:1010480000f056f90500431cbfd1002ee4d128005a
:1010580007b0f0bd200000f04bf9cde7009b9d558f
:0a1068003b68013601333b60a1e74d
:020000040000fa
:02107200fee797
:020000040000fa
:10107400b0b594b002af786044257b192f4a1a802a
:101084002f4b3b642f4bfb630c23fb182e4a13cad4
:1010940013c313ca13c313ca13c313ca13c37b687a
:1010a40008331a007b681c1d7b682849386c009340
:1010b400230001f01bf97b680c331c007b6814339c
:1010c4000822ba182249f86b0093230001f00ef9a4
:1010d4007b685a697b1900215b5ed21a7b685a616e
:1010e4004623fb1800221a801ee046243b190022e6
:1010f4009a5e0c23fb189200d2580823fb181100a7
:10110400180001f0fef8031e05d13b1900229a5e77
:101114007b681a610ee046217b1800229b5e9bb21d
:1011240001339ab27b181a804623fb1800229b5e77
:101134000b2bdaddbd4612b0b0bdc0466c07000013
:101144000c160000181600006c160000241600008f
:041154003016000051
:020000040000fa
:1011580090b583b000af02003960fb1d1a70fb1d0b
:101168001b787f2b28d82f4afb1d1b785bb29b0866
:10117800c0339b009b58fa1d1278110003220a40c5
:10118800d200ff2191400a00d2431a4011003b6867
:101198009b01ff221a40fb1d1b7818000323034004
:1011a800db009a401f48fb1d1b785bb29b080a4373
:1011b800c0339b001a5031e01b4afb1d1b781900f5
:1011c8000f230b40083b9b0806339b00d3180433be
:1011d8001b68fa1d1278110003220a40d200ff2171
:1011e80091400a00d2431a4011003b689b01ff223c
:1011f8001a40fb1d1b78180003230340db009a40ac
:101208000948fb1d1b781c000f232340083b9b0843
:101218000a4306339b00c31804331a60c046bd4610
:0c12280003b090bd00e100e000ed00e02c
:020000040000fa
:1012340080b500af2c4b2d4a1a602b4b2c4a1a61f7
:10124400294a42230121d154274a43230021d1545e
:10125400254a47230121d154234a48230121d1544b
:10126400214a49230121d1541f4a4b230021d1543f
:101274001d4a4e230021d1541b4a52230021d1542c
:10128400194a53230121d154174a56230121d15419
:10129400154a57230121d154134a58234021d154cc
:1012a400114a31230121d1540f4a33233021d1541f
:1012b4000d4a34232221d1540b4a35230021d15421
:1012c400094a37230021d154074a39230021d15434
:1012d400054a3b232221d154034a3c230021d15403
:1012e400c046bd4680bdc0460044004108480001d8
:0412f40000480001ad
:020000040000fa
:1012f800026df0b51100436d85b0040019430cd0a0
:10130800c16d994209db02d1836d934205d3002355
:101318000120e364404205b0f0bd200000f07effec
:101328000028f4db226d636d00920193019a216c11
:10133800009be56b13430a00002b19d0a26de36de7
:1013480002920393029e039f009a019b921bbb414a
:101358001f004b1b16001a00db179c4667451adc5a
:1013680001d1964217d8009b029a013b9a1aaa18f3
:10137800e264002909d0a66de76d491b01310a0016
:10138800cb1792197b41a265e3656b1e1a788242de
:0a139800c1d01870bfe70a00eae7b1
:020000040000fa
:0213a200704792
:020000040000fa
:1013a40080b582b000af234b9b8c9bb2214a802135
:1013b4008b439bb29384c0461e4bdb6810221340c0
:1013c400102bf9d11c4b1b689b0e7b607b683f2b59
:1013d40001d07b6800e01f237b607b689b021b04b9
:1013e4001a0c144b802189000a439a62134b8222ff
:1013f400d2015a80c0460f4bdb6810221340102bd9
:10140400f9d10c4b0e4ada62c0460a4bdb68102253
:101414001340102bf9d1074b06229a84c046054b82
:10142400db6840221340402bf9d1c046bd4602b0d0
:1014340080bdc0460008004024608000000c0040cd
:04144400b8050104e2
:020000040000fa
:10144800f0b51f00936887b00193136904000293f5
:101458000391d66800f052fd3b681818019b38606c
:10146800002b02d1029b013b01930025019b9d4269
:1014780014da029b013bab4210dde36be26c934252
:101488001dd25a1ce26318780300303b072b1fd982
:10149800e36c002b02d0e36b013be36300230822db
:1014a800735505a9300000f04bff039b1860596085
:1014b800059b0120b34209d10220404206e02000ea
:1014c800fff716ff431cdfd1002de7d107b0f0bdb1
:0c14d80070553b68013501333b60c7e7ed
:020000040000fa
:1014e400f7b50b6916000193cb68050000938f686c
:1014f40000f006fd336818183060002f01d1019bfd
:101504005f1e0024bc422bda019b013ba34227dd72
:10151400eb6bea6c93420fd25a1cea63187803000f
:1015240002222b3b934323430ed1009b01241870ca
:10153400336801333360e5e72800fff7dbfe431c23
:10154400edd1002c0cd1febd0200009b303a1b19da
:10155400092a09d9eb6c002b02d0eb6b013beb633e
:101564000020009b1855eee71870336801340133ee
:041574003360c7e732
:020000040000fa
:10157800f7b505000c0017001e00002a04d000f083
:10158800bdfc336818183060a36800240193019be0
:10159800002b01d09c421fdaeb6bea6c934214d209
:1015a8005a1cea631878002f1dd0202803d00300a6
:1015b800093b042b17d8eb6c002b02d0eb6b013bdb
:1015c800eb63089b002b19d109e02800fff790fe78
:1015d800431ce8d1002c05d0089b002b0cd120001f
:1015e800441ea041febd089b002b00d0185533684f
:1015f800013401333360cae7002ff0d00023089a82
:041608001355ece7a3
:020000040000fa
:10160c0030313a30333a33330000c04641756720ed
:10161c00313520323032320025643a25643a256463
:10162c000000c04625732025642025640000c046b8
:10163c004a616e00466562004d6172004170720035
:10164c004d6179004a756e004a756c0041756700f2
:10165c00536570004f6374004e6f760044656300f1
:10166c003c1600004016000044160000481600000e
:10167c004c160000501600005416000058160000be
:10168c005c1600006016000064160000681600006e
:020000040000fa
:10169c00f0b5c6461f4a204b00b50021934203d239
:1016ac00197001339342fbd10b231c4a9c46083b17
:1016bc0098461368546819000026214311d017006e
:1016cc0091680c3700290fd11a19002c03d01e7009
:1016dc0001339342fbd13a0013685468190021433b
:1016ec00edd104bc9046f0bd6146c91a1d195118c4
:1016fc00002c05d05a1c505c187013009542f9d17f
:10170c00434623405a1e9341a4081c19a4003f19b8
:10171c003a00e1e70000002000000020b0170000b4
:020000040000fa
:10172c0080b582b000af78600a00fb1c1a707b6831
:10173c005b69783b9a067b681b6901339b051a43ee
:10174c007b68db685b041a437b689b681b031a434a
:10175c007b685b689b011a437b681b681900104b04
:10176c000a439a61c0460e4b9b7adbb21a00802367
:10177c001340802bf7d00a4afb1c1b781377c0460a
:10178c00074b9b7adbb21a0080231340802bf7d0d7
:10179c00034b0122da7101231800bd4602b080bd53
:0417ac0000140040e5
:020000040000fa
:1017b000a80000201c00000000000000c400002061
:1017c0000c00000000000000500000202c00000071
:1017d000000000007c0000202c0000000000000041
:1017e000dc0000200100000000000000dd000020ff
:1017f0000100000000000000d000002004000000f4
:101800000000000000000020500000000000000068
:10181000d40000200400000000000000d8000020d8
:1018200004000000000000000000000000000000b4
:020000040000fa
:1018300030b588292cd012dc812930d003dc8029f6
:101840002dd0002030bd82290ed08429f9d119680d
:1018500000680c1d1c600b6818800120f2e7a029ad
:101860000fd00adc9029ecd1046845681968081d7e
:1018700018600b681c605d60efe7c02901d0f0299b
:10188000dfd11a680168101d186013681960e4e759
:10189000196800680c1d1c600b681870dde719687a
:0c18a00000680c1d1c600b681860d6e787
:020000040000fa
:1018ac0080b500af184b01221a60c046164bdb699d
:1018bc00002bfbd1144b802252005a60c046124bb5
:1018cc00db69002bfbd1104be822da600e4b0f4a80
:1018dc001a60c0460c4bdb69002bfbd10a4b102263
:1018ec005a83c046084bdb69002bfbd1084b2122e5
:1018fc0000219954064b202200219954024b83223b
:10190c009a75c046bd4680bd0014004216001000fa
:04191c005000002057
:020000040000fa
:101920004b1801225205da4217d25b0d0722d20171
:101930009b1a0fd9ff2b13d2db05ca0fd207134313
:101940000903020d1143490ac200524100d9013175
:10195000c8187047c80fc007704706d1002804d1c7
:10196000c80f0002ff30c00570470123db070a00e3
:10197000c900400f084398431a4010435b0a1843bc
:041980007047c046a6
:020000040000fa
:1019840080b582b000af78607b685b69783b9a066b
:101994007b681b6901339b051a437b68db685b0426
:1019a4001a437b689b681b031a437b685b689b0133
:1019b4001a437b681b681900084b0a431a61c04626
:1019c400064b9b7adbb21a0080231340802bf7d09e
:1019d40001231800bd4602b080bdc046001400407b
:020000040000fa
:1019e40080b582b000af0200bb1d1a807b1d0a1cab
:1019f4001a707b1d1b78002b04d00f4b202203216f
:101a0400995403e00c4b202204219954bb1d1b88dc
:101a140059007b1d1b78002b01d0012200e000221d
:101a2400064b0a435a62c046044bdb69002bfbd1c8
:101a3400c046bd4602b080bd5000002000140042e4
:020000040000fa
:101a440080b582b000af0200bb1d1a807b1d0a1c4a
:101a54001a70104b00229a610e4b0022da610e4b71
:101a640083221a760c4b5a680b4b0c490a405a6075
:101a7400c046094bdb69002bfbd17b1d1a78bb1dcb
:101a84001b8811001800fff7abffc046bd4602b02b
:101a940080bdc0465000002000140042fffffbff41
:020000040000fa
:101aa40090b597b000af144b802252045a612c2495
:101ab4003b191800fff7dcfa3b0018002c231a002e
:101ac400002100f05cfc3b0001221a603b19180065
:101ad400fff756ff3b0001211800fff725fe074bd7
:101ae4000021180000f0b0fb034b802252049a61dd
:101af400c046bd4617b090bd00440041d52100004a
:020000040000fa
:101b0400002370b59eb004000d00160005931390d9
:101b1400069098421fdb114bc31814930022002334
:101b240004a800f069fb229a239b310000920193e0
:101b340004a80122fef7cefa002d0ad0139b0293cb
:101b4400149b0393039a029b9b1a1a9a9b18e418fa
:101b54002c601eb070bd01235b42dee7ffffff7ff8
:020000040000fa
:101b640080b500af134b1b889bb2124a01210b4373
:101b74009bb21380c0460f4b9b7adbb21a008023c2
:101b84001340802bf7d00b4b802252009a80094bd4
:101b9400094a1a80c046074b9b7adbb21a0080239d
:101ba4001340802bf7d0034b0122da71c046bd46a7
:0c1bb40080bdc046001400400a0a00007a
:020000040000fa
:101bc00000230e4a10b513600d4a13600d4a1360ce
:101bd0000d4a13600d4a13600d4a536213610133bd
:101be000936000f0d6fb00f0acf90a4c0a4b9c4223
:101bf00000d310bd08cc9847f8e7c046d4000020b9
:101c00000c0000200800002000000020040000203c
:0c1c100010000020c4000000c80000000c
:020000040000fa
:101c1c0080b500af00f054f800f0e6f900f0befa21
:101c2c00fff7bafb00f0a4fa084b094a5a80074b9d
:101c3c00084a5a80054b084a5a80084b084a1a62cf
:101c4c00084b00221a62c046bd4680bd000c004005
:101c5c000443000014400000174000000004004042
:081c6c00240001000008004003
:020000040000fa
:101c740080b500af114b00221a62104b00221a7774
:101c84000e4b00229a600d4b0022da600c4b80222e
:101c940092025a60c0460a4bdb69002bfbd1084b09
:101ca40016221a73064b074a1a60c046044bdb69b6
:101cb400002bfbd1c046bd4680bdc0467c00002041
:081cc400000800420e001300ad
:020000040000fa
:101ccc0090b583b000af0f4b5c681b68a109002373
:101cdc001a000a007f2313407b607b681a04fe23e2
:101cec00db031a40084b06210a439a61c046064b97
:101cfc00db6804221340042bf9d1c046bd4603b067
:0c1d0c0090bdc046206080000008004030
:020000040000fa
:101d180010b581290fd0832903d0802914d0002041
:101d280010bd1368191d11601b68416800681860b0
:101d380059600120f4e71368191d11601b680168d8
:101d4800426819605a60f4e71368416800681c1d0e
:0c1d580014601c68fff7e0fd2060eae763
:020000040000fa
:101d64000200002310b54832d3560400591e0b4319
:101d7400137043698269934203d90022c36a110034
:101d8400984700236068a362a3616361830705d554
:101d94001023184360600120404210bda368e2682c
:0c1da40000079b182364e363c017f6e7f8
:020000040000fa
:101db00010b5064c2378002b07d1054b002b02d021
:101dc000044800e000bf0123237010bda8000020dc
:101dd0000000000000000000044b10b5002b03d0f1
:101de0000349044800e000bf10bdc04600000000e9
:081df000ac000020000000001f
:020000040000fa
:101df80010b50a4b98470a4b9847fff74bfc094b1d
:101e0800ff229343084a9360084b9847084b98472a
:101e1800084b984700f038f9fee7c046a3130000c6
:101e2800a31300000000000000ed00e0c11b00004b
:081e3800a3130000a313000036
:020000040000fa
:101e4000f7b597b201933b00140c86b2050c7343af
:101e50006f4366436543f6191c0ca4199c46a742c0
:101e600002d980235b02ed186346260c7519240401
:101e70009eb2019ba4194343200051435b1959189a
:041e800003b0f0bdfe
:020000040000fa
:101e8400030010b51a78202a0dd01100093904294d
:101e940009d900212b2a02d02d2a01d10131013385
:101ea40000200a2404e00133ece760430133801a84
:101eb4001a78303a092af8d9002900d1404210bdd5
:020000040000fa
:101ec400f7b5551c846bff35070001910092002182
:101ed4002a00200000f020fa002800d0051b009bf7
:101ee4002e009d4200d91e0032002100019800f00e
:101ef4003dfaa31964193000fb633c64bc63febd66
:020000040000fa
:101f040070b504000025e36be26c934211d25a1cb5
:101f1400e263187820280ad00938042807d9e36c2a
:101f2400002b02d0e36b013be363280070bd013555
:0e1f3400e9e72000fff7def9431cebd1f5e7eb
:020000040000fa
:021f42007047e6
:020000040000fa
:101f440080b500af0b4b1b7adab20b4b1a70094bfe
:101f5400c1221a72084b5b68002b07d0064b5a68e3
:101f6400054b1878044b9b6819009047c046bd4642
:0c1f740080bdc04600140040c4000020e6
:020000040000fa
:101f800080b500afbff35f8f62b603210320fff778
:101f9000e3f8032000f048f803210920fff7dcf8fc
:101fa000092000f041f803210c20fff7d5f80c20a0
:0a1fb00000f03af8c046bd4680bdbf
:020000040000fa
:021fba0070476e
:020000040000fa
:101fbc0080b582b000af78600a4b06225a60fff7fa
:101fcc0033f9fff725fefff76bfc00f0adf9fff7d7
:101fdc004bfefff7c1fdfff7cdffc046bd4602b07b
:081fec0080bdc0460040004129
:020000040000fa
:101ff40080b500af084b094a5a60074b084a9a60fb
:10200400c046054b5b78dbb21a0080231340802b5b
:10201400f7d0c046bd4680bd000c0040030401005b
:042024000320000095
:020000040000fa
:1020280080b582b000af0200fb1d1a70fb1d1b7843
:102038007f2b09d8fb1d1b781a001f231a40044b5d
:10204800012191400a001a60c046bd4602b080bd19
:0420580000e100e0c3
:020000040000fa
:10205c00f0b5050000200a4c4200165d002e02d19e
:10206c00a2185078f0bd296801300f78c0b2b74281
:10207c0003d1a2180131507829600a28ecd9f1e774
:04208c008c220000a2
:020000040000fa
:1020900080b500af0020fff791fffff703fd064b6f
:1020a0001b78dbb2002bfad0044b80225204da6199
:1020b000014b00221a70f2e7dd00002000440041cd
:020000040000fa
:1020c00010b50b680c001b78202b03d0093b0022b5
:1020d000042b0bd8fff716ff02002368591c216060
:1020e0005b78202bf9d0093b042bf6d9100010bdea
:020000040000fa
:1020f00070b50d00160004009ab0682200216846f1
:1021000000f03ff9054b32002900684602940e9416
:10211000119300f0c9f81ab070bdc046b123000099
:020000040000fa
:1021200037b50d00d46811001a00fff7dbf9431c26
:102130000cd00a2201a9200000f010f9019b2860b0
:0e21400069600120a34201d1022040423ebd51
:020000040000fa
:10214e0037b50d00d46811001a00fff7c4f9431c0f
:10215e000cd00a2201a9200000f0eff8019b2860a4
:0e216e0069600120a34201d1022040423ebd23
:020000040000fa
:10217c0080b500af074b084a5a60c046054b5b78e8
:10218c00dbb21a0080231340802bf7d0c046bd462b
:0c219c0080bdc046000c004000070100a0
:020000040000fa
:1021a80080b500af074b084a5a60c046054b5b78bc
:1021b800dbb21a0080231340802bf7d0c046bd46ff
:0c21c80080bdc046000c00400104010076
:020000040000fa
:1021d40080b582b000af02003960fb1d1a70fb1d90
:1021e4001b78012b02d1034b01221a70c046bd4655
:0821f40002b080bddd000020f7
:020000040000fa
:1021fc00f0b51700016cc66b02658c1be5174365c7
:10220c008465c5651f4305d09d4202dc02d1944212
:08221c0000d9b118c164f0bd46
:020000040000fa
:1022240037b50400fff79cfd002802d0012040428e
:102234003ebd6b46dd1d0122636c290020009847da
:082244000128f3d12878f3e72b
:020000040000fa
:10224c0080b582b000af78603960054b7a685a600f
:10225c00034b3a689a60c046bd4602b080bdc0468a
:04226c00c40000208a
:020000040000fa
:102270000300303b02000120092b06d92023002057
:0c22800013430522613b9a424041704725
:020000040000fa
:10228c0068076c094c836a9074a07ac000806888d7
:0c229c0000846c820081286e696c2900af
:020000040000fa
:1022a80013b50400019201aafef732f96368db0650
:0822b80001d50120404216bdd2
:020000040000fa
:1022c000d0400b1cd1409c46203ad3401843524288
:1022d00063469340184370479140031c90409c46ce
:1022e000203a9340194352426346d3401943704702
:020000040000fa
:1022f0000eb403b503aa02ca0192fff7f9fe02b0b9
:0623000008bc03b0184701
:020000040000fa
:10230600002210b5835c8c5ca34202d10132002b03
:06231600f8d1181b10bdf8
:020000040000fa
:10231c00c9b28218904201d10020704703788b42d9
:06232c00fbd00130f6e7d2
:020000040000fa
:1023340080b500af024b82225a60c046bd4680bdc4
:042344000040004114
:020000040000fa
:1023480037b501246442e51700940195fff7d6fbe1
:0423580003b030bde1
:020000040000fa
:10235c0037b5802500242d0600940195fff7ccfba2
:04236c0003b030bdcd
:020000040000fa
:10237000002310b59a4200d110bdcc5cc454013387
:02238000f8e77c
:020000040000fa
:1023820003001218934200d1704719700133f9e724
:020000040000fa
:1023920010b5fff711fefff70ffefff70dfe10bda0
:020000040000fa
:0e23a2000300413b192b01d82023184370473c
:020000040000fa
:0823b00010b5fff787fd10bd19
:020000040000fa
:0623b80080b500affee756
:020000040000fa
:0623be0080b500affee750
:020000040000fa
:0423c400002070473e
:020000040000fa
:0200000400807a
:0440000077c700d8a6
:020000040000fa
:0200000400807a
:044004005c00ffff5e
:00000001FF
