:020000040000fa
:10000000f03f0020e94d00002d5b0000335b000055
:1000100000000000000000000000000000000000e0
:10002000000000000000000000000000fb290000ac
:100030000000000000000000fb290000fb29000078
:10004000fb290000fb290000fb290000c150000033
:10005000ed360000fb290000fb290000fb29000011
:10006000fb290000fb290000fb290000fb29000000
:10007000712200000000000000000000fb290000c9
:10008000fb290000fb29000039510000fb2900007a
:10009000fb2900000000000000000000fb29000018
:1000a000fb290000fb290000fb290000fb290000c0
:0800b00000000000fb29000024
:020000040000fa
:1000b800f8b5c046f8bc08bc9e467047394d0000ec
:1000c800f8b5c046f8bc08bc9e467047114d000004
:020000040000fa
:0800d8000832000001000000e5
:020000040000fa
:1000e00080b584b000aff860b9607a603b60114bb6
:1000f000fa681a600f4bba685a600e4b7a689a60b9
:100100000c4b3a68da600b4bba691a61094bfa6911
:100110005a61084b3a6a9a61064b7a6ada61054b72
:10012000ba6a1a62034bfa6a5a6201231800bd4682
:1001300004b080bd78010020b0b584b000af786015
:1001400000f044f80f257c19422000f046f9030026
:1001500023707b191b78122b05d0194b19491a48ab
:10016000512205f041fa00f047f87b68180000f0d2
:100170004cf800210e2000f017f900210f2000f0ac
:1001800013f90e257c190c2000f027f903002370c9
:100190007b191b7803221343dbb219000c2000f0fb
:1001a00003f90421262000f0fff800210a2000f0c6
:1001b00071f800f0f0f800231800bd4604b0b0bd9f
:1001c000a4420000284200003842000080b500af81
:1001d000084bdb699847074b5b6a32209847054b11
:1001e0001b6a9847034b5b6a32209847c046bd465e
:1001f00080bdc0467801002080b500af802101207d
:1002000000f0d2f8c046bd4680bdb0b588b000afa2
:1002100078611e497869486379690a0000210b00fa
:10022000510b7960d3043b60194a00233868796820
:1002300004f006ff02000b00ba61fb61fb691b04be
:10024000ba69120cba60ba681a43ba60fb691b0c2f
:10025000fb603b7a1900062000f0a6f8fb691b063c
:10026000ba69140a1c43fb691d0ae3b2190007208e
:1002700000f09af8bb69fc69dbb21900082000f0b5
:1002800093f8c046bd4608b0b0bdc0467801002016
:100290000048e80180b582b000af786039603b6803
:1002a000002b0ed17b680e2b01d90e237b607b685f
:1002b000dbb270221343dbb21900092000f074f89e
:1002c0002ae07b68112b0fd97b68142b01d91423ea
:1002d0007b607b68033b7b6087214d2000f064f8e6
:1002e0008c2000f01df80be07b68012b01d8022365
:1002f0007b6084214d2000f057f8642000f010f856
:100300007b68dbb2023bdbb2802252421343dbb29a
:100310001900092000f048f8c046bd4602b080bd73
:1003200090b585b000af0200fb1d1a700f243b1979
:100330001b221a70fb1d1b78782b0bd8fb1d1b781a
:100340002d3b0521180003f0ebfb03001a003b19bd
:100350001a700fe0fb1d1b78f02b0bd8fb1d1b78d0
:100360001e330a21180003f0dbfb03001a000f23e1
:10037000fb181a700f23fb181b781f221340dbb2e7
:1003800020221343dbb219000b2000f00df8c04609
:10039000bd4605b090bd80b500af8121012000f0c1
:1003a00003f8c046bd4680bd80b582b000af0200f4
:1003b000fb1d1a70bb1d0a1c1a70fb1d1b788022c6
:1003c00052421343dab2bb1d1b781900100000f033
:1003d00018f8c046bd4602b080bd80b582b000afff
:1003e0000200fb1d1a70fb1d1b787f221340dbb23d
:1003f0000021180000f005f803001800bd4602b007
:1004000080bdb0b584b000af0200fb1d1a70bb1deb
:100410000a1c1a7008257b1900221a707b19002209
:100420005a70114b5b6998470f4b1c680c217b1865
:10043000fa1d12781a707b18ba1d12785a707a1940
:10044000781802230221a047c046074bdb68984773
:10045000031efad1044b9b6998470823fb185b786d
:100460001800bd4604b0b0bd7801002080b582b050
:1004700000af0200fb1d1a7000f04ef8031e01d001
:10048000002313e0fff787fffb1d1b78002b02d032
:1004900000f01afc01e000f0fefb00210d20fff748
:1004a00083ff00212220fff77fff01231800bd46b4
:1004b00002b080bd80b582b000af0200fb1d1a7093
:1004c000fb1d1b78002b07d0124b9b6a002b03d01f
:1004d00040214020fff768ff83210120fff764ffe0
:1004e000fb1d1b7801225340dbb2002b0cd0c04611
:1004f0001220fff772ff03001a0008231340f7d001
:1005000008211220fff750ff01231800bd4602b05a
:1005100080bdc0467801002080b500af0120fff704
:100520005cff03001a0003231340032b01d10123b6
:100530000ce01220fff751ff03001a0008231340bc
:1005400003d008211220fff72fff00231800bd461b
:1005500080bd80b584b000af0200fb1d1a7000237f
:10056000fb601220fff739ff0300bb60fb1d1b7807
:10057000002b08d000f0a8fbfb1d1b7819002220df
:10058000fff712ff01e000f086fbbb68dbb2190049
:100590001220fff709ffbb684022134021d0bb683f
:1005a000202213401dd1184b00229a63164b302293
:1005b0009b5c002b05d02220fff70fff0300fb60a0
:1005c00004e01320fff709ff0300fb601020fff792
:1005d00004ff030019000d20fff7e6fefff7dbfe26
:1005e0000de00120fff7f9fe0300862b07d0002164
:1005f0000d20fff7d9fe86210120fff7d5fefb680d
:100600001800bd4604b080bd7801002080b500af61
:100610001a20fff7e2fe03001900064b5b6b064a47
:10062000934201d8a42300e09d23cb1a1800bd46b5
:1006300080bdc046780100203fdd4a1fb0b500af45
:100640001920fff7cafe03005bb2180005f0b8f8e6
:100650000022064b02f028f903000c0018002100cc
:1006600004f0e8f8031c181cbd46b0bd0000d03fe4
:1006700090b585b000af0023fb602820fff7adfeea
:1006800003001a0007231340fb60fb681b02fb609a
:100690002920fff7a2fe03001a00fb689b18fb60ed
:1006a000fb681b02fb602a20fff797fe03001a007d
:1006b000fb689b18fb602820fff78ffe03001a00e1
:1006c0000823134004d0fb68174a94466344fb6038
:1006d000164bbb60f86804f073ff031c9721c90533
:1006e000181c03f05ff8031cb968181c03f05cfbce
:1006f000031c1c1c00f033f90300180005f050f82f
:10070000031c0b49181c03f04ffb031c191c201c75
:1007100003f048f8031c7b60786804f0fdff0300d9
:100720001800bd4605b090bd0000f8ff0024f44b52
:100730000024f44880b500af1b20fff74efe0300f5
:100740001900064b5b6b064a934201d8a42300e0d4
:100750009d23cb1a1800bd4680bdc04678010020fd
:100760003fdd4a1f80b584b000af78603960222039
:10077000fff733fe0300bb60ba683b68d318ff2b5a
:1007800003d9bb68ff22d31a3b600023fb600ae059
:100790007a68fb68d3181b7819000020fff704fe65
:1007a000fb680133fb60fa683b689a42f0d3bb6890
:1007b000dab23b68dbb2d318dbb219002220fff7b4
:1007c000f3fd3b681800bd4604b080bd80b500afa6
:1007d0001320fff702fe03001a00034b9b6bd31a92
:1007e0001800bd4680bdc0467801002080b500af2e
:1007f000fff7ecff031e01d1ff2308e0054b9b6bc5
:100800005a1c044b9a630020fff7e7fd0300180011
:10081000bd4680bd7801002090b583b000affff7e2
:10082000d5ff031e01d1ff2313e0fc1d0d20fff7b0
:10083000d4fd03002370bc1d0020fff7cefd030094
:100840002370fb1d1b7819000d20fff7adfdbb1dac
:100850001b781800bd4603b090bd80b582b000afd4
:100860007860034b7a68da62c046bd4602b080bd4c
:100870007801002080b582b000af7860034b7a68c1
:100880009a62c046bd4602b080bdc04678010020d5
:1008900080b582b000af0200fb1d1a70002140201d
:1008a000fff782fdfb1d1b78002b08d000f00cfa2f
:1008b000fb1d1b7819002220fff776fd01e000f0f8
:1008c000eaf985210120fff76ffdc046bd4602b061
:1008d00080bd80b500af1e20fff77ffd03001b0920
:1008e000dbb21800bd4680bd80b582b000af786035
:1008f0007b68052b02d806237b6004e07b680c2b09
:1009000001d90c237b607b68062b08d1c5213120df
:10091000fff74afd0c213720fff746fd07e0c32112
:100920003120fff741fd0a213720fff73dfd1e2052
:10093000fff753fd03001a000f231340dab27b6860
:10094000dbb21b01dbb21343dbb219001e20fff741
:100950002bfd00f0bbf8c046bd4602b080bd80b59f
:1009600082b000af1d20fff738fd03001a00fb1d09
:1009700012091a70fb1d1b78092b18d89a000f4b0f
:10098000d3181b689f460e4b13e00e4b11e00e4b25
:100990000fe00e4b0de00e4b0be00e4b09e00e4b43
:1009a00007e00e4b05e00e4b03e00e4b01e0012388
:1009b0005b421800bd4602b080bdc0467c420000cc
:1009c000781e0000a0280000f03c0000405100000c
:1009d000127a0000e4a2000024f4000048e80100bc
:1009e00090d0030020a1070080b584b000af7860ec
:1009f0000023fb607b682c4a934202d80023fb60f3
:100a000039e07b68294a934202d80123fb6032e037
:100a10007b68274a934202d80223fb602be07b6865
:100a2000244a934202d80323fb6024e07b68224ad5
:100a3000934202d80423fb601de07b681f4a934267
:100a400002d80523fb6016e07b681d4a934202d85a
:100a50000623fb600fe07b681a4a934202d8072303
:100a6000fb6008e07b68184a934202d80823fb60c9
:100a700001e00923fb601d20fff7affc03001a0013
:100a80000f231340dab2fb68dbb21b01dbb2134366
:100a9000dbb219001d20fff787fc00f017f8c046f5
:100aa000bd4604b080bdc046781e0000a0280000ee
:100ab000f03c000040510000127a0000e4a2000067
:100ac00024f4000048e8010090d0030090b583b002
:100ad00000affff744ff0400fff7fbfe0300dc401c
:100ae00023001900fa23980003f058fb03007b60f1
:100af000fb1c7a6810219142924152421a70bc1c30
:100b00002620fff76afc03002370bb1c1b7819002a
:100b10002620fff749fcc046bd4603b090bd80b516
:100b200084b000af78607b68042b02d805237b601b
:100b300004e07b68082b01d908237b607b68043bb9
:100b4000fb601d20fff749fc03005bb20e229343bc
:100b50005ab2fb685b005bb213435bb2dbb21900b5
:100b60001d20fff721fcc046bd4604b080bd80b506
:100b700082b000af78607b681b0adbb219002020ce
:100b8000fff712fc7b68dbb219002120fff70cfc99
:100b9000c046bd4602b080bd80b582b000af78606f
:100ba0007b68dbb219003920fff7fefbc046bd466b
:100bb00002b080bd80b500af1e20fff70efc030021
:100bc0001a0004231343dbb219001e20fff7ecfbcd
:100bd000c046bd4680bd80b500af1e20fff7fdfbbf
:100be00003001a0004239a431300dbb219001e20ed
:100bf000fff7dafbc046bd4680bd80b500af662179
:100c00003320fff7d1fb19213b20fff7cdfbc04676
:100c1000bd4680bd80b500af27213320fff7c4fb60
:100c20001d213b20fff7c0fbc046bd4680bd80b5ff
:100c300082b000af0200fb1d1a70fb1d1b78062b53
:100c400002d9fb1d06221a70fff7a5fbfb1d1b78be
:100c5000002b04d104212620fff7a6fb17e000217a
:100c60002620fff7a1fb03210c20fff79dfb0c20a2
:100c7000fff7b3fb03005ab2fb1d1b785b015bb2ad
:100c800013435bb2dbb219000c20fff78dfbc046ab
:100c9000bd4602b080bd80b500af0a4b30220021b6
:100ca00099541d20fff799fb03001a0001239a4372
:100cb0001300dbb219001d20fff776fbc046bd46ce
:100cc00080bdc0467801002080b500af094b3022be
:100cd000012199541d20fff780fb03001a00012316
:100ce0001343dbb219001d20fff75efbc046bd4673
:100cf00080bdc0467801002080b584b000af786028
:100d00001220fff76afb0300fb60fb68dbb21900ef
:100d10001220fff749fbfb682022134032d1fb6809
:100d20004022134023d0194b00229a63174b3022e4
:100d30009b5c002b04d02220fff74ffb030003e055
:100d40001320fff74afb0300bb601020fff745fbb1
:100d5000030019000d20fff727fb0c4bdb6a002b6b
:100d600010d00a4bdb6aba68100098470ae0fb68ab
:100d70000822134006d0054b9b6a002b02d0034b80
:100d80009b6a9847c046bd4604b080bd78010020ec
:020000040000fa
:100d9000f0b59db016930b6854680a938b68179052
:100da0000b930b6910911a93cb684d6804931368e9
:100db0002100089300220023089804f0e1f800289d
:100dc0000bd10a9b5b0737d408230a9a1a400b9b66
:100dd0000c9205930cd0202303e080231b06e4181b
:100de0002d23049a13700b9b013b059301230c9355
:100df0000c99049a8c4608996244630011925b082e
:100e0000894a00291ad1934218d1169b874c413b3d
:100e10002100192b00d9211d119804f063fe201d1b
:100e200004f01efe0a9b0200009304990b9b179886
:100e300003f0b8fb1db0f0bd2b23d2e7934203d8db
:100e400011d1089b002b0ed0169b784c413b210002
:100e5000192b06d80831119804f044fe20000c30fc
:100e6000dee70c31f7e7002200230898210004f0a8
:100e700059fa00266e4f00282fd0002303931698ae
:100e800004f016fec3b20d93002d00dad4e10693f0
:100e9000672b00d0d9e0002d00d1c9e1039b0433ba
:100ea00003db039bab4200dacae06523dee0039b71
:100eb000069e079f0133039300225e4b30003900ea
:100ec00001f0f2fc089a23000690079104f038f82c
:100ed0000028ecd00023069326e00390ece7039b68
:100ee0001a00554b9a4214da069b002b11d10022ae
:100ef000524b0898210001f0d7fc504b08900c0091
:100f000030003900002201f0cffc012306000f0061
:100f10000693484b30003900002202f085fb0600a2
:100f20000f00039b013b039332003b000898210014
:100f300004f026f80028d2d1a1e708960997069b6d
:100f4000039c652b00d004e1002402e1089a099b70
:100f50000e98129902f068fb02f080fc1490159133
:100f600004f094f910220a9b1340034323d10d9bf4
:100f7000672b20d1002c2bda013580200006844617
:100f800012990e9a61440b001498159900920193de
:100f9000089a099b04f084fd80231b06cb180e9051
:100fa0001293089809990022224b02f03dfb013c64
:100fb00008900991d2e0002e0ad1002c08da059b96
:100fc000049a013b05932e2313990137535401369c
:100fd000ea193b009446302102e0049ad1540133cf
:100fe0009c45fad16246059b0137013b5b1b05938b
:100ff000049b30307f1998540025bee703983100d8
:1010000002f0d8fd049b3031013c195503983100a2
:1010100002f086fd059b0390013b0593cae0049a0c
:10102000125c1a540138f6e00000f07f805a00008c
:101030000000f03f00002440d4feffff00005043ba
:10104000039b002b11da66230693069b0135662b62
:101050000dd1039b002b03da00230026794f039365
:101060000d9b672b01d0039bed1866230693089b0d
:101070000e960f9712930023139414930e9a0f9bbe
:101080001298139902f0d0fa02f0e8fb1890199127
:1010900004f0fcf81b908020000684461399129af5
:1010a00061440b0018981999009201930e9a0f9bb6
:1010b00004f0f6fc80231b06cb18129013930e98b5
:1010c0000f99614b002202f0affa149b0e900f9122
:1010d000013314939d42d1d100225c4b01f0e4fb1b
:1010e0000e900f9102000b001298139903f048ff25
:1010f00000280ad10e9a0f9b1298139904f012f946
:10110000002806d01b9bdb0703d4002200230e928d
:101110000f930e9a0f9b0898210001f0c5fa002248
:101120000e901291484b3000390001f0bdfb0e9a31
:10113000129b0890099103f09dfe002800d1fce667
:10114000039b01330393069b662b00d0f7e6039cb9
:101150000135631b00252e000c9f1893189b1397d5
:10116000a34206d0109b1b691493053b9f4200d2fb
:10117000ece6002e07d10a9bdb0604d52e23049a49
:101180001399013753540025049bdb1908931d70f4
:10119000069b652b31d11a9b5c1e049b1d55039b3e
:1011a000ab4202da5b420393013503261a9bf31a22
:1011b0000d930736039b002b00d01fe70d9b1b19d7
:1011c000002b00dd1ae7621e2d23002d00d1023b0b
:1011d0000499023c8b54169b413b192b01d84523a3
:1011e0000693049b1919069b0b70059b023b059304
:1011f000a74202da089804f075fc03230a9a134008
:10120000022b13d1059b002b10dd049804f028fc61
:10121000049b059a9b180c9a824200dcffe6059a13
:101220003021119804f014fc00230b930498f7e587
:10123000012533e6062531e60d9b672bfad0069390
:10124000062502e70000f03f0000244000001440a3
:020000040000fa
:10125000f0b51c000b6897b008934b6813900d9382
:101260008b6809930b690e93cb68029313680693fe
:1012700053680698059300220023059903f080fe29
:1012800000280ad1089b5b073cd40820089b099ad8
:10129000034004930ed0202306e0802212069446d9
:1012a000059b634405932d23029a1370099b5a1ed4
:1012b0000123049302990498059b081806995b0082
:1012c000413c5b080c9400291ed1b5498b421bd1cf
:1012d000029a049b944663441800b24c0c9b210074
:1012e000192b00d9211d04f0fdfb201d04f0b8fbd3
:1012f000089b020000930299099b139803f052f98e
:1013000017b0f0bd2b23cfe7a5498b4203d80fd1ef
:10131000069b002b0cd0a34c0c9b2100192b05d84d
:10132000083104f0dffb20000c30dfe70c31f8e778
:10133000049b591c302303700c982833192800d9ba
:10134000203304980230049002984354931e07936c
:10135000002200230698059903f0e4ff002800d13d
:101360006ee100230026904f03930d9b1293002bf8
:1013700001da1823129300230a960b97069d059c09
:10138000109328000a9a0b9b210002f04df902f0fd
:1013900065fa0a9a0b9b1490159101f085fa0200e8
:1013a0000b002800210004f04bfb804b05000c00d3
:1013b0000a980b99002201f077fa109b0a900b9182
:1013c00001330f930d9b002b07da00220023280026
:1013d000210003f0a7ff002806d1129b109a934228
:1013e00000dd31e101330f9300220a980b99704b15
:1013f00001f05afa0a900b9102000b00280021001c
:1014000003f0befd00280dd10a9a0b9b2800210095
:1014100003f088ff002809d01498159903f036ffcf
:10142000c30703d4002300240a930b940a9a0b9b4e
:101430000698059901f038f912914900069049087b
:10144000002803d1564b994200d141e70025049c66
:101450000a9505950e9b053ba34230dd3b0032000b
:101460000698129902f0e0f802f0f8f91090119144
:1014700003f00cff031e00d0e8e0059a002a00d11b
:10148000e4e001353200109811993b0001f00cfaac
:1014900002000b000698129904f0d2fa002206907e
:1014a0001291424b3000390001f0fef9059b060015
:1014b00001330593059a0f9b0f009342cad10a9bf3
:1014c000002b1cd1029b1b19002d00d10ae10d9aa3
:1014d000002a00dc06e1089ad20700d502e12e229c
:1014e00002991a702a198a183021597001339342cf
:1014f000fbd12c19ed43079b0134eb180793002611
:10150000029b1b191e7005930e9b5d1e029b5e5570
:10151000039bb34202da5b420393013602230a279c
:101520000e9a9b1a0693039b002b00d0c4e0069be7
:101530005b19012b00d1bfe06a1e2d23002e00d1c4
:10154000023b0299023d8b540c9a5023192a00d970
:101550002033029a51190b70ac4202da059804f05c
:10156000c1fa0323089a1340022b17d1079c023caf
:10157000002c13dd029804f073fa029b1b19049ae5
:10158000904200dba9e01300029a302194466344a4
:101590001800220004f05cfa002309930298a5e6e3
:1015a0000000f07f705a00000000f03f0000b03fe4
:1015b0000000204026002f00039b013303933200dc
:1015c0003b003000390001f06ff804000d0002000c
:1015d0000b000698059903f0d3fc0028ead03200ee
:1015e0003b000698059903f0cbfc002800d1bce62f
:1015f0000022404b3000390001f056f90022002350
:1016000003f090fe00280fd000223b4b3000390041
:1016100001f04af9002206000f0006980599364ba2
:1016200001f042f906900591324b3000390000225a
:1016300001f03af9039b0600013b0f000393cee74c
:10164000039000262d4fbae70f9b99e60a9a002acd
:101650000bd1059a002a08d0079a0299013a0792fd
:101660002e220a552d3a01340a92291922008c465d
:1016700003e030210298815401329445f9d11800d9
:10168000029a013462441492079a6419013a521b77
:1016900007925730092b01dc303318000c9b192bb3
:1016a00006d820230343613b192b01d804f007fa25
:1016b000149b00251870e5e60398390002f07afac9
:1016c000029b3031013d59550398390002f028fa48
:1016d000079b0390013b079325e7029a125c1a547b
:1016e00001384ce7089ad20600d408e72e220134cc
:1016f0001a7004e70000e03f000050430000f03f94
:020000040000fa
:10170000f0b58bb0040000910192242901d8012981
:1017100003d11622bc4b1a6056e0e36be26c934295
:1017200024d25a1ce2631d78202df6d02b00093bf1
:10173000042bf2d90222223b9343002208929342c7
:101740000bd12d3d6b425d416b420893e26ce36b24
:10175000934210d25a1ce2631d78009be26c002b6e
:101760000ed0102b56d1302d0cd053e0200002f0bb
:1017700081f90500d8e7200002f07cf90500ece7cc
:10178000302d45d1e36b934224d25a1ce2631d787d
:1017900020232b43782b2fd1e36be26c93421ed294
:1017a0005a1ce2631d781022984b00925b5d0f2b50
:1017b00000d8cce0e36c002b00d1b3e1019ae36bdd
:1017c000002a11d0023be3630026002730003900d5
:1017d0000bb0f0bd200002f04df90500d8e7200065
:1017e00002f048f90500dee7013be3630022002335
:1017f000200003f00dffe7e7009b002b00d1a4e0e1
:10180000009b0a2b00d0a2e00023009f01931ce064
:101810000a2300937d4b00995b5d8b42f0d3002a35
:1018200002d0e36b013be36300220023200003f0be
:10183000effe6ee7019ee36b7e437519303d019527
:1018400093426cd25a1ce2631d782b00303be26c51
:10185000092b03d86e4b01999942ebd90027019ec1
:101860002b00303b0193e36c0493019b092b33d88d
:10187000684b9f4213d802d1674b9e420fd800237a
:101880000a223000390003f039fb019b0293002348
:101890000393029bdb434a1c46d1984244d95b4bdd
:1018a000009a5b5d934217d2e36be26c934200d3e4
:1018b0001de15a1ce2631878544b009a1b5c93425a
:1018c000f2d3109e119f22224f4b1a600123109acf
:1018d000134201d000230893e36c002b02d0e36b8a
:1018e000013be363119bbb4200d911e103d1109b83
:1018f000b34200d90ce10123109a134200d0fae060
:10190000089b002b00d0f6e0222201267642f71732
:101910003d4b1a60109b119cf618674156e720005a
:1019200002f0a8f8050090e7e36b049a029e039f7b
:1019300036184f41934203d25a1ce2631d788fe759
:10194000200002f097f805008ae708230093009b27
:101950005e1e3340019300d0c1e0009a1733534319
:101960002e4a1b065b0fd35c0293284b009a5b5deb
:10197000e16c9a4203d92a4a019890422dd9029ae1
:1019800001204042c11703f0b3ff0027019e0990d8
:1019900004911e4b5b5d0193e36c019a0693009bdf
:1019a000934200d87be7049b9f4200d977e703d19d
:1019b000099b9e4200d972e7029a3000390003f079
:1019c000a3ff019b069a03431e00e36b0f009342a3
:1019d00014d25a1ce2631d78dbe7019e029a9640fe
:1019e0001e43e36b01968b4203d25a1ce2631d78bf
:1019f000bbe7200002f03ef80500b6e7200002f049
:101a000039f80500c5e7c046540200202a2f00001f
:101a1000989999199999991999999999202f00004c
:101a2000ffffff07019e009a5643f3180193e36bf3
:101a30008b424fd25a1ce2631d783e4b009a5b5d8d
:101a4000e16c9a4203d93c4a01989042ead90027b6
:101a5000019e384b5b5d0193e36c019a0293009bfe
:101a6000934200d81be7002f17d01a000023300044
:101a7000190003f043fa002309913a001900009875
:101a800003f03cfa099b069300230793069a079bf1
:101a900080185941002900d001e73b00320000982e
:101aa000002103f02bfa019b049300230593049b70
:101ab000db434a1c02d1984200d9f0e6049e059f00
:101ac000e36b029a36184f4193420bd25a1ce263e1
:101ad0001d78bee7200001f0cdff0500ade7002333
:101ae0000193aae7200001f0c5ff0500b1e720003f
:101af00001f0c0ffe0e6119b9f4203d808d1109b84
:101b00009e4205d9109e119f22220c4b1a605de661
:101b1000089b013300d059e633003c0000275e42a9
:101b2000a74153e6019b00260027002b00d04de67d
:101b30005ce6c0462a2f0000c6711c075402002034
:020000040000fa
:101b40000023f0b504001600f1b007910893059347
:101b5000079b1b78002b68d0002309930a930b93f3
:101b60000eab0c93802307a920000d9303f00afc11
:101b70000500079b1a78002a01d0252a42d1089a2d
:101b8000551908951a78252a32d100255a1c079232
:101b90000b955a782a2a02d1023307930135079808
:101ba00003f00efa02000b90c317200003f030fd83
:101bb000079b1a78303a092a4dd907a803f080fb11
:101bc000079b0700187803f073ff672865dc65281a
:101bd00000dbcce0612800d1c9e03fdc079b252871
:101be00000d1f3e05b2800d10ee1079b013307939e
:101bf000039b013300d0fae0059b002b15d1013b7c
:101c0000059312e0e36be26c934211d25a1ce2633b
:101c10001b780393079b039a1b7893420fd0e36cc6
:101c2000002b02d0e36b013be363059871b0f0bd7c
:101c3000200001f01fff030003900133ead1089b4d
:101c400007a901330893079b20000133079303f092
:101c500099fb2d188de701330793a9e7632800d17d
:101c600099e06428c1d108ab09aa2ea9200003f08d
:101c7000b9fb002800da67e1079b01330793002dc9
:101c800000d0b4e03300012239002ea802f0d3fbcb
:101c9000051e69da6b1cafd0c7e7702843d00bdc98
:101ca0006e2852d031dc69289fd108ab09aa2ea931
:101cb000200000f063ffdce7752815d078282bd0d2
:101cc000732800d091e7802f00d08ee7079b013367
:101cd000079300239d4203d133681a1d32601b68ad
:101ce0000093012208ab6ce008ab09aa2ea92000e2
:101cf00003f08ffb002800da26e1079b01330793ee
:101d0000002d74d133002a00bee708ab09aa2ea922
:101d1000200001f0fbffede708ab09aa2ea9200087
:101d200001f083f9e6e708ab09aa2ea9200001f02b
:101d30007cf9002800da07e1079b01330793002da7
:101d400055d133002a00f0219fe7079b0133079309
:101d5000089b2e93db172f93002d48d133002a00c8
:101d600039002ea802f067fb059b5b19efe608ab74
:101d700009aa2ea9200003f0e2fe002800dae3e021
:101d8000079b01330793002d31d1320039002ea873
:101d900002f072ff7ce7802f00d026e70b9b0493b4
:101da000002b01d101330b93079b013307930023d1
:101db0009d4203d133681a1d32601b6800220093d4
:101dc00008ab09a9200002f083f861e7802f00d05a
:101dd0000be701330793e26ce36b934209d25a1c81
:101de000e2631878252808d1089b01330893002561
:101df000bae7200001f03efef4e7e36c002bf6d0da
:101e0000e36b013be363f2e7802f00d0ede60022b5
:101e10000492954204d13268111d31601268049217
:101e20005a1c07925a7800255e2a02d10233079382
:101e3000013502222eafff322900380003f008fee0
:101e400000233b70079b1a782d2a26d10133079374
:101e50000123a93204a95b1b5218137001235d1bd7
:101e6000ebb29c462ea9079a13785d2b1fd1002751
:101e7000049bbb423ed1e36be26c93425fd25a1c9f
:101e8000e2631b780393039a2eab9b185d78002db9
:101e90003fd0089b01330893ede75d2aded1013383
:101ea0000793012304aa07325b1bff32d5e7002bff
:101eb000ddd02d2b06d0079b1a780133ba18557048
:101ec0000793d0e7089b1b78002bf4d05d2bf2d052
:101ed000531c0793069b1b7850788342ebda6046cd
:101ee00001335854f8e7049b039ada55089b0137ed
:101ef00001330893e36be26c3d0093421ad25a1c03
:101f0000e2631b780393039a2eab9b185b78002b3c
:101f1000e9d1e36c002b02d0e36b013be363002dbe
:101f200000d162e6049b002b00d15ee60023049af8
:101f300053555ae6200001f09dfd0390e3e7200091
:0c1f400001f098fd03909ee70500a3e669
:020000040000fa
:101f4c000023f0b506001500afb00591019305997b
:101f5c000b78002b00d10fe101235b420a930eabef
:101f6c0000240c93802309940b940d930b5d002b90
:101f7c0001d0252b2ad1002c06d02200300003f0f2
:101f8c002ef9059b1b190593059b1a78252a00d061
:101f9c00e7e0013302930593022310219c460827a6
:101fac00059803782b2b1bd025d8202b1bd0232b4b
:101fbc001dd02a2b2ad002f0fdff0b90059b1a781e
:101fcc00303a092a33d801330593f7e70134cde7ca
:101fdc000122099b80180393134309930590dfe7b3
:101fec000423099a0ee0099b03933b430be0099be6
:101ffc0003930b4307e02d2bead0302bd9d162464b
:10200c00099b0393134309930130e7e72b680130d5
:10201c001a1d1b6805902a600b93002b07da099a8e
:10202c005b420392012203990b934a400992099b4c
:10203c00da0702d5022293430993059b1a782e2abc
:10204c000ed10022581c0a9205905a782a2a28d1bf
:10205c00023305932b681a1d1b682a6003930a939d
:10206c0005a803f027f9059b0700187803f01afd63
:10207c00692800d183e035dc632800d1d6e01bdc75
:10208c00252800d1dfe0612859d0252306aa13703a
:10209c00029b0593002309930b93013b0a93023394
:1020ac00b2e002f087ff0a90059b1a78303a092ab1
:1020bc00d6d801330593f7e7642860d06728e4dcb1
:1020cc002a00390006a803f038fa002800d1a9e04c
:1020dc00059b09a95a1c05921b7806aa3000fef72d
:1020ec0051fe3de0702800d17de016dc6e2800d159
:1020fc0091e06f28c9d12b000022390006a801f00d
:10210c00affd002800d18de0059b06aa013309a97b
:10211c003000059302f0b6fa22e0752840d07828fa
:10212c004fd07328b1d1802f00d07be0059b2a685b
:10213c0001330593131d2b601268002364e02a0001
:10214c00390006a803f0f9f9002800d16ae0059bd4
:10215c0009a95a1c05921b7806aa3000fff772f8e1
:10216c002418019b1c19a34200dc74e04f223b4b4a
:10217c001a6001235b42019301982fb0f0bd2b0034
:10218c000122390006a801f06bfd00284ad0059bfe
:10219c0006aa013309a93000059301f0b3fbdfe770
:1021ac002b000022390006a801f05afd002839d076
:1021bc00059b06aa013309a93000059302f0b2fc75
:1021cc00cee72b000022390006a801f049fd0028bb
:1021dc0028d0059b5a1c05921b7806aa09a9300029
:1021ec0000f075fdbce72b000022f02106a801f0e1
:1021fc0037fd002816d0059b079a01330593069be3
:10220c00134306d1164a163209a9300002f0e0fc3d
:10221c00a6e77823e1e7019b39001a1906a82b00e1
:10222c0002f09cfa059b013305939ae7802ff9d1b4
:10223c00059b013305932b681a1d1b682a6006aa9f
:10224c0013700123e0e7802fecd1059b06aa013324
:10225c0005931070f5e7019479e6c046540200200e
:04226c001458000002
:020000040000fa
:1022700080b500af894b9b7ddbb2002b00d10ae11a
:10228000864b5b8b9bb21a0002231340022b08d1b2
:10229000834b2022ff219954814b21220221995402
:1022a000b0e07e4b5b8b9bb21a0001231340012be5
:1022b00008d17b4b2022ff219954794b2122022106
:1022c00099549fe0754b5b8b9bb21a00042313401b
:1022d000042b08d1724b2022ff219954704b2122ec
:1022e000012199548ee06e4b20229b5c5bb2022b45
:1022f00009d003dc002b00d183e083e0032b54d012
:10230000042b12d07ee0664b1b69002b06d0644b79
:102310009b880021180002f01ffb73e0604b9b8834
:102320000121180002f018fb6ce05d4b9a695c4bd0
:102330001b699a4225d15a4b5b69002b10d0584b30
:102340009b885a00554b01210a435a62c046534ba1
:10235000db69002bfbd1524b20220321995451e021
:102360004e4b5a684d4bc02189020a435a60c04601
:102370004a4bdb69002bfbd1494b202206219954a3
:1023800040e0474b9a68464b9b69d318434a1978fb
:102390002823d154424b9b695a1c414b9a61c04639
:1023a0003e4bdb69002bfbd12ce03d4bda693c4b0b
:1023b0005b69013b9a420fd1384b5a68374be02199
:1023c000c9020a435a60c046344bdb69002bfbd17b
:1023d000334b202206219954c046304bdb69002b39
:1023e000fbd12e492e4bda682d4bdb69d3182822fe
:1023f0008a5cd2b21a702a4bdb695a1c284bda610c
:1024000000e0c046264b20229b5c5bb201331dd10d
:10241000234b202200219954204b5a681f4bc02186
:1024200089020a435a60c0461c4bdb69002bfbd172
:102430001a4b83221a761a4b5b6a002b2bd0184b4f
:102440005a6a174b9b6a1800904724e0144b2022cd
:102450009b5c5bb2062b1ed1114b202200219954ac
:102460000f4b2122002199540c4b83221a76c0462f
:102470000a4b5b8b9bb21a0030231340102bf7d111
:10248000074b5b6a002b06d0054b5a6a044b9b6acc
:1024900018009047c046c046bd4680bd00140042ab
:0424a000b401002063
:020000040000fa
:1024a40080b58ab000aff860b9607a603b60002301
:1024b4007b6200233b620023fb611b23fb18002289
:1024c4001a70bb68002b02d0fb68002b07d13b6855
:1024d400002b00d1dae07b68002b00d1d6e06f4bf3
:1024e4005b68072213407b617b69002b11d0bb68ba
:1024f400002b03d0bb680122134006d13b68002b9c
:1025040007d03b680122134003d01b23fb181b7820
:10251400bfe0fb68002b01d10023bb607b68002b6c
:1025240005d100233b6002e05c4b9b6a3b615b4b43
:102534001b7edbb21a0004231340042bf4d0574b48
:102544005b8b9bb2554a04210b439bb25383534b81
:102554001b7edbb25149802252421343dbb20b761d
:102564003a68bb689a4203d93a68bb68d31afb61dc
:102574007b69002b08d03b685b083b60bb685b0849
:10258400bb60fb695b08fb61c046444b1b7edbb24e
:102594001a0001231340012bf7d163e07a6abb6868
:1025a4009a421ad07b69002b09d1fa687b6ad31846
:1025b4001a783a4b9a627b6a01337b621de07b6a2c
:1025c4005b00fa68d3181b881a00344bd205d20d6d
:1025d4009a627b6a01337b620fe0fb69002b0cd0ab
:1025e4007b69002b03d12d4bff229a6202e02b4b17
:1025f4002b4a9a62fb69013bfb613b68002b09d1c2
:10260400c046264b1b7edbb21a0001231340012b6c
:10261400f7d127e0c046214b1b7edbb21a0004230e
:102624001340042bf7d11d4b9b6a3b613a6a3b680c
:102634009a4217d27b69002b08d13b6a5a1c3a6232
:102644007a68d3183a69d2b21a700be03b699ab22d
:102654003b6a591c39625b007968cb18d205d20dec
:1026640092b21a807a6abb689a4297d1fb69002bae
:1026740094d1c046094b1b7edbb21a0002231340df
:10268400022bf7d11b23fb1801221a701b23fb1802
:102694001b781800bd460ab080bdc0460008004241
:0426a400ff01000032
:020000040000fa
:1026a800f0b40125ed070f005f405ad48b4200d1ea
:1026b800824205d950404240504059404b40594011
:1026c8004e18760ddf187f0d3bd0741c640529d099
:1026d800f41b352c26d80e0ddb022b43db0ac9026e
:1026e8002943c9121700202c1ed2e741e240574067
:1026f800e3415a40a340e3405a400024801859411e
:102708000ad3b21c520521d0c207012f624117001b
:102718004008cb0718434908013636054208af413f
:1027280060417141f0bc7047203c06d01f00e74172
:10273800e3405f400024012a6741c0186141ebd3a0
:10274800dfe7002eeed129400020ebe70136310506
:102758000020e7e7e742e5d10020c143090dc9049d
:10276800e0e76b400e00871a9e4104d26e40c01b02
:10277800b141d21973414e18df18ac0ae642e9d2ca
:10278800760d7f0d31d0f41b362ccbd8b4460e0d08
:10279800db022b43db0ac9022943c90a012c32d8c0
:1027a80004d1d4075208df073a435b08ef0a6442b2
:1027b800904199411ed0002239424dd124194041ff
:1027c80049410124394204d10134001849413942b0
:1027d800fad06246a24204d9361b013e3605891951
:1027e800a0e7f10ac90700209ce736429ad10020e9
:1027f800002197e70200224394d0b842ded20100bc
:1028080020002024e3d1202c13dd203ce2411700d6
:10281800a240e2405740e3415a40a340e3405a40b7
:10282800012fbf410137174300227c429841914153
:102838000ce01700e741e2405740e3415a40a3400b
:10284800e3405a407c429041994100220f0303d251
:10285800013e241940414941013e36054708ac4133
:0828680050417141f0bc7047c2
:020000040000fa
:1028700008d1002806d1f54204d801d3002a01d19d
:102880006d0d09d10020c143090dc904f0bdf9d176
:102890001242f7d1640df5d00020c1434905490823
:1028a000a6e000206146f0bdf0b50127ff070e004d
:1028b0005e403e40b446be0a4c18dd18f442d7d202
:1028c000f542e4d2640decd06d0dead06419c90272
:1028d0003943460dc0023143db023b43db0a10b4ef
:1028e0008e4685b297b26f43140c6c433e0ca4190c
:1028f000260c2404bfb227439cb26c43a419190cc4
:102900006943250ca4b249190d04090c6419000c83
:1029100095b245433e0c76193743bfb2360c150cc1
:102920004543ad19a6b2240cad192e0437432e0c25
:1029300036199db24543ad19acb22e0c89191d0c48
:1029400045436d182e04290c3443704680b295b26d
:1029500045433e0c76193743bfb2360c150c454340
:10296000ad19a6b2ad19240c2e0437432e0c36191e
:102970009db24543ad19acb22e0c89191d0c4543cf
:102980006d182e043443290c75462d0c90b2684303
:102990003e0c80190604bfb23e43070ca0b23f189c
:1029a000120c6a43d019020c80b2240ca4189ab2fb
:1029b0006a43121914042043120c89181b0c6b4330
:1029c000c91810bc01273d05294203d1b619404161
:1029d0004941013cff077d0d013d641b0bdb6d0090
:1029e000ac4209da240500254208be416841614134
:0a29f00066463143f0bd54e74ee7a0
:020000040000fa
:0229fa00fee7f6
:020000040000fa
:1029fc00000200201c00000000000000000000206d
:102a0c00c0000000000000001c0200200c000000b0
:102a1c0000000000b40100202c00000000000000a9
:102a2c0028020020080000000000000030020020f6
:102a3c000800000000000000580200200100000007
:102a4c0000000000590200200100000000000000fe
:102a5c00400200200400000000000000440200209e
:102a6c000400000000000000780100203c00000081
:102a7c0000000000480200200400000000000000dc
:102a8c002801002050000000000000004c02002033
:102a9c000400000000000000e00100202000000005
:102aac000100000001000000030000000000000015
:102abc00000000000000000000000000000000000a
:102acc00380200203802002008000000000000003e
:102adc0050020020040000000000000054020020fe
:102aec000400000000000000c0000020680000008e
:102afc0001000000010000000300000000000000c5
:102b0c0000000000000000000000000000000000b9
:102b1c00194a000000000000000000000000000046
:102b2c00fb5a0000b94e000000000000000000003d
:102b3c000000000000000000000000000000000089
:102b4c000000000000000000000000000000000079
:102b5c000000000000000000000000000000000069
:102b6c0000000000222222222222222222222222c1
:020000040000fa
:102b7c00f0b51f00936889b00393136904000493a4
:102b8c00d3680591019302f075fa3b681818039b02
:102b9c003860002b02d1049b013b03930a23009362
:102bac0000231e000293039b9e4241da049b013bcf
:102bbc00b3423ddde36be26c93420fd25a1ce263ed
:102bcc001d782b0002222b3b9343334311d1019be5
:102bdc001d703b6801333b600123e2e7200000f0ed
:102bec0043ff0500431cecd1002e21d1280009b075
:102bfc00f0bd029b9e4209d1731c0293009b0a2bd1
:102c0c002cd1023b302d54d0002302932b00303baf
:102c1c00092b48d9009b102b04d1280002f0e6fdab
:102c2c00002847d1e36c002b02d0e36b013be3633c
:102c3c000023019a9355009b0a2b42d11a0007a935
:102c4c00019802f0c7fe059b019a18605960079b1a
:102c5c0001259342cad102256d42c7e7009b082b80
:102c6c00d2d118332b43782bced1e36be26c934249
:102c7c0015d25a1ce2631878e36c002b02d0e36b7c
:102c8c00013be36302f0b2fd0028cbd0019b9d55c4
:102c9c003b68013601333b601023009383e720002f
:102cac0000f0e2fee8e7009b082b03d1372d01dd95
:102cbc0002330093019b9d553b68013601333b6009
:0e2ccc0071e7009a07a9019802f07afebbe7b3
:020000040000fa
:102cda00f0b58fb00d934b680c9008938b680d007c
:102cea000993cb6816000393089b0f68002b60dbdf
:102cfa0002239f4310233b400a933368059373686a
:102d0a000693099b04930a9b002b06d0059b069aff
:102d1a00134302d0099b023b049308233b400b93c5
:102d2a005a1e9341049ad31a04932b69039a5c1e80
:102d3a0000231355089b0793012c10dd059b069a67
:102d4a00134339d1079b002b36dc089a049b9b1a44
:102d5a00079a9b18002b02dd02231f422cd10a9be3
:102d6a00002b0bd00cce134308d0039b0d9a1b19d2
:102d7a00013b1a703023039a023c13550b9b002b1c
:102d8a0003d02023039a013c13552b6900975a1e3e
:102d9a00039b121b19190c98099b01f0fefb0c9b53
:102daa005b68db0503d56b68984200da18000fb040
:102dba00f0bd012308939de70f22059b013c1340b8
:102dca0018005730092b01dc303318000d9b413baa
:102dda00192b06d820230343613b192b01d802f093
:102dea0069fe039b1855079b013b0793069b1a072d
:102dfa00059b1b091a43069b05921b0906939be731
:020000040000fa
:022e0a0070470f
:020000040000fa
:102e0c0090b59db006af304b802252045a613b0006
:102e1c0018002c231a00002102f014fe3b000122a2
:102e2c001a602c243b19180000f0e2f93b19180029
:102e3c0001f02cfd3b000121180001f033fa234a6c
:102e4c00234b1100180002f04ffc224c224a23495c
:102e5c002348244b0593244b0493244b0393244b7a
:102e6c000293244b0193244b00932300fdf732f97a
:102e7c00224b1800fdf7ebfc214b1800fdf756f91f
:102e8c00204b00221900032001f09cfc1e4b00215a
:102e9c00180002f0f3fb1d4b0021180002f012fc8d
:102eac001b4b0021180002f0fbfba023db011800d8
:102ebc0002f01afa02f000fb034b802252049a61d2
:102ecc00c046bd4617b090bd00440041b151000052
:102edc00314e0000cd5a00008157000061570000b0
:102eec00a52400002d450000a958000091580000b1
:102efc007958000061580000d95a000011410000b7
:102f0c008050de19f90c0000715500009955000035
:042f1c00a5590000b3
:020000040000fa
:102f2000000102040703060500ffffffffffffff8c
:102f3000ffffffffffffffffffffffffffffffffa1
:102f4000ffffffffffffffffffffffffffffffff91
:102f5000ffffffffffffffffffff0001020304056c
:102f600006070809ffffffffffffff0a0b0c0d0e0e
:102f70000f101112131415161718191a1b1c1d1ee9
:102f80001f20212223ffffffffffff0a0b0c0d0e66
:102f90000f101112131415161718191a1b1c1d1ec9
:102fa0001f20212223ffffffffffffffffffffff87
:102fb000ffffffffffffffffffffffffffffffff21
:102fc000ffffffffffffffffffffffffffffffff11
:102fd000ffffffffffffffffffffffffffffffff01
:102fe000fffffffffffffffffffffffffffffffff1
:102ff000ffffffffffffffffffffffffffffffffe1
:10300000ffffffffffffffffffffffffffffffffd0
:10301000ffffffffffffffffffffffffffffffffc0
:0a302000ffffffffffffffffffffb0
:020000040000fa
:10302a00f0b51f00936887b00193136904000293f7
:10303a00d3680391009302f01ef83b681818019bad
:10304a003860002b02d1029b013b01930026019bb1
:10305a009e4231da029b013bb3422ddde36be26c07
:10306a0093423cd25a1ce2631d78280002f0bffb4f
:10307a00002843d1012e19d1280002f014fd782826
:10308a0014d1009b1b78302b10d1e36be26c934276
:10309a0030d25a1ce2631878e36c002b02d0e36b3f
:1030aa00013be36302f0a3fb002827d1e36c002b6a
:1030ba0002d0e36b013be3630023009a05a9935511
:1030ca000098102202f07dfc039b009a1860596058
:1030da00059b012593420ad102256d4207e0200093
:1030ea0000f0c3fc0500431cbfd1002ee4d1280028
:1030fa0007b0f0bd200000f0b8fccde7009b9d555d
:0a310a003b68013601333b60a1e78a
:020000040000fa
:1031140080b500af364b1b78dbb2354a01210b4337
:10312400dbb21370c046324b5b78dbb21a008023eb
:103134001340802bf7d02e4b802252019a612c4be6
:103144000022da612a4b0822da602a4b10221a7212
:10315400284b10221a75274b202210219954254bf5
:103164002c2203219954234b382210219954214baa
:103174004422102199541f4b5022102199541d4b65
:103184005c22102199541b4b682210219954194b2d
:10319400742210219954174b802210219954154bf5
:1031a4008c2210219954134b982210219954114bbd
:1031b400a422102199540f4bb022102199540d4b85
:1031c400bc22102199540a4b1b78dbb2084a022115
:1031d4000b43dbb21370c046054b5b78dbb21a00bd
:1031e40080231340802bf7d0c046bd4680bdc04627
:0831f40000180040000000205b
:020000040000fa
:1031fc00b0b594b002af786044257b192f4a1a8081
:10320c002f4b3b642f4bfb630c23fb182e4a13ca2a
:10321c0013c313ca13c313ca13c313ca13c37b68d0
:10322c0008331a007b681c1d7b682849386c009396
:10323c00230002f07bfb7b680c331c007b6814338f
:10324c000822ba182249f86b0093230002f06efb97
:10325c007b685a697b1900215b5ed21a7b685a61c4
:10326c004623fb1800221a801ee046243b1900223c
:10327c009a5e0c23fb189200d2580823fb181100fd
:10328c00180002f069fb031e05d13b1900229a5e5f
:10329c007b681a610ee046217b1800229b5e9bb274
:1032ac0001339ab27b181a804623fb1800229b5ece
:1032bc000b2bdaddbd4612b0b0bdc0466c0700006a
:1032cc00643f0000703f0000c43f00007c3f0000e2
:1032dc00883f0000f0b5060085b00f0015001c00fb
:1032ec008b4265d801d1824262d82100280002f0bd
:1032fc0011fb39000090300002f00cfb009b210008
:10330c001b1a1a002800039302f0f8fa009001919e
:10331c00019bbb4246d802d1009bb34242d8009bd2
:10332c00019c039a01200021f61aa74102f0e6fa4b
:10333c00039b002b2fd0019b009adb0754081c43e6
:10334c00019b5d08039b9c46bd422ed801d1b44223
:10335c002bd832003b00121bab41012692185b416b
:10336c000027b6185f4101235b429c446346002b47
:10337c00ead180197941039a04000d00300039001c
:10338c0002f0b0fa039a06000f0002f0b7fa241a02
:10339c008d41200029000a9b002b01d01e605f602c
:1033ac0005b0f0bd00200021c2e7b6197f41dae775
:0633bc0000200021efe7f4
:020000040000fa
:0233c200704752
:020000040000fa
:1033c40090b583b000af02003960fb1d1a70fb1d7d
:1033d4001b787f2b28d82f4afb1d1b785bb29b08d8
:1033e400c0339b009b58fa1d1278110003220a4037
:1033f400d200ff2191400a00d2431a4011003b68d9
:103404009b01ff221a40fb1d1b7818000323034075
:10341400db009a401f48fb1d1b785bb29b080a43e4
:10342400c0339b001a5031e01b4afb1d1b78190066
:103434000f230b40083b9b0806339b00d31804332f
:103444001b68fa1d1278110003220a40d200ff21e2
:1034540091400a00d2431a4011003b689b01ff22ad
:103464001a40fb1d1b78180003230340db009a401d
:103474000948fb1d1b781c000f232340083b9b08b5
:103484000a4306339b00c31804331a60c046bd4682
:0c34940003b090bd00e100e000ed00e09e
:020000040000fa
:1034a00080b582b000af2b4b01221a70c046294b69
:1034b0005b7edbb25bb2002bf9db274b1b68db0ebc
:1034c0007b60264b1b68072213403b607b689ab2e7
:1034d0003b689bb25b019bb213439bb21bb2ff22c2
:1034e00013401ab21d4b1b68db089bb21b0219b2ba
:1034f000e023db000b401bb213431ab2154b92b210
:103500001a85144b0322da70124b02225a70114ba7
:10351000c02252011a61c0460e4b5b7edbb25bb229
:10352000002bf9db0b4b0e4a9a80c046094b5b7ea1
:10353000dbb25bb2002bf9db064b0f221a76c046da
:10354000044b5b7edbb25bb2002bf9dbc046bd46b1
:1035500002b080bd004000422060800024608000f6
:04356000040700005c
:020000040000fa
:1035640080b500af2c4b2d4a1a602b4b2c4a1a61a4
:10357400294a42230121d154274a43230021d1540b
:10358400254a47230121d154234a48230521d154f4
:10359400214a49230521d1541f4a4b230021d154e8
:1035a4001d4a4e230021d1541b4a52230421d154d5
:1035b400194a53230321d154174a56230121d154c4
:1035c400154a57230121d154134a58234021d15479
:1035d400114a31230121d1540f4a33233021d154cc
:1035e4000d4a34232221d1540b4a35230021d154ce
:1035f400094a37230021d154074a39230021d154e1
:10360400054a3b232221d154034a3c230021d154af
:10361400c046bd4680bdc046004400410848040180
:04362400004b040152
:020000040000fa
:10362800f0b40125ed070c005c402c40a446ae0a1e
:103638004c18df18f4423dd2f74245d2640d4cd005
:103648007f0d3cd0e41bc9022943cf0adb022b4380
:10365800db0a0600b61a9f4104d2013cb6197f4125
:10366800b6185f416812800d241838dd00188442ae
:1036780025d8e80c0021b6197f41b61a9f4103d31b
:1036880040414941f7d304e0b6185f410018494169
:10369800f1d32405b6197f41b61a9f4105d33743a4
:1036a800c20717430022012f50416141624611436e
:1036b800f0bc70470cd100280ad1f74208d200208c
:1036c800c143490d0905f1e7002a01d1f74206d0a7
:1036d8000020c143090dc904eae77f0df8d0002096
:0436e8006146e5e76b
:020000040000fa
:1036ec0080b582b000affb1d00221a7000233b6036
:1036fc00fb1d00221a7043e0fb1d1a7824491300ad
:10370c005b009b189b00cb1808331b78fa1d1278b2
:10371c009a4230d11f4b1b69fa1d1278012191403e
:10372c000a0013403b603b68002b24d0fb1d1a7829
:10373c00174913005b009b189b005b58002b13d0a0
:10374c00fb1d1a78124913005b009b189b005958fb
:10375c00fb1d1a780e4813005b009b189b00c318c6
:10376c0004331b6818008847fb1d1a78094b01218c
:10377c0091400a001a61fb1d1a78fb1d01321a7068
:10378c00fb1d1b780f2bb7d9c046bd4602b080bdc0
:08379c000000002000180040ad
:020000040000fa
:1037a40030b405004d400124e407254042004b009d
:1037b400120e32d01b0e3cd0ff2a33d0ff2b3fd049
:1037c400d21800022043000a09022143090ac4b2a4
:1037d4004c43000ac3b24b43000a4843210a5b1816
:1037e400190a091801d44900013a080a7f3a2adb68
:1037f400fe2a0fd2d2051c43240601d00124214302
:10380400c9b280295041802901d140084000284391
:1038140030bc7047ff20c005f9e71b0eff2b0ad010
:103824002800f5e7400206d1ff2bf3d1490202d16b
:10383400f0e7ff2af4d17f2000010c300005e7e710
:103844004902f8d1e6e743020132e9d15b120233bf
:08385400e6d9d805e4e7c046ff
:020000040000fa
:10385c004b005b0d264af0b55c1e944238d8254ac5
:10386c009e1825d4332e22dc234a9b1827d4234ab6
:10387c00da400700214b9743f3403c000f00024015
:10388c009f4319403d000a430fd0002f0dda20232f
:10389c005b42f11824d480204003c84002008021f0
:1038ac004903f1400b00a4185d4120002900f0bd34
:1038bc000020002901db0021f9e71149f7e720225c
:1038cc000e4b921b934001225242f2401a43d0e716
:1038dc00002becd10022c90fcb0710001900e6e732
:1038ec0020218020891b400388400200d7e7c04676
:1038fc00fd07000001fcffffe1fbffffffff0f00d6
:04390c000000f0bf08
:020000040000fa
:10391000f0b54b6889b005930b6807009c46079388
:10392000cb680c008e68049310685168cd0f44d0aa
:103930000b000200002150429941059b002b08db3f
:103940000222634693430793002d02d1079b5a0737
:103950002ad5731e07aa02920a22009301920b0035
:103960000200200000f028fd002d02d1079b5a071d
:103970001ed501382d23002d00d1023b049a13548b
:1039800023695a1e049b121a1918079b38000093ca
:10399000330000f007fe7b68db0503d563689842bf
:1039a00000da180009b0f0bd1b07db0ff31ad1e7ee
:1039b0001b07e5d501382023e0e7059b002bbfda84
:0239c000c4e75a
:020000040000fa
:0239c20070474c
:020000040000fa
:1039c40090b587b002af244b5c683b1de3221a70ac
:1039d4003a00391d02230093130001224020a0471e
:1039e400c0461d4b1b689847031efad13b001b7849
:1039f4009bb21b0299b23b005b789bb2fc22134042
:103a04009ab20e203b188a181a803b181b8818009b
:103a140001f0d4fe114a124bfef744ff03000c00e0
:103a24001800210000220f4bfff7fcfd03000c00df
:103a3400180021000c4a0d4b02f000f803000c00a2
:103a44001800210000f0f4fe031cbb60bb68181cc6
:103a5400bd4605b090bdc04630020020d7a3703dde
:103a64000af765400000f040cdcccccccc6c47408c
:020000040000fa
:103a7400026df0b51100436d85b0040019430cd0fc
:103a8400c16d994209db02d1836d934205d30023b2
:103a94000120e364404205b0f0bd200001f0cafdfe
:103aa4000028f4db226d636d00920193019a216c6e
:103ab400009be56b13430a00002b19d0a26de36d44
:103ac40002920393029e039f009a019b921bbb41a7
:103ad4001f004b1b16001a00db179c4667451adcb7
:103ae40001d1964217d8009b029a013b9a1aaa1850
:103af400e264002909d0a66de76d491b01310a0073
:103b0400cb1792197b41a265e3656b1e1a7882423a
:0a3b1400c1d01870bfe70a00eae70d
:020000040000fa
:103b2000002941d010b4041c4c40a44601230022bb
:103b3000002900d54942002800d5404288422cd3b4
:103b400001242407a14204d2814202d209011b01af
:103b5000f8e7e400a14204d2814202d249005b00ae
:103b6000f8e7884201d3401a1a434c08a04202d316
:103b7000001b5c0822438c08a04202d3001b9c0857
:103b80002243cc08a04202d3001bdc0822430028b9
:103b900003d01b0901d00909e3e7101c6446002c7f
:103ba00000d5404210bc704701b5002001f0ccffa9
:103bb00002bdc0460029f7d003b5fff7b3ff0ebc26
:083bc0004243891a1847c04670
:020000040000fa
:103bc80080b582b000af234b9b8c9bb2214a8021e9
:103bd8008b439bb29384c0461e4bdb681022134074
:103be800102bf9d11c4b1b689b0e7b607b683f2b0d
:103bf80001d07b6800e01f237b607b689b021b046d
:103c08001a0c144b802189000a439a62134b8222b2
:103c1800d2015a80c0460f4bdb6810221340102b8c
:103c2800f9d10c4b0e4ada62c0460a4bdb68102207
:103c38001340102bf9d1074b06229a84c046054b36
:103c4800db6840221340402bf9d1c046bd4602b084
:103c580080bdc0460008004024608000000c004081
:043c6800b805010496
:020000040000fa
:103c6c0030b5882933d015dc812941d003dc80297b
:103c7c003ed0002030bd822911d08429f9d11c6896
:103c8c0002cc1c60002a1ed009b20160c917416029
:103c9c000120efe7a02923d00adc9029e9d10724e1
:103cac0019680731a14330c9196004604560efe71a
:103cbc00c02901d0f029dcd11a68111d19601368d4
:103ccc000360002312e089b201604260e0e71c68e7
:103cdc0002cc1c60002a01d049b2d6e7c9b2f3e786
:103cec001a68111d196013680360db174360cfe776
:103cfc0019680c1d1c600b680360002ae5d0f4e702
:020000040000fa
:103d0c00f0b51f00936887b0019313690400029308
:103d1c000391d66801f0aef93b681818019b386026
:103d2c00002b02d1029b013b01930025019b9d427c
:103d3c0014da029b013bab4210dde36be26c934265
:103d4c001dd25a1ce26318780300303b072b1fd995
:103d5c00e36c002b02d0e36b013be36300230822ee
:103d6c00735505a9300001f02bfe039b18605960b8
:103d7c00059b0120b34209d10220404206e02000fd
:103d8c00fff772fe431cdfd1002de7d107b0f0bd69
:0c3d9c0070553b68013501333b60c7e700
:020000040000fa
:103da80030b405004d400124e407254042004b0093
:103db800120e26d01b0e34d0ff2a2dd0ff2b35d063
:103dc800d21a000220430902214343084908a00de2
:103dd8005b1a02d2013a5b005b185b008b4200d38e
:103de8005b1a4041f9d37f3222ddff2a06d2d20581
:103df800c91a8b425041284330bc7047ff20c00588
:103e0800f9e71b0e03d0ff2b12d1490210d07f20f7
:103e180000010c300005efe74002f8d1ff2bedd18f
:103e2800f5e7ff2aead14002f1d1e7e74902eed1ee
:043e38002800e1e796
:020000040000fa
:103e3c00f7b50b6916000193cb68050000938f68ea
:103e4c0001f018f9336818183060002f01d1019b6c
:103e5c005f1e0024bc422bda019b013ba34227ddf1
:103e6c00eb6bea6c93420fd25a1cea63187803008e
:103e7c0002222b3b934323430ed1009b0124187049
:103e8c00336801333360e5e72800fff7edfd431c91
:103e9c00edd1002c0cd1febd0200009b303a1b1959
:103eac00092a09d9eb6c002b02d0eb6b013beb63bd
:103ebc000020009b1855eee718703368013401336d
:043ecc003360c7e7b1
:020000040000fa
:103ed000f7b505000c0017001e00002a04d001f001
:103ee000cff8336818183060a36800240193019b51
:103ef000002b01d09c421fdaeb6bea6c934214d288
:103f00005a1cea631878002f1dd0202803d0030024
:103f1000093b042b17d8eb6c002b02d0eb6b013b59
:103f2000eb63089b002b19d109e02800fff7a2fde5
:103f3000431ce8d1002c05d0089b002b0cd120009d
:103f4000441ea041febd089b002b00d018553368cd
:103f5000013401333360cae7002ff0d00023089a00
:043f60001355ece722
:020000040000fa
:103f640030313a33383a31360000c0465365702058
:103f7400203920323032320025643a25643a2564ef
:103f84000000c04625732025642025640000c04637
:103f94004a616e00466562004d61720041707200b4
:103fa4004d6179004a756e004a756c004175670071
:103fb400536570004f6374004e6f76004465630070
:103fc400943f0000983f00009c3f0000a03f000089
:103fd400a43f0000a83f0000ac3f0000b03f000039
:103fe400b43f0000b83f0000bc3f0000c03f0000e9
:020000040000fa
:103ff400f0b5c6461f4a204b00b50021934203d2b8
:10400400197001339342fbd10b231c4a9c46083b95
:1040140098461368546819000026214311d01700ec
:1040240091680c3700290fd11a19002c03d01e7087
:1040340001339342fbd13a001368546819002143b9
:10404400edd104bc9046f0bd6146c91a1d19511842
:10405400002c05d05a1c505c187013009542f9d1fd
:10406400434623405a1e9341a4081c19a4003f1937
:104074003a00e1e70000002000000020fc290000d5
:020000040000fa
:10408400b0b584b000afb9607a603b600e23fb1812
:10409400021c1a801c4b20229b5c5bb2002b01d0bb
:1040a40000232de0184b0e203a1812889a80164be4
:1040b4003a68da60144b3a6a5a61134bba689a60e8
:1040c400114b7a681a61104b1c2408257a191219ad
:1040d40012789a700c4b202208218c46bc4462440e
:1040e40012781a70084b2122002199547b191b194c
:1040f4001a783b181b881100180000f02bfc0123d0
:0c4104001800bd4604b0b0bdb40100209e
:020000040000fa
:1041100090b595b000af78607b68002b3ad04f2304
:10412000fc18fcf763fb030023704e23fc18fcf71c
:104130005dfb030023704d23fc18fcf757fb0300c5
:1041400023704c23fc18fcf751fb030023700c2355
:10415000fb1800221a6004333c220021180001f0f1
:1041600077fc0de0fcf742fb03001a000b217b18e3
:104170001a7079180c23fb180122180001f0cef9ef
:10418000fcf724fb031eedd10c23fb18180001f0f3
:0c41900067fc00e0c046bd4615b090bdc5
:020000040000fa
:10419c00002934d00123002210b488422cd30124ee
:1041ac002407a14204d2814202d209011b01f8e783
:1041bc00e400a14204d2814202d249005b00f8e73c
:1041cc00884201d3401a1a434c08a04202d3001b68
:1041dc005c0822438c08a04202d3001b9c0822439b
:1041ec00cc08a04202d3001bdc082243002803d0d9
:1041fc001b0901d00909e3e7101c10bc704701b57d
:10420c00002001f09bfc02bd0029f8d003b5fff79c
:0c421c00c1ff0ebc4243891a1847c0467f
:020000040000fa
:104228002e2e2f7372632f4c6f52612e6300c0467f
:1042380076657273696f6e203d3d204c4f52415f29
:1042480053454d544543485f56455253494f4e20b8
:1042580026262022756e737570706f7274656420df
:1042680053454d544543482076657273696f6e22f5
:104278000000c046860900008a0900008e09000077
:1042880092090000960900009a0900009e090000a2
:10429800a2090000a6090000aa0900004c6f52619b
:0842a800426567696e00c04623
:020000040000fa
:1042b00080b582b000af78600a00fb1c1a707b6882
:1042c0005b69783b9a067b681b6901339b051a433f
:1042d0007b68db685b041a437b689b681b031a439b
:1042e0007b685b689b011a437b681b681900104b55
:1042f0000a439a61c0460e4b9b7adbb21a008023b8
:104300001340802bf7d00a4afb1c1b781377c0465a
:10431000074b9b7adbb21a0080231340802bf7d027
:10432000034b0122da7101231800bd4602b080bda3
:044330000014004035
:020000040000fa
:1043340090b587b002af1d4b5c683b1de5221a7037
:104344003a00391d02230093130001224020a047a4
:10435400c046164b1b689847031efad13b001b78d6
:104364009bb21b0299b23b005b789bb2fc221340c8
:104374009ab20e203b188a181a803b181a88130028
:104384005b019b1a9b009b18002b02da084a944697
:1043940063441b14063b180001f010f9031cbb60b6
:1043a400bb68181cbd4605b090bdc0463002002055
:0443b400ffff000007
:020000040000fa
:1043b800f0b5050085b019000c9b100001931a6830
:1043c8002b696c68013bef681d00002c00da0124a2
:1043d8000026fe540a9e0123361b0296022616402a
:1043e8000b9ad2170392002d04dc002b17d028005b
:1043f80005b0f0bd02000a4307d1002c05dc029a83
:104408001219002af1dd002eefd00b9a039b00f061
:1044180013fe013d130030327a55013ce3e71023c7
:0e442800019a12689a431300019a1360dfe7ad
:020000040000fa
:1044360030b588292cd012dc812930d003dc8029c4
:104446002dd0002030bd82290ed08429f9d11968db
:1044560000680c1d1c600b6818800120f2e7a0297b
:104466000fd00adc9029ecd1046845681968081d4c
:1044760018600b681c605d60efe7c02901d0f02969
:10448600dfd11a680168101d186013681960e4e727
:10449600196800680c1d1c600b681870dde7196848
:0c44a60000680c1d1c600b681860d6e755
:020000040000fa
:1044b40080b500af00f0b8fb00f0b2fe00f0d4ff0e
:1044c400fff780fb00f0baff0d4b0e4a5a800c4bed
:1044d4000d4a5a800a4b0d4a5a80094b0c4a5a809d
:1044e400074b0c4a5a80064b0b4a5a800b4b0c4a1a
:1044f4001a620c4b00221a62c046bd4680bdc046fb
:10450400000c00400443000005400000144000007b
:10451400174000001b4100001e4000000004004042
:0845240024080100000800401a
:020000040000fa
:10452c0080b588b000af78600023fb61184b5b68e6
:10453c0001333b617b68174a5343fb60144b1b6888
:10454c0001221340012b1ed1114b9b687b6116e09d
:10455c000f4b9b68bb607a69bb68d31abb61ba68a6
:10456c007b699a4205d93a69bb68d31a7a69d31820
:10457c00bb61bb687b61fa69bb69d318fb61fa69e3
:10458c00fb689a42e4d3c046bd4608b080bdc04625
:08459c0010e000e064bb000028
:020000040000fa
:1045a400f0b51e00012389b014000e9a07001a40ca
:1045b4000291019220d1b4421eda351b03952a00e0
:1045c400102d00d91022202104a801f03ffa0f2d4c
:1045d4001bdc0f22039b04a913401a00380000f0cf
:1045e40002fe019b002b04d122000299380000f046
:1045f400fafd300009b0f0bd22000299380000f045
:10460400f2fdb442d9db2600f3e7102204a93800f6
:0846140000f0e9fd103ddae7ba
:020000040000fa
:10461c0080b500af184b01221a60c046164bdb69ff
:10462c00002bfbd1144b802252005a60c046124b17
:10463c00db69002bfbd1104be822da600e4b0f4ae2
:10464c001a60c0460c4bdb69002bfbd10a4b1022c5
:10465c005a83c046084bdb69002bfbd1084b212247
:10466c0000219954064b202200219954024b83229d
:10467c009a75c046bd4680bd00140042160010005d
:04468c00b401002055
:020000040000fa
:10469000f0b50b680c008f68cd68496887b00600dc
:1046a0000593002902db02218b43059305a953687a
:1046b000126802910821009701912000fff77cfe0b
:1046c000059bdb0602d5302301382b54059b1b07c5
:1046d00002d5202301382b54236929185a1e059b23
:1046e000121a009330003b00fff75cff7368db0594
:0e46f00003d56368984200da180007b0f0bde9
:020000040000fa
:1047000080b500af002000f04bfbfef77ffb114ba4
:104710001b78dbb2002b02d00e4b00221a700e4b1e
:104720001b78dbb2002bf2d00c4b802252045a6172
:10473000094b00221a70fff745f9021c084b1a605a
:10474000fff7f8fd021c074b1a60044b802252044d
:104750009a61dce758020020590200200044004121
:08476000400200204402002089
:020000040000fa
:1047680010b584291fd007dc812915d0822922d0d1
:10477800802911d0002010bd90291cd008dc882980
:10478800f8d119680c1d1c600b6803601a7010e0e2
:10479800a02901d0c029edd119680c1d1c600b6837
:1047a80003601a6005e019680c1d1c600b68036043
:1047b8001a800120dfe719680c1d1c600b68036074
:0847c8001a60d2175a60f4e7f1
:020000040000fa
:1047d00080b584b000afb9607a600f217b18021ced
:1047e0001a7008007b181a78114913005b009b1897
:1047f0009b00cb1808331b783a1812789a4213d1d1
:104800003b181a780a4913005b009b189b00ba6892
:104810005a503b181a78064913005b009b189b00fe
:10482000cb1804337a681a60c046bd4604b080bd18
:044830000000002064
:020000040000fa
:104834004b1801225205da4217d25b0d0722d2012e
:104844009b1a0fd9ff2b13d2db05ca0fd2071343d0
:104854000903020d1143490ac200524100d9013132
:10486400c8187047c80fc007704706d1002804d184
:10487400c80f0002ff30c00570470123db070a00a0
:10488400c900400f084398431a4010435b0a184379
:044894007047c04663
:020000040000fa
:1048980080b582b000af78607b685b69783b9a0628
:1048a8007b681b6901339b051a437b68db685b04e3
:1048b8001a437b689b681b031a437b685b689b01f0
:1048c8001a437b681b681900084b0a431a61c046e3
:1048d800064b9b7adbb21a0080231340802bf7d05b
:1048e80001231800bd4602b080bdc0460014004038
:020000040000fa
:1048f80080b582b000af0200bb1d1a807b1d0a1c68
:104908001a707b1d1b78002b04d00f4b202203212b
:10491800995403e00c4b202204219954bb1d1b8899
:1049280059007b1d1b78002b01d0012200e00022da
:10493800064b0a435a62c046044bdb69002bfbd185
:10494800c046bd4602b080bdb4010020001400423c
:020000040000fa
:1049580080b582b000af0200bb1d1a807b1d0a1c07
:104968001a70104b00229a610e4b0022da610e4b2e
:1049780083221a760c4b5a680b4b0c490a405a6032
:10498800c046094bdb69002bfbd17b1d1a78bb1d88
:104998001b8811001800fff7abffc046bd4602b0e8
:1049a80080bdc046b401002000140042fffffbff99
:020000040000fa
:1049b800002370b59eb004000d00160005931390f7
:1049c800069098421fdb114bc31814930022002352
:1049d80004a800f019fe229a239b3100009201934b
:1049e80004a80122fcf788fe002d0ad0139b02932d
:1049f800149b0393039a029b9b1a1a9a9b18e41818
:104a08002c601eb070bd01235b42dee7ffffff7f15
:020000040000fa
:104a180037b504000d00002801d100203ebd4368d1
:104a28009b0607d543698269934217d80023a3627e
:104a3800a3616361e26b236c9a4206d20121d21a08
:104a4800d3170091206801f07df800232364e36305
:104a58009d42e2d0206801f05df8dfe70022c36ada
:104a6800110098476369002be0d101204042d5e747
:020000040000fa
:104a780080b500af134b1b889bb2124a01210b4330
:104a88009bb21380c0460f4b9b7adbb21a0080237f
:104a98001340802bf7d00b4b802252009a80094b91
:104aa800094a1a80c046074b9b7adbb21a0080235a
:104ab8001340802bf7d0034b0122da71c046bd4664
:0c4ac80080bdc046001400400a0a000037
:020000040000fa
:104ad40000230e4a10b513600d4a13600d4a13608b
:104ae4000d4a13600d4a13600d4a5362136101337a
:104af400936000f0cbfffef762fc0a4c0a4b9c4229
:104b040000d310bd08cc9847f8e7c04650020020f7
:104b14003401002030010020280100202c01002055
:0c4b240038010020c4000000c8000000a0
:020000040000fa
:104b3000f0b50b680c008f68cd68496887b0060037
:104b40000593002902db02218b43059305a95368d5
:104b5000126802910a21009701912000fff72cfcb6
:104b6000236929185a1e059b121a009330003b0036
:104b7000fff718fd7368db0503d56368984200da18
:064b8000180007b0f0bdb3
:020000040000fa
:104b880080b500af114b01221a80c0460f4bdb7b6a
:104b9800dbb25bb2002bf9db0c4b8c22d2001a8003
:104ba8000a4b02221a83094b3b229a73084b0022b4
:104bb8001a60064b01225a73c046044bdb7bdbb2fa
:104bc8005bb2002bf9dbc046bd4680bd002c00421d
:044bd800280200208f
:020000040000fa
:104bdc00f0b50f0087b0039015001049072204a808
:104bec001c0000f00bffbb687e6802933f68002d31
:104bfc0000d104ad002c03d1280000f02bff0400e1
:104c0c00002e02dbb44200d934000097029b220034
:104c1c0029000398fff7c0fc07b0f0bd245b00002f
:020000040000fa
:104c2c0090b583b000af0f4b5c681b68a1090023e3
:104c3c001a000a007f2313407b607b681a04fe2352
:104c4c00db031a40084b06210a439a61c046064b07
:104c5c00db6804221340042bf9d1c046bd4603b0d7
:0c4c6c0090bdc0462060800000080040a1
:020000040000fa
:104c780010b581290fd0832903d0802914d00020b2
:104c880010bd1368191d11601b6841680068186021
:104c980059600120f4e71368191d11601b68016849
:104ca800426819605a60f4e71368416800681c1d7f
:0c4cb80014601c68fff7bafd2060eae7fa
:020000040000fa
:104cc4000200002310b54832d3560400591e0b438a
:104cd400137043698269934203d90022c36a1100a5
:104ce400984700236068a362a3616361830705d5c5
:104cf4001023184360600120404210bda368e2689d
:0c4d040000079b182364e363c017f6e768
:020000040000fa
:104d100010b5064c2378002b07d1054b002b02d091
:104d2000044800e000bf0123237010bd00020020f2
:104d30000000000000000000044b10b5002b03d061
:104d40000349044800e000bf10bdc0460000000059
:084d5000040200200000000035
:020000040000fa
:104d580080b500afbff35f8f62b603210320fef773
:104d68002dfb032000f074fa03210420fef726fb34
:104d7800042000f06dfa03210c20fef71ffb0c2025
:104d880000f066fa03211220fef718fb122000f04b
:084d98005ffac046bd4680bd74
:020000040000fa
:104da00080b582b000af78600e4b06225a60fef7e5
:104db000d9fbfff77ffbfff731fc00f0e9fd00f0c6
:104dc0009df900f069fbfef76bfbfef7a3f9fff717
:104dd00053fefff7d9fefff7bfffc046bd4602b046
:084de00080bdc0460040004107
:020000040000fa
:104de80010b50a4b98470a4b9847fff7fff8094b4d
:104df800ff229343084a9360084b9847084b98470b
:104e0800084b9847fff778fcfee7c0460b2e0000da
:104e18000b2e00000000000000ed00e0d54a000065
:084e28000b2e00000b2e000010
:020000040000fa
:104e300080b582b000affb1d01221a700b4b2022ff
:104e40009b5c5bb2002b0ad1094b5b8b9bb21a00b7
:104e500030231340102b02d1fb1d00221a70fb1dc2
:104e60001b781800bd4602b080bdc046b4010020ca
:044e700000140042e8
:020000040000fa
:104e740030b401256d054c00e54215d85c00e542cf
:104e840012d80c001c436400044314430fd005d211
:104e940082428b418041013030bc7047904299413d
:104ea4008041013030bc7047002030bc7047012085
:044eb40030bc704757
:020000040000fa
:104eb800d3b51f004368040016009b0607d5436955
:104ec800826993420bd80023a362a3616361069ba6
:104ed8003200009320003b0000f0befbdcbd002246
:104ee800c36a110098476369002becd10120404246
:044ef800c117f3e704
:020000040000fa
:104efc00f7b597b201933b00140c86b2050c7343c3
:104f0c006f4366436543f6191c0ca4199c46a742d3
:104f1c0002d980235b02ed186346260c7519240414
:104f2c009eb2019ba4194343200051435b195918ad
:044f3c0003b0f0bd11
:020000040000fa
:104f400030b401256d054c00e54215d85c00e54202
:104f500012d80c001c436400044314430cd005d247
:104f600082428b418041404230bc7047904299411f
:104f70008041404230bc7047002030bc7047c04682
:020000040000fa
:104f800030b401256d054c00e54215d85c00e542c2
:104f900012d80c001c436400044314430cd005d207
:104fa000904299418041404230bc704782428b41df
:104fb0008041404230bc7047002030bc7047c04642
:020000040000fa
:104fc000030010b51a78202a0dd0110009390429e0
:104fd00009d900212b2a02d02d2a01d10131013318
:104fe00000200a2404e00133ece760430133801a17
:104ff0001a78303a092af8d9002900d1404210bd68
:020000040000fa
:10500000f7b5551c846bff35070001910092002114
:105010002a00200000f0b1fc002800d0051b009bf6
:105020002e009d4200d91e0032002100019800f0a0
:10503000ebfca31964193000fb633c64bc63febd48
:020000040000fa
:10504000002b11d1002a0fd1002900d1002802d055
:105050000021c943081c07b4024802a1401802906d
:1050600003bdc046e50a000003b4684601b50298d6
:10507000fef736f9019b9e4602b00cbc7047c04655
:020000040000fa
:1050800070b504000025e36be26c934211d25a1c08
:10509000e263187820280ad00938042807d9e36c7d
:1050a000002b02d0e36b013be363280070bd0135a8
:0e50b000e9e72000fef7defc431cebd1f5e73c
:020000040000fa
:1050c00080b500af0b4b1b7adab20b4b1a70094b51
:1050d000c1221a72084b5b68002b07d0064b5a6836
:1050e000054b1878044b9b6819009047c046bd4695
:0c50f00080bdc046001400401c020020df
:020000040000fa
:1050fc0080b500af0b4b802292025a60c046094b20
:10510c00db69002bfbd1074b16221a73054b064aa1
:10511c001a60c046034bdb69002bfbd1c046bd4671
:0c512c0080bdc046000800420e001300c9
:020000040000fa
:1051380080b582b000af0b4afb1d927b1a70094bf9
:105148003b229a73084b1b68002b07d0064b1a6842
:10515800054b5968fb1d1b7818009047c046bd4693
:0c51680002b080bd002c00422802002094
:020000040000fa
:105174001c2101231b04984201d3000c10391b0a83
:10518400984201d3000a08391b09984201d3000947
:10519400043902a2105c40187047c046040302029e
:0c51a400010101010000000000000000fb
:020000040000fa
:1051b000b0b588b004afb9607a603b600e257b194a
:1051c000021c1a803c687a68b9687b191888002329
:1051d0000293002301933b6a00932300fef752ffe2
:0a51e00003001800bd4604b0b0bd86
:020000040000fa
:1051ea00436870b50400d80510d52569954200d9e1
:1051fa0015002a00606900f002fc226963695b19e4
:10520a00551b0022636125611a7070bddb06fcd450
:08521a00200000f0eafbf8e7b8
:020000040000fa
:1052240080b500af084b094a5a60074b084a9a6098
:10523400c046054b5b78dbb21a0080231340802bf9
:10524400f7d0c046bd4680bd000c004003040100f9
:045254000320000033
:020000040000fa
:1052580080b582b000af0200fb1d1a70fb1d1b78e1
:105268007f2b09d8fb1d1b781a001f231a40044bfb
:10527800012191400a001a60c046bd4602b080bdb7
:0452880000e100e061
:020000040000fa
:10528c00f4464a1805d200f061f801d5c017400861
:10529c00604701235b05d34206d200f057f801d5d5
:1052ac000120c0074042604701d10042f5d0d01721
:0452bc0040087047ef
:020000040000fa
:1052c000f0b5050000200a4c4200165d002e02d108
:1052d000a2185078f0bd296801300f78c0b2b742eb
:1052e00003d1a2180131507829600a28ecd9f1e7de
:0452f000145800004e
:020000040000fa
:1052f40080b582b000af0200bb1d1a80074abb1df7
:105304001b881383c046054bdb7bdbb25bb2002bef
:10531400f9dbc046bd4602b080bdc046002c004249
:020000040000fa
:1053240070b4012676054c005d00e6420cd8ee42ce
:105334000ad825430543154303d0994204d190422a
:1053440002d1012070bc7047002070bc7047c04679
:020000040000fa
:105354004a0010d2520d03231b02ff33d21a0ad47f
:1053640052421f3209d4400dc90208430123db070e
:105374001843d040704700207047d0177047c0468c
:020000040000fa
:1053840010b50b680c001b78202b03d0093b0022be
:10539400042b0bd8fff772fe02002368591c21600e
:1053a4005b78202bf9d0093b042bf6d9100010bdf3
:020000040000fa
:1053b40070b50d00160004009ab0682200216846fa
:1053c40000f044fb054b32002900684602940e9419
:1053d400119300f07ffa1ab070bdc0460d5b000057
:020000040000fa
:1053e40037b50d00d46811001a00fef725fd431ce3
:1053f4000cd00a2201a9200000f0f0fa019b2860d9
:0e54040069600120a34201d1022040423ebd5a
:020000040000fa
:1054120037b50d00d46811001a00fef70efd431ccb
:105422000cd00a2201a9200000f0cffa019b2860cb
:0e54320069600120a34201d1022040423ebd2c
:020000040000fa
:1054400080b500af074b084a5a60c046054b5b78f1
:10545000dbb21a0080231340802bf7d0c046bd4634
:0c54600080bdc046000c004000070100a9
:020000040000fa
:10546c0080b500af074b084a5a60c046054b5b78c5
:10547c00dbb21a0080231340802bf7d0c046bd4608
:0c548c0080bdc046000c0040010401007f
:020000040000fa
:1054980080b500af074b00221a60064b00229a60c5
:1054a800044b054a5a60034b04221a60c046bd46a5
:0c54b80080bdc04610e000e063bb0000b7
:020000040000fa
:1054c40080b500af084b1b889bb2074a02210b43ef
:1054d4009bb21380c046044bdb7bdbb25bb2002b78
:0c54e400f9dbc046bd4680bd002c004234
:020000040000fa
:1054f00010b500280cd1084b04001a68002a03d00c
:105500001868fff7f5ff040000f01bfb204310bdf7
:0c551000002100f082fafae74c020020b3
:020000040000fa
:10551c0070b504000d00160000f09cfa0023201852
:10552c00c1189e4202d0ea5c002a03d1002320005d
:0a553c000b7070bdc2540133f2e79a
:020000040000fa
:10554600002380290fdb812901dd83290bd1072167
:10555600136807338b431900083111601a685b68ba
:0a5566000260436001231800704743
:020000040000fa
:1055700080b582b000af02003960fb1d1a70fb1dc0
:105580001b78012b02d1034b01221a70c046bd4685
:0855900002b080bd58020020aa
:020000040000fa
:1055980080b582b000af02003960fb1d1a70fb1d98
:1055a8001b78002b02d0034b01221a70c046bd465f
:0855b80002b080bd5902002081
:020000040000fa
:1055c000c20f12029d3201000cd001d5494202d413
:1055d000013a4900fcd5d205080a0906494100d321
:0855e000012950417047c0464b
:020000040000fa
:1055e80013b5074c24680192009302000b00206851
:1055f800044900f0a8f90020fff776ff00f07efad2
:08560800fc0100203c570000ea
:020000040000fa
:10561000f0b51700016cc66b02658c1be51743657e
:105620008465c5651f4305d09d4202dc02d19442ca
:0856300000d9b118c164f0bdfe
:020000040000fa
:1056380037b50400fff742fb002802d001204042a2
:105648003ebd6b46dd1d0122636c29002000984792
:085658000128f3d12878f3e7e3
:020000040000fa
:1056600013b5049904000091006800f06ffa002956
:1056700006db08230020002162689a4362601cbd9b
:0856800001204042c117fae7c6
:020000040000fa
:1056880080b582b000af78603960054b7a685a609f
:10569800034b3a689a60c046bd4602b080bdc0461a
:0456a8001c020020c0
:020000040000fa
:1056ac0080b582b000af78603960054b7a685a6279
:1056bc00034b3a689a62c046bd4602b080bdc046f4
:0456cc00b401002005
:020000040000fa
:1056d00080b582b000af78603960054b7a681a6097
:1056e000034b3a685a60c046bd4602b080bdc04612
:0456f000280200206c
:020000040000fa
:1056f40080b582b000af78603960054b7a681a6073
:10570400034b3a685a60c046bd4602b080bdc046ed
:04571400300200203f
:020000040000fa
:1057180041000dd2090e7f390ad449421f3105d400
:1057280000020122d2071043c8407047c8177047cb
:045738000020704796
:020000040000fa
