:020000040000fa
:10000000f03f0020fd4b0000895900008f5900008f
:1000100000000000000000000000000000000000e0
:10002000000000000000000000000000fb290000ac
:100030000000000000000000fb290000fb29000078
:10004000fb290000fb290000fb290000d54e000021
:10005000fb290000fb290000fb290000fb29000010
:10006000fb290000fb290000fb290000fb29000000
:10007000712200000000000000000000fb290000c9
:10008000fb290000fb2900004d4f0000fb29000068
:10009000fb2900000000000000000000fb29000018
:1000a000fb290000fb290000fb290000fb290000c0
:0800b00000000000fb29000024
:020000040000fa
:1000b800f8b5c046f8bc08bc9e467047954b000092
:1000c800f8b5c046f8bc08bc9e4670476d4b0000aa
:020000040000fa
:0800d8000431000001000000ea
:020000040000fa
:1000e00080b584b000aff860b9607a603b60114bb6
:1000f000fa681a600f4bba685a600e4b7a689a60b9
:100100000c4b3a68da600b4bba691a61094bfa6911
:100110005a61084b3a6a9a61064b7a6ada61054b72
:10012000ba6a1a62034bfa6a5a6201231800bd4682
:1001300004b080bdb8000020b0b584b000af7860d6
:1001400000f044f80f257c19422000f046f9030026
:1001500023707b191b78122b05d0194b19491a48ab
:100160004b2205f053f900f047f87b68180000f0c7
:100170004cf800210e2000f017f900210f2000f0ac
:1001800013f90e257c190c2000f027f903002370c9
:100190007b191b7803221343dbb219000c2000f0fb
:1001a00003f90421262000f0fff80021112000f0bf
:1001b00071f800f0f0f800231800bd4604b0b0bd9f
:1001c0000c41000090400000a040000080b500af4e
:1001d000084bdb699847074b5b6a32209847054b11
:1001e0001b6a9847034b5b6a32209847c046bd465e
:1001f00080bdc046b800002080b500af802101203e
:1002000000f0d2f8c046bd4680bdb0b588b000afa2
:1002100078611e497869486379690a0000210b00fa
:10022000510b7960d3043b60194a00233868796820
:1002300004f010fe02000b00ba61fb61fb691b04b5
:10024000ba69120cba60ba681a43ba60fb691b0c2f
:10025000fb603b7a1900062000f0a6f8fb691b063c
:10026000ba69140a1c43fb691d0ae3b2190007208e
:1002700000f09af8bb69fc69dbb21900082000f0b5
:1002800093f8c046bd4608b0b0bdc046b8000020d7
:100290000048e80180b582b000af786039603b6803
:1002a000002b0ed17b680e2b01d90e237b607b685f
:1002b000dbb270221343dbb21900092000f074f89e
:1002c0002ae07b68112b0fd97b68142b01d91423ea
:1002d0007b607b68033b7b6087214d2000f064f8e6
:1002e0008c2000f01df80be07b68012b01d8022365
:1002f0007b6084214d2000f057f8642000f010f856
:100300007b68dbb2023bdbb2802252421343dbb29a
:100310001900092000f048f8c046bd4602b080bd73
:1003200090b585b000af0200fb1d1a700f243b1979
:100330001b221a70fb1d1b78782b0bd8fb1d1b781a
:100340002d3b0521180003f065fb03001a003b1943
:100350001a700fe0fb1d1b78f02b0bd8fb1d1b78d0
:100360001e330a21180003f055fb03001a000f2367
:10037000fb181a700f23fb181b781f221340dbb2e7
:1003800020221343dbb219000b2000f00df8c04609
:10039000bd4605b090bd80b500af8121012000f0c1
:1003a00003f8c046bd4680bd80b582b000af0200f4
:1003b000fb1d1a70bb1d0a1c1a70fb1d1b788022c6
:1003c00052421343dab2bb1d1b781900100000f033
:1003d00018f8c046bd4602b080bd80b582b000afff
:1003e0000200fb1d1a70fb1d1b787f221340dbb23d
:1003f0000021180000f005f803001800bd4602b007
:1004000080bdb0b584b000af0200fb1d1a70bb1deb
:100410000a1c1a7008257b1900221a707b19002209
:100420005a70114b5b6998470f4b1c680c217b1865
:10043000fa1d12781a707b18ba1d12785a707a1940
:10044000781802230221a047c046074bdb68984773
:10045000031efad1044b9b6998470823fb185b786d
:100460001800bd4604b0b0bdb800002080b582b011
:1004700000af0200fb1d1a7000f04ef8031e01d001
:10048000002313e0fff787fffb1d1b78002b02d032
:1004900000f01afc01e000f0fefb00210d20fff748
:1004a00083ff00212220fff77fff01231800bd46b4
:1004b00002b080bd80b582b000af0200fb1d1a7093
:1004c000fb1d1b78002b07d0124b9b6a002b03d01f
:1004d00040214020fff768ff83210120fff764ffe0
:1004e000fb1d1b7801225340dbb2002b0cd0c04611
:1004f0001220fff772ff03001a0008231340f7d001
:1005000008211220fff750ff01231800bd4602b05a
:1005100080bdc046b800002080b500af0120fff7c5
:100520005cff03001a0003231340032b01d10123b6
:100530000ce01220fff751ff03001a0008231340bc
:1005400003d008211220fff72fff00231800bd461b
:1005500080bd80b584b000af0200fb1d1a7000237f
:10056000fb601220fff739ff0300bb60fb1d1b7807
:10057000002b08d000f0a8fbfb1d1b7819002220df
:10058000fff712ff01e000f086fbbb68dbb2190049
:100590001220fff709ffbb684022134021d0bb683f
:1005a000202213401dd1184b00229a63164b302293
:1005b0009b5c002b05d02220fff70fff0300fb60a0
:1005c00004e01320fff709ff0300fb601020fff792
:1005d00004ff030019000d20fff7e6fefff7dbfe26
:1005e0000de00120fff7f9fe0300862b07d0002164
:1005f0000d20fff7d9fe86210120fff7d5fefb680d
:100600001800bd4604b080bdb800002080b500af22
:100610001a20fff7e2fe03001900064b5b6b064a47
:10062000934201d8a42300e09d23cb1a1800bd46b5
:1006300080bdc046b80000203fdd4a1fb0b500af06
:100640001920fff7cafe03005bb2180004f0caffce
:100650000022064b02f028f903000c0018002100cc
:1006600003f0b6ff031c181cbd46b0bd0000d03f10
:1006700090b585b000af0023fb602820fff7adfeea
:1006800003001a0007231340fb60fb681b02fb609a
:100690002920fff7a2fe03001a00fb689b18fb60ed
:1006a000fb681b02fb602a20fff797fe03001a007d
:1006b000fb689b18fb602820fff78ffe03001a00e1
:1006c0000823134004d0fb68174a94466344fb6038
:1006d000164bbb60f86804f085fe031c9721c90522
:1006e000181c02f081ff031cb968181c03f0d6fa2d
:1006f000031c1c1c00f033f90300180004f062ff17
:10070000031c0b49181c03f0c9fa031c191c201cfc
:1007100002f06aff031c7b60786804f00fff03009f
:100720001800bd4605b090bd0000f8ff0024f44b52
:100730000024f44880b500af1b20fff74efe0300f5
:100740001900064b5b6b064a934201d8a42300e0d4
:100750009d23cb1a1800bd4680bdc046b8000020be
:100760003fdd4a1f80b584b000af78603960222039
:10077000fff733fe0300bb60ba683b68d318ff2b5a
:1007800003d9bb68ff22d31a3b600023fb600ae059
:100790007a68fb68d3181b7819000020fff704fe65
:1007a000fb680133fb60fa683b689a42f0d3bb6890
:1007b000dab23b68dbb2d318dbb219002220fff7b4
:1007c000f3fd3b681800bd4604b080bd80b500afa6
:1007d0001320fff702fe03001a00034b9b6bd31a92
:1007e0001800bd4680bdc046b800002080b500afef
:1007f000fff7ecff031e01d1ff2308e0054b9b6bc5
:100800005a1c044b9a630020fff7e7fd0300180011
:10081000bd4680bdb800002090b583b000affff7a3
:10082000d5ff031e01d1ff2313e0fc1d0d20fff7b0
:10083000d4fd03002370bc1d0020fff7cefd030094
:100840002370fb1d1b7819000d20fff7adfdbb1dac
:100850001b781800bd4603b090bd80b582b000afd4
:100860007860034b7a68da62c046bd4602b080bd4c
:10087000b800002080b582b000af7860034b7a6882
:100880009a62c046bd4602b080bdc046b800002096
:1008900080b582b000af0200fb1d1a70002140201d
:1008a000fff782fdfb1d1b78002b08d000f00cfa2f
:1008b000fb1d1b7819002220fff776fd01e000f0f8
:1008c000eaf985210120fff76ffdc046bd4602b061
:1008d00080bd80b500af1e20fff77ffd03001b0920
:1008e000dbb21800bd4680bd80b582b000af786035
:1008f0007b68052b02d806237b6004e07b680c2b09
:1009000001d90c237b607b68062b08d1c5213120df
:10091000fff74afd0c213720fff746fd07e0c32112
:100920003120fff741fd0a213720fff73dfd1e2052
:10093000fff753fd03001a000f231340dab27b6860
:10094000dbb21b01dbb21343dbb219001e20fff741
:100950002bfd00f0bbf8c046bd4602b080bd80b59f
:1009600082b000af1d20fff738fd03001a00fb1d09
:1009700012091a70fb1d1b78092b18d89a000f4b0f
:10098000d3181b689f460e4b13e00e4b11e00e4b25
:100990000fe00e4b0de00e4b0be00e4b09e00e4b43
:1009a00007e00e4b05e00e4b03e00e4b01e0012388
:1009b0005b421800bd4602b080bdc046e440000066
:1009c000781e0000a0280000f03c0000405100000c
:1009d000127a0000e4a2000024f4000048e80100bc
:1009e00090d0030020a1070080b584b000af7860ec
:1009f0000023fb607b682c4a934202d80023fb60f3
:100a000039e07b68294a934202d80123fb6032e037
:100a10007b68274a934202d80223fb602be07b6865
:100a2000244a934202d80323fb6024e07b68224ad5
:100a3000934202d80423fb601de07b681f4a934267
:100a400002d80523fb6016e07b681d4a934202d85a
:100a50000623fb600fe07b681a4a934202d8072303
:100a6000fb6008e07b68184a934202d80823fb60c9
:100a700001e00923fb601d20fff7affc03001a0013
:100a80000f231340dab2fb68dbb21b01dbb2134366
:100a9000dbb219001d20fff787fc00f017f8c046f5
:100aa000bd4604b080bdc046781e0000a0280000ee
:100ab000f03c000040510000127a0000e4a2000067
:100ac00024f4000048e8010090d0030090b583b002
:100ad00000affff744ff0400fff7fbfe0300dc401c
:100ae00023001900fa23980003f08cfa03007b60be
:100af000fb1c7a6810219142924152421a70bc1c30
:100b00002620fff76afc03002370bb1c1b7819002a
:100b10002620fff749fcc046bd4603b090bd80b516
:100b200084b000af78607b68042b02d805237b601b
:100b300004e07b68082b01d908237b607b68043bb9
:100b4000fb601d20fff749fc03005bb20e229343bc
:100b50005ab2fb685b005bb213435bb2dbb21900b5
:100b60001d20fff721fcc046bd4604b080bd80b506
:100b700082b000af78607b681b0adbb219002020ce
:100b8000fff712fc7b68dbb219002120fff70cfc99
:100b9000c046bd4602b080bd80b582b000af78606f
:100ba0007b68dbb219003920fff7fefbc046bd466b
:100bb00002b080bd80b500af1e20fff70efc030021
:100bc0001a0004231343dbb219001e20fff7ecfbcd
:100bd000c046bd4680bd80b500af1e20fff7fdfbbf
:100be00003001a0004239a431300dbb219001e20ed
:100bf000fff7dafbc046bd4680bd80b500af662179
:100c00003320fff7d1fb19213b20fff7cdfbc04676
:100c1000bd4680bd80b500af27213320fff7c4fb60
:100c20001d213b20fff7c0fbc046bd4680bd80b5ff
:100c300082b000af0200fb1d1a70fb1d1b78062b53
:100c400002d9fb1d06221a70fff7a5fbfb1d1b78be
:100c5000002b04d104212620fff7a6fb17e000217a
:100c60002620fff7a1fb03210c20fff79dfb0c20a2
:100c7000fff7b3fb03005ab2fb1d1b785b015bb2ad
:100c800013435bb2dbb219000c20fff78dfbc046ab
:100c9000bd4602b080bd80b500af0a4b30220021b6
:100ca00099541d20fff799fb03001a0001239a4372
:100cb0001300dbb219001d20fff776fbc046bd46ce
:100cc00080bdc046b800002080b500af094b30227f
:100cd000012199541d20fff780fb03001a00012316
:100ce0001343dbb219001d20fff75efbc046bd4673
:100cf00080bdc046b800002080b582b000af122091
:100d0000fff76bfb03007b607b68dbb219001220ee
:100d1000fff74afb7b682022134032d17b684022d8
:100d2000134023d0194b00229a63184b30229b5c4e
:100d3000002b04d02220fff750fb030003e0132018
:100d4000fff74bfb03003b601020fff746fb03005f
:100d500019000d20fff728fb0c4bdb6a002b10d08d
:100d60000a4bdb6a3a68100098470ae07b68082261
:100d7000134006d0054b9b6a002b02d0034b9b6aa5
:100d80009847c046bd4602b080bdc046b8000020ae
:020000040000fa
:100d9000f0b59db016930b6854680a938b68179052
:100da0000b930b6910911a93cb684d6804931368e9
:100db0002100089300220023089803f0ebff00288d
:100dc0000bd10a9b5b0737d408230a9a1a400b9b66
:100dd0000c9205930cd0202303e080231b06e4181b
:100de0002d23049a13700b9b013b059301230c9355
:100df0000c99049a8c4608996244630011925b082e
:100e0000894a00291ad1934218d1169b874c413b3d
:100e10002100192b00d9211d119804f091fd201dee
:100e200004f046fd0a9b0200009304990b9b17985f
:100e300003f0ecfa1db0f0bd2b23d2e7934203d8a8
:100e400011d1089b002b0ed0169b784c413b210002
:100e5000192b06d80831119804f072fd20000c30cf
:100e6000dee70c31f7e7002200230898210004f0a8
:100e70007ff900266e4f00282fd000230393169889
:100e800004f03efdc3b20d93002d00dad4e10693c9
:100e9000672b00d0d9e0002d00d1c9e1039b0433ba
:100ea00003db039bab4200dacae06523dee0039b71
:100eb000069e079f0133039300225e4b30003900ea
:100ec00001f0f2fc089a23000690079103f042ff1c
:100ed0000028ecd00023069326e00390ece7039b68
:100ee0001a00554b9a4214da069b002b11d10022ae
:100ef000524b0898210001f0d7fc504b08900c0091
:100f000030003900002201f0cffc012306000f0061
:100f10000693484b30003900002202f003fb060024
:100f20000f00039b013b039332003b000898210014
:100f300003f030ff0028d2d1a1e708960997069b5d
:100f4000039c652b00d004e1002402e1089a099b70
:100f50000e98129902f0e6fa02f0a2fb1490159195
:100f600004f0baf810220a9b1340034323d10d9bcf
:100f7000672b20d1002c2bda013580200006844617
:100f800012990e9a61440b001498159900920193de
:100f9000089a099b04f0acfc80231b06cb180e902a
:100fa0001293089809990022224b02f0bbfa013ce7
:100fb00008900991d2e0002e0ad1002c08da059b96
:100fc000049a013b05932e2313990137535401369c
:100fd000ea193b009446302102e0049ad1540133cf
:100fe0009c45fad16246059b0137013b5b1b05938b
:100ff000049b30307f1998540025bee703983100d8
:1010000002f052fd049b3031013c19550398310028
:1010100002f000fd059b0390013b0593cae0049a92
:10102000125c1a540138f6e00000f07fd05800003e
:101030000000f03f00002440d4feffff00005043ba
:10104000039b002b11da66230693069b0135662b62
:101050000dd1039b002b03da00230026794f039365
:101060000d9b672b01d0039bed1866230693089b0d
:101070000e960f9712930023139414930e9a0f9bbe
:101080001298139902f04efa02f00afb1890199187
:1010900004f022f81b908020000684461399129acf
:1010a00061440b0018981999009201930e9a0f9bb6
:1010b00004f01efc80231b06cb18129013930e988d
:1010c0000f99614b002202f02dfa149b0e900f91a4
:1010d000013314939d42d1d100225c4b01f0e4fb1b
:1010e0000e900f9102000b001298139903f052fe1c
:1010f00000280ad10e9a0f9b1298139904f038f821
:10110000002806d01b9bdb0703d4002200230e928d
:101110000f930e9a0f9b0898210001f0c5fa002248
:101120000e901291484b3000390001f0bdfb0e9a31
:10113000129b0890099103f0a7fd002800d1fce65e
:10114000039b01330393069b662b00d0f7e6039cb9
:101150000135631b00252e000c9f1893189b1397d5
:10116000a34206d0109b1b691493053b9f4200d2fb
:10117000ece6002e07d10a9bdb0604d52e23049a49
:101180001399013753540025049bdb1908931d70f4
:10119000069b652b31d11a9b5c1e049b1d55039b3e
:1011a000ab4202da5b420393013503261a9bf31a22
:1011b0000d930736039b002b00d01fe70d9b1b19d7
:1011c000002b00dd1ae7621e2d23002d00d1023b0b
:1011d0000499023c8b54169b413b192b01d84523a3
:1011e0000693049b1919069b0b70059b023b059304
:1011f000a74202da089804f0a3fb03230a9a1340db
:10120000022b13d1059b002b10dd049804f050fb3a
:10121000049b059a9b180c9a824200dcffe6059a13
:101220003021119804f03cfb00230b930498f7e560
:10123000012533e6062531e60d9b672bfad0069390
:10124000062502e70000f03f0000244000001440a3
:020000040000fa
:10125000f0b51c000b6897b008934b6813900d9382
:101260008b6809930b690e93cb68029313680693fe
:1012700053680698059300220023059903f08afd20
:1012800000280ad1089b5b073cd40820089b099ad8
:10129000034004930ed0202306e0802212069446d9
:1012a000059b634405932d23029a1370099b5a1ed4
:1012b0000123049302990498059b081806995b0082
:1012c000413c5b080c9400291ed1b5498b421bd1cf
:1012d000029a049b944663441800b24c0c9b210074
:1012e000192b00d9211d04f02bfb201d04f0e0fa7e
:1012f000089b020000930299099b139803f086f85b
:1013000017b0f0bd2b23cfe7a5498b4203d80fd1ef
:10131000069b002b0cd0a34c0c9b2100192b05d84d
:10132000083104f00dfb20000c30dfe70c31f8e74a
:10133000049b591c302303700c982833192800d9ba
:10134000203304980230049002984354931e07936c
:10135000002200230698059903f00aff002800d117
:101360006ee100230026904f03930d9b1293002bf8
:1013700001da1823129300230a960b97069d059c09
:10138000109328000a9a0b9b210002f0cbf802f080
:1013900087f90a9a0b9b1490159101f085fa0200c7
:1013a0000b002800210004f073fa804b05000c00ac
:1013b0000a980b99002201f077fa109b0a900b9182
:1013c00001330f930d9b002b07da00220023280026
:1013d000210003f0cdfe002806d1129b109a934203
:1013e00000dd31e101330f9300220a980b99704b15
:1013f00001f05afa0a900b9102000b00280021001c
:1014000003f0c8fc00280dd10a9a0b9b280021008c
:1014100003f0aefe002809d01498159903f05cfe85
:10142000c30703d4002300240a930b940a9a0b9b4e
:101430000698059901f038f912914900069049087b
:10144000002803d1564b994200d141e70025049c66
:101450000a9505950e9b053ba34230dd3b0032000b
:101460000698129902f05ef802f01af910901191a4
:1014700003f032fe031e00d0e8e0059a002a00d1f6
:10148000e4e001353200109811993b0001f00cfaac
:1014900002000b000698129904f0faf90022069057
:1014a0001291424b3000390001f0fef9059b060015
:1014b00001330593059a0f9b0f009342cad10a9bf3
:1014c000002b1cd1029b1b19002d00d10ae10d9aa3
:1014d000002a00dc06e1089ad20700d502e12e229c
:1014e00002991a702a198a183021597001339342cf
:1014f000fbd12c19ed43079b0134eb180793002611
:10150000029b1b191e7005930e9b5d1e029b5e5570
:10151000039bb34202da5b420393013602230a279c
:101520000e9a9b1a0693039b002b00d0c4e0069be7
:101530005b19012b00d1bfe06a1e2d23002e00d1c4
:10154000023b0299023d8b540c9a5023192a00d970
:101550002033029a51190b70ac4202da059804f05c
:10156000eff90323089a1340022b17d1079c023c82
:10157000002c13dd029804f09bf9029b1b19049abe
:10158000904200dba9e01300029a302194466344a4
:101590001800220004f084f9002309930298a5e6bc
:1015a0000000f07fc05800000000f03f0000b03f96
:1015b0000000204026002f00039b013303933200dc
:1015c0003b003000390001f06ff804000d0002000c
:1015d0000b000698059903f0ddfb0028ead03200e5
:1015e0003b000698059903f0d5fb002800d1bce626
:1015f0000022404b3000390001f056f90022002350
:1016000003f0b6fd00280fd000223b4b300039001c
:1016100001f04af9002206000f0006980599364ba2
:1016200001f042f906900591324b3000390000225a
:1016300001f03af9039b0600013b0f000393cee74c
:10164000039000262d4fbae70f9b99e60a9a002acd
:101650000bd1059a002a08d0079a0299013a0792fd
:101660002e220a552d3a01340a92291922008c465d
:1016700003e030210298815401329445f9d11800d9
:10168000029a013462441492079a6419013a521b77
:1016900007925730092b01dc303318000c9b192bb3
:1016a00006d820230343613b192b01d804f02ff9fe
:1016b000149b00251870e5e60398390002f0f4f950
:1016c000029b3031013d59550398390002f0a2f9cf
:1016d000079b0390013b079325e7029a125c1a547b
:1016e00001384ce7089ad20600d408e72e220134cc
:1016f0001a7004e70000e03f000050430000f03f94
:020000040000fa
:10170000f0b58bb0040000910192242901d8012981
:1017100003d11622bc4b1a6056e0e36be26c934295
:1017200024d25a1ce2631d78202df6d02b00093bf1
:10173000042bf2d90222223b9343002208929342c7
:101740000bd12d3d6b425d416b420893e26ce36b24
:10175000934210d25a1ce2631d78009be26c002b6e
:101760000ed0102b56d1302d0cd053e0200002f0bb
:10177000fbf80500d8e7200002f0f6f80500ece7da
:10178000302d45d1e36b934224d25a1ce2631d787d
:1017900020232b43782b2fd1e36be26c93421ed294
:1017a0005a1ce2631d781022984b00925b5d0f2b50
:1017b00000d8cce0e36c002b00d1b3e1019ae36bdd
:1017c000002a11d0023be3630026002730003900d5
:1017d0000bb0f0bd200002f0c7f80500d8e72000ec
:1017e00002f0c2f80500dee7013be36300220023bc
:1017f000200003f01ffee7e7009b002b00d1a4e0d0
:10180000009b0a2b00d0a2e00023009f01931ce064
:101810000a2300937d4b00995b5d8b42f0d3002a35
:1018200002d0e36b013be36300220023200003f0be
:1018300001fe6ee7019ee36b7e437519303d019515
:1018400093426cd25a1ce2631d782b00303be26c51
:10185000092b03d86e4b01999942ebd90027019ec1
:101860002b00303b0193e36c0493019b092b33d88d
:10187000684b9f4213d802d1674b9e420fd800237a
:101880000a223000390003f043fa019b029300233f
:101890000393029bdb434a1c46d1984244d95b4bdd
:1018a000009a5b5d934217d2e36be26c934200d3e4
:1018b0001de15a1ce2631878544b009a1b5c93425a
:1018c000f2d3109e119f22224f4b1a600123109acf
:1018d000134201d000230893e36c002b02d0e36b8a
:1018e000013be363119bbb4200d911e103d1109b83
:1018f000b34200d90ce10123109a134200d0fae060
:10190000089b002b00d0f6e0222201267642f71732
:101910003d4b1a60109b119cf618674156e720005a
:1019200002f022f8050090e7e36b049a029e039f01
:1019300036184f41934203d25a1ce2631d788fe759
:10194000200002f011f805008ae708230093009bad
:101950005e1e3340019300d0c1e0009a1733534319
:101960002e4a1b065b0fd35c0293284b009a5b5deb
:10197000e16c9a4203d92a4a019890422dd9029ae1
:1019800001204042c11703f0c5fe0027019e0990c7
:1019900004911e4b5b5d0193e36c019a0693009bdf
:1019a000934200d87be7049b9f4200d977e703d19d
:1019b000099b9e4200d972e7029a3000390003f079
:1019c000b5fe019b069a03431e00e36b0f00934292
:1019d00014d25a1ce2631d78dbe7019e029a9640fe
:1019e0001e43e36b01968b4203d25a1ce2631d78bf
:1019f000bbe7200001f0b8ff0500b6e7200001f0ca
:101a0000b3ff0500c5e7c04694010020142e000076
:101a10009899991999999919999999990a2e000063
:101a2000ffffff07019e009a5643f3180193e36bf3
:101a30008b424fd25a1ce2631d783e4b009a5b5d8d
:101a4000e16c9a4203d93c4a01989042ead90027b6
:101a5000019e384b5b5d0193e36c019a0293009bfe
:101a6000934200d81be7002f17d01a000023300044
:101a7000190003f04df9002309913a00190000986c
:101a800003f046f9099b069300230793069a079be8
:101a900080185941002900d001e73b00320000982e
:101aa000002103f035f9019b049300230593049b67
:101ab000db434a1c02d1984200d9f0e6049e059f00
:101ac000e36b029a36184f4193420bd25a1ce263e1
:101ad0001d78bee7200001f047ff0500ade70023b9
:101ae0000193aae7200001f03fff0500b1e72000c5
:101af00001f03affe0e6119b9f4203d808d1109b0a
:101b00009e4205d9109e119f22220c4b1a605de661
:101b1000089b013300d059e633003c0000275e42a9
:101b2000a74153e6019b00260027002b00d04de67d
:101b30005ce6c046142e0000c6711c07940100200c
:020000040000fa
:101b40000023f0b504001600f1b007910893059347
:101b5000079b1b78002b68d0002309930a930b93f3
:101b60000eab0c93802307a920000d9303f030fbec
:101b70000500079b1a78002a01d0252a42d1089a2d
:101b8000551908951a78252a32d100255a1c079232
:101b90000b955a782a2a02d1023307930135079808
:101ba00003f018f902000b90c317200003f042fc69
:101bb000079b1a78303a092a4dd907a803f0a6faec
:101bc000079b0700187803f09bfe672865dc6528f3
:101bd00000dbcce0612800d1c9e03fdc079b252871
:101be00000d1f3e05b2800d10ee1079b013307939e
:101bf000039b013300d0fae0059b002b15d1013b7c
:101c0000059312e0e36be26c934211d25a1ce2633b
:101c10001b780393079b039a1b7893420fd0e36cc6
:101c2000002b02d0e36b013be363059871b0f0bd7c
:101c3000200001f099fe030003900133ead1089bd4
:101c400007a901330893079b20000133079303f092
:101c5000bffa2d188de701330793a9e7632800d158
:101c600099e06428c1d108ab09aa2ea9200003f08d
:101c7000dffa002800da67e1079b01330793002da4
:101c800000d0b4e03300012239002ea802f007fb97
:101c9000051e69da6b1cafd0c7e7702843d00bdc98
:101ca0006e2852d031dc69289fd108ab09aa2ea931
:101cb000200000f063ffdce7752815d078282bd0d2
:101cc000732800d091e7802f00d08ee7079b013367
:101cd000079300239d4203d133681a1d32601b68ad
:101ce0000093012208ab6ce008ab09aa2ea92000e2
:101cf00003f0b5fa002800da26e1079b01330793c9
:101d0000002d74d133002a00bee708ab09aa2ea922
:101d1000200001f075ffede708ab09aa2ea920000d
:101d200001f074f9e6e708ab09aa2ea9200001f03a
:101d30006df9002800da07e1079b01330793002db6
:101d400055d133002a00f0219fe7079b0133079309
:101d5000089b2e93db172f93002d48d133002a00c8
:101d600039002ea802f09bfa059b5b19efe608ab41
:101d700009aa2ea9200003f010fe002800dae3e0f3
:101d8000079b01330793002d31d1320039002ea873
:101d900002f0a0fe7ce7802f00d026e70b9b049387
:101da000002b01d101330b93079b013307930023d1
:101db0009d4203d133681a1d32601b6800220093d4
:101dc00008ab09a9200001f0fdff61e7802f00d0da
:101dd0000be701330793e26ce36b934209d25a1c81
:101de000e2631878252808d1089b01330893002561
:101df000bae7200001f0b8fdf4e7e36c002bf6d061
:101e0000e36b013be363f2e7802f00d0ede60022b5
:101e10000492954204d13268111d31601268049217
:101e20005a1c07925a7800255e2a02d10233079382
:101e3000013502222eafff322900380003f030fdb9
:101e400000233b70079b1a782d2a26d10133079374
:101e50000123a93204a95b1b5218137001235d1bd7
:101e6000ebb29c462ea9079a13785d2b1fd1002751
:101e7000049bbb423ed1e36be26c93425fd25a1c9f
:101e8000e2631b780393039a2eab9b185d78002db9
:101e90003fd0089b01330893ede75d2aded1013383
:101ea0000793012304aa07325b1bff32d5e7002bff
:101eb000ddd02d2b06d0079b1a780133ba18557048
:101ec0000793d0e7089b1b78002bf4d05d2bf2d052
:101ed000531c0793069b1b7850788342ebda6046cd
:101ee00001335854f8e7049b039ada55089b0137ed
:101ef00001330893e36be26c3d0093421ad25a1c03
:101f0000e2631b780393039a2eab9b185b78002b3c
:101f1000e9d1e36c002b02d0e36b013be363002dbe
:101f200000d162e6049b002b00d15ee60023049af8
:101f300053555ae6200001f017fd0390e3e7200017
:0c1f400001f012fd03909ee70500a3e6ef
:020000040000fa
:101f4c000023f0b506001500afb00591019305997b
:101f5c000b78002b00d10fe101235b420a930eabef
:101f6c0000240c93802309940b940d930b5d002b90
:101f7c0001d0252b2ad1002c06d02200300003f0f2
:101f8c0055f8059b1b190593059b1a78252a00d03b
:101f9c00e7e0013302930593022310219c460827a6
:101fac00059803782b2b1bd025d8202b1bd0232b4b
:101fbc001dd02a2b2ad002f007ff0b90059b1a7814
:101fcc00303a092a33d801330593f7e70134cde7ca
:101fdc000122099b80180393134309930590dfe7b3
:101fec000423099a0ee0099b03933b430be0099be6
:101ffc0003930b4307e02d2bead0302bd9d162464b
:10200c00099b0393134309930130e7e72b680130d5
:10201c001a1d1b6805902a600b93002b07da099a8e
:10202c005b420392012203990b934a400992099b4c
:10203c00da0702d5022293430993059b1a782e2abc
:10204c000ed10022581c0a9205905a782a2a28d1bf
:10205c00023305932b681a1d1b682a6003930a939d
:10206c0005a803f04df8059b0700187803f042fc17
:10207c00692800d183e035dc632800d1d6e01bdc75
:10208c00252800d1dfe0612859d0252306aa13703a
:10209c00029b0593002309930b93013b0a93023394
:1020ac00b2e002f091fe0a90059b1a78303a092aa8
:1020bc00d6d801330593f7e7642860d06728e4dcb1
:1020cc002a00390006a803f049f9002800d1a9e03c
:1020dc00059b09a95a1c05921b7806aa3000fef72d
:1020ec0051fe3de0702800d17de016dc6e2800d159
:1020fc0091e06f28c9d12b000022390006a801f00d
:10210c0029fd002800d18de0059b06aa013309a901
:10211c003000059302f0eaf922e0752840d07828c7
:10212c004fd07328b1d1802f00d07be0059b2a685b
:10213c0001330593131d2b601268002364e02a0001
:10214c00390006a803f00af9002800d16ae0059bc3
:10215c0009a95a1c05921b7806aa3000fff772f8e1
:10216c002418019b1c19a34200dc74e04f223b4b4a
:10217c001a6001235b42019301982fb0f0bd2b0034
:10218c000122390006a801f0e5fc00284ad0059b85
:10219c0006aa013309a93000059301f0d5fadfe74f
:1021ac002b000022390006a801f0d4fc002839d0fd
:1021bc00059b06aa013309a93000059302f0e0fb48
:1021cc00cee72b000022390006a801f0c3fc002842
:1021dc0028d0059b5a1c05921b7806aa09a9300029
:1021ec0000f075fdbce72b000022f02106a801f0e1
:1021fc00b1fc002816d0059b079a01330593069b6a
:10220c00134306d1164a163209a9300002f00efc0f
:10221c00a6e77823e1e7019b39001a1906a82b00e1
:10222c0002f09bf9059b013305939ae7802ff9d1b6
:10223c00059b013305932b681a1d1b682a6006aa9f
:10224c0013700123e0e7802fecd1059b06aa013324
:10225c0005931070f5e7019479e6c04694010020cf
:04226c001c560000fc
:020000040000fa
:1022700080b500af894b9b7ddbb2002b00d10ae11a
:10228000864b5b8b9bb21a0002231340022b08d1b2
:10229000834b2022ff219954814b21220221995402
:1022a000b0e07e4b5b8b9bb21a0001231340012be5
:1022b00008d17b4b2022ff219954794b2122022106
:1022c00099549fe0754b5b8b9bb21a00042313401b
:1022d000042b08d1724b2022ff219954704b2122ec
:1022e000012199548ee06e4b20229b5c5bb2022b45
:1022f00009d003dc002b00d183e083e0032b54d012
:10230000042b12d07ee0664b1b69002b06d0644b79
:102310009b880021180002f01dfa73e0604b9b8837
:102320000121180002f016fa6ce05d4b9a695c4bd3
:102330001b699a4225d15a4b5b69002b10d0584b30
:102340009b885a00554b01210a435a62c046534ba1
:10235000db69002bfbd1524b20220321995451e021
:102360004e4b5a684d4bc02189020a435a60c04601
:102370004a4bdb69002bfbd1494b202206219954a3
:1023800040e0474b9a68464b9b69d318434a1978fb
:102390002823d154424b9b695a1c414b9a61c04639
:1023a0003e4bdb69002bfbd12ce03d4bda693c4b0b
:1023b0005b69013b9a420fd1384b5a68374be02199
:1023c000c9020a435a60c046344bdb69002bfbd17b
:1023d000334b202206219954c046304bdb69002b39
:1023e000fbd12e492e4bda682d4bdb69d3182822fe
:1023f0008a5cd2b21a702a4bdb695a1c284bda610c
:1024000000e0c046264b20229b5c5bb201331dd10d
:10241000234b202200219954204b5a681f4bc02186
:1024200089020a435a60c0461c4bdb69002bfbd172
:102430001a4b83221a761a4b5b6a002b2bd0184b4f
:102440005a6a174b9b6a1800904724e0144b2022cd
:102450009b5c5bb2062b1ed1114b202200219954ac
:102460000f4b2122002199540c4b83221a76c0462f
:102470000a4b5b8b9bb21a0030231340102bf7d111
:10248000074b5b6a002b06d0054b5a6a044b9b6acc
:1024900018009047c046c046bd4680bd00140042ab
:0424a000f400002024
:020000040000fa
:1024a40080b58ab000aff860b9607a603b60002301
:1024b4007b6200233b620023fb611b23fb18002289
:1024c4001a70bb68002b02d0fb68002b07d13b6855
:1024d400002b00d1dae07b68002b00d1d6e06f4bf3
:1024e4005b68072213407b617b69002b11d0bb68ba
:1024f400002b03d0bb680122134006d13b68002b9c
:1025040007d03b680122134003d01b23fb181b7820
:10251400bfe0fb68002b01d10023bb607b68002b6c
:1025240005d100233b6002e05c4b9b6a3b615b4b43
:102534001b7edbb21a0004231340042bf4d0574b48
:102544005b8b9bb2554a04210b439bb25383534b81
:102554001b7edbb25149802252421343dbb20b761d
:102564003a68bb689a4203d93a68bb68d31afb61dc
:102574007b69002b08d03b685b083b60bb685b0849
:10258400bb60fb695b08fb61c046444b1b7edbb24e
:102594001a0001231340012bf7d163e07a6abb6868
:1025a4009a421ad07b69002b09d1fa687b6ad31846
:1025b4001a783a4b9a627b6a01337b621de07b6a2c
:1025c4005b00fa68d3181b881a00344bd205d20d6d
:1025d4009a627b6a01337b620fe0fb69002b0cd0ab
:1025e4007b69002b03d12d4bff229a6202e02b4b17
:1025f4002b4a9a62fb69013bfb613b68002b09d1c2
:10260400c046264b1b7edbb21a0001231340012b6c
:10261400f7d127e0c046214b1b7edbb21a0004230e
:102624001340042bf7d11d4b9b6a3b613a6a3b680c
:102634009a4217d27b69002b08d13b6a5a1c3a6232
:102644007a68d3183a69d2b21a700be03b699ab22d
:102654003b6a591c39625b007968cb18d205d20dec
:1026640092b21a807a6abb689a4297d1fb69002bae
:1026740094d1c046094b1b7edbb21a0002231340df
:10268400022bf7d11b23fb1801221a701b23fb1802
:102694001b781800bd460ab080bdc0460008004241
:0426a400ff01000032
:020000040000fa
:1026a800f0b40125ed070f005f405ad48b4200d1ea
:1026b800824205d950404240504059404b40594011
:1026c8004e18760ddf187f0d3bd0741c640529d099
:1026d800f41b352c26d80e0ddb022b43db0ac9026e
:1026e8002943c9121700202c1ed2e741e240574067
:1026f800e3415a40a340e3405a400024801859411e
:102708000ad3b21c520521d0c207012f624117001b
:102718004008cb0718434908013636054208af413f
:1027280060417141f0bc7047203c06d01f00e74172
:10273800e3405f400024012a6741c0186141ebd3a0
:10274800dfe7002eeed129400020ebe70136310506
:102758000020e7e7e742e5d10020c143090dc9049d
:10276800e0e76b400e00871a9e4104d26e40c01b02
:10277800b141d21973414e18df18ac0ae642e9d2ca
:10278800760d7f0d31d0f41b362ccbd8b4460e0d08
:10279800db022b43db0ac9022943c90a012c32d8c0
:1027a80004d1d4075208df073a435b08ef0a6442b2
:1027b800904199411ed0002239424dd124194041ff
:1027c80049410124394204d10134001849413942b0
:1027d800fad06246a24204d9361b013e3605891951
:1027e800a0e7f10ac90700209ce736429ad10020e9
:1027f800002197e70200224394d0b842ded20100bc
:1028080020002024e3d1202c13dd203ce2411700d6
:10281800a240e2405740e3415a40a340e3405a40b7
:10282800012fbf410137174300227c429841914153
:102838000ce01700e741e2405740e3415a40a3400b
:10284800e3405a407c429041994100220f0303d251
:10285800013e241940414941013e36054708ac4133
:0828680050417141f0bc7047c2
:020000040000fa
:1028700008d1002806d1f54204d801d3002a01d19d
:102880006d0d09d10020c143090dc904f0bdf9d176
:102890001242f7d1640df5d00020c1434905490823
:1028a000a6e000206146f0bdf0b50127ff070e004d
:1028b0005e403e40b446be0a4c18dd18f442d7d202
:1028c000f542e4d2640decd06d0dead06419c90272
:1028d0003943460dc0023143db023b43db0a10b4ef
:1028e0008e4685b297b26f43140c6c433e0ca4190c
:1028f000260c2404bfb227439cb26c43a419190cc4
:102900006943250ca4b249190d04090c6419000c83
:1029100095b245433e0c76193743bfb2360c150cc1
:102920004543ad19a6b2240cad192e0437432e0c25
:1029300036199db24543ad19acb22e0c89191d0c48
:1029400045436d182e04290c3443704680b295b26d
:1029500045433e0c76193743bfb2360c150c454340
:10296000ad19a6b2ad19240c2e0437432e0c36191e
:102970009db24543ad19acb22e0c89191d0c4543cf
:102980006d182e043443290c75462d0c90b2684303
:102990003e0c80190604bfb23e43070ca0b23f189c
:1029a000120c6a43d019020c80b2240ca4189ab2fb
:1029b0006a43121914042043120c89181b0c6b4330
:1029c000c91810bc01273d05294203d1b619404161
:1029d0004941013cff077d0d013d641b0bdb6d0090
:1029e000ac4209da240500254208be416841614134
:0a29f00066463143f0bd54e74ee7a0
:020000040000fa
:0229fa00fee7f6
:020000040000fa
:1029fc00400100201c000000000000005c010020d1
:102a0c000c00000000000000f40000202c0000006e
:102a1c000000000068010020080000000000000019
:102a2c007001002008000000000000009a01002046
:102a3c0001000000000000009b01002001000000cc
:102a4c0000000000800100200400000000000000d5
:102a5c008401002004000000000000009801002008
:102a6c000200000000000000b80000203c00000044
:102a7c00000000008801002004000000000000009d
:102a8c006800002050000000000000008c010020b5
:102a9c0004000000000000002001002020000000c5
:102aac000100000001000000030000000000000015
:102abc00000000000000000000000000000000000a
:102acc0078010020780100200800000000000000c0
:102adc009001002004000000000000009401002080
:102aec00040000000000000000000020680000004e
:102afc0001000000010000000300000000000000c5
:102b0c0000000000000000000000000000000000b9
:102b1c00154800000000000000000000000000004c
:102b2c0057590000cd4c00000000000000000000d0
:102b3c000000000000000000000000000000000089
:102b4c000000000000000000000000000000000079
:102b5c000000000000000000000000000000000069
:102b6c0000000000222222222222222222222222c1
:020000040000fa
:102b7c00f0b51f00936889b00393136904000493a4
:102b8c00d3680591019302f07ff93b681818039bf9
:102b9c003860002b02d1049b013b03930a23009362
:102bac0000231e000293039b9e4241da049b013bcf
:102bbc00b3423ddde36be26c93420fd25a1ce263ed
:102bcc001d782b0002222b3b9343334311d1019be5
:102bdc001d703b6801333b600123e2e7200000f0ed
:102bec00bdfe0500431cecd1002e21d1280009b0fc
:102bfc00f0bd029b9e4209d1731c0293009b0a2bd1
:102c0c002cd1023b302d54d0002302932b00303baf
:102c1c00092b48d9009b102b04d1280002f006fd8b
:102c2c00002847d1e36c002b02d0e36b013be3633c
:102c3c000023019a9355009b0a2b42d11a0007a935
:102c4c00019802f0e5fd059b019a18605960079bfd
:102c5c0001259342cad102256d42c7e7009b082b80
:102c6c00d2d118332b43782bced1e36be26c934249
:102c7c0015d25a1ce2631878e36c002b02d0e36b7c
:102c8c00013be36302f0d2fc0028cbd0019b9d55a5
:102c9c003b68013601333b601023009383e720002f
:102cac0000f05cfee8e7009b082b03d1372d01dd1b
:102cbc0002330093019b9d553b68013601333b6009
:0e2ccc0071e7009a07a9019802f098fdbbe796
:020000040000fa
:102cda00f0b58fb00d934b680c9008938b680d007c
:102cea000993cb6816000393089b0f68002b60dbdf
:102cfa0002239f4310233b400a933368059373686a
:102d0a000693099b04930a9b002b06d0059b069aff
:102d1a00134302d0099b023b049308233b400b93c5
:102d2a005a1e9341049ad31a04932b69039a5c1e80
:102d3a0000231355089b0793012c10dd059b069a67
:102d4a00134339d1079b002b36dc089a049b9b1a44
:102d5a00079a9b18002b02dd02231f422cd10a9be3
:102d6a00002b0bd00cce134308d0039b0d9a1b19d2
:102d7a00013b1a703023039a023c13550b9b002b1c
:102d8a0003d02023039a013c13552b6900975a1e3e
:102d9a00039b121b19190c98099b01f032fb0c9b1f
:102daa005b68db0503d56b68984200da18000fb040
:102dba00f0bd012308939de70f22059b013c1340b8
:102dca0018005730092b01dc303318000d9b413baa
:102dda00192b06d820230343613b192b01d802f093
:102dea0091fd039b1855079b013b0793069b1a0706
:102dfa00059b1b091a43069b05921b0906939be731
:020000040000fa
:102e0a00000102040703060500ffffffffffffffa3
:102e1a00ffffffffffffffffffffffffffffffffb8
:102e2a00ffffffffffffffffffffffffffffffffa8
:102e3a00ffffffffffffffffffff00010203040583
:102e4a0006070809ffffffffffffff0a0b0c0d0e25
:102e5a000f101112131415161718191a1b1c1d1e00
:102e6a001f20212223ffffffffffff0a0b0c0d0e7d
:102e7a000f101112131415161718191a1b1c1d1ee0
:102e8a001f20212223ffffffffffffffffffffff9e
:102e9a00ffffffffffffffffffffffffffffffff38
:102eaa00ffffffffffffffffffffffffffffffff28
:102eba00ffffffffffffffffffffffffffffffff18
:102eca00ffffffffffffffffffffffffffffffff08
:102eda00fffffffffffffffffffffffffffffffff8
:102eea00ffffffffffffffffffffffffffffffffe8
:102efa00ffffffffffffffffffffffffffffffffd8
:0a2f0a00ffffffffffffffffffffc7
:020000040000fa
:102f140090b59db006af2b4b802252045a613b0002
:102f240018002c231a00002102f0b8fc3b000122f7
:102f34001a602c243b19180000f0dcf83b19180027
:102f440001f0a6fb3b000121180001f0e3f81e4a42
:102f54001e4b1100180002f0ddfa1d4c1d4a1e49db
:102f64001e481f4b05931f4b04931f4b03931f4b8a
:102f740002931f4b01931f4b00932300fdf7aef800
:102f84001d4b1800fdf7d6f81c4b0021180002f069
:102f94008bfa1b4b0021180002f0aafa194b0021ee
:102fa400180002f093faa023db01180002f0c6f81f
:102fb40002f0acf9034b802252049a61c046bd462c
:102fc40017b090bd00440041ff4f0000454c000085
:102fd40029590000a555000085550000a5240000ce
:102fe40095430000cd560000b55600009d560000e4
:102ff40085560000355900008050de1995530000b5
:08300400bd530000e15700007c
:020000040000fa
:10300c00f0b51f00936887b0019313690400029315
:10301c00d3680391009301f037ff3b681818019bac
:10302c003860002b02d1029b013b01930026019bcf
:10303c009e4231da029b013bb3422ddde36be26c25
:10304c0093423cd25a1ce2631d78280002f0eefa3f
:10305c00002843d1012e19d1280002f04bfc78280e
:10306c0014d1009b1b78302b10d1e36be26c934294
:10307c0030d25a1ce2631878e36c002b02d0e36b5d
:10308c00013be36302f0d2fa002827d1e36c002b5a
:10309c0002d0e36b013be3630023009a05a993552f
:1030ac000098102202f0aafb039b009a186059604a
:1030bc00059b012593420ad102256d4207e02000b1
:1030cc0000f04cfc0500431cbfd1002ee4d12800bd
:1030dc0007b0f0bd200000f041fccde7009b9d55f2
:0a30ec003b68013601333b60a1e7a9
:020000040000fa
:0230f600704721
:020000040000fa
:1030f800b0b594b002af786044257b192f4a1a8086
:103108002f4b3b642f4bfb630c23fb182e4a13ca2f
:1031180013c313ca13c313ca13c313ca13c37b68d5
:1031280008331a007b681c1d7b682849386c00939b
:10313800230002f00ffb7b680c331c007b68143300
:103148000822ba182249f86b0093230002f002fb08
:103158007b685a697b1900215b5ed21a7b685a61c9
:103168004623fb1800221a801ee046243b19002241
:103178009a5e0c23fb189200d2580823fb18110002
:10318800180002f0fdfa031e05d13b1900229a5ed1
:103198007b681a610ee046217b1800229b5e9bb279
:1031a80001339ab27b181a804623fb1800229b5ed3
:1031b8000b2bdaddbd4612b0b0bdc0466c0700006f
:1031c800583e0000643e0000b83e0000703e00001b
:1031d8007c3e0000f0b5060085b00f0015001c000d
:1031e8008b4265d801d1824262d82100280002f0c2
:1031f800a5fa39000090300002f0a0fa009b2100e7
:103208001b1a1a002800039302f08cfa009001910f
:10321800019bbb4246d802d1009bb34242d8009bd7
:10322800019c039a01200021f61aa74102f07afabc
:10323800039b002b2fd0019b009adb0754081c43eb
:10324800019b5d08039b9c46bd422ed801d1b44228
:103258002bd832003b00121bab41012692185b4170
:103268000027b6185f4101235b429c446346002b4c
:10327800ead180197941039a04000d003000390021
:1032880002f044fa039a06000f0002f04bfa241adf
:103298008d41200029000a9b002b01d01e605f6031
:1032a80005b0f0bd00200021c2e7b6197f41dae77a
:0632b80000200021efe7f9
:020000040000fa
:0232be00704757
:020000040000fa
:1032c00090b583b000af02003960fb1d1a70fb1d82
:1032d0001b787f2b28d82f4afb1d1b785bb29b08dd
:1032e000c0339b009b58fa1d1278110003220a403c
:1032f000d200ff2191400a00d2431a4011003b68de
:103300009b01ff221a40fb1d1b781800032303407a
:10331000db009a401f48fb1d1b785bb29b080a43e9
:10332000c0339b001a5031e01b4afb1d1b7819006b
:103330000f230b40083b9b0806339b00d318043334
:103340001b68fa1d1278110003220a40d200ff21e7
:1033500091400a00d2431a4011003b689b01ff22b2
:103360001a40fb1d1b78180003230340db009a4022
:103370000948fb1d1b781c000f232340083b9b08ba
:103380000a4306339b00c31804331a60c046bd4687
:0c33900003b090bd00e100e000ed00e0a3
:020000040000fa
:10339c0080b582b000af2b4b01221a70c046294b6e
:1033ac005b7edbb25bb2002bf9db274b1b68db0ec1
:1033bc007b60264b1b68072213403b607b689ab2ec
:1033cc003b689bb25b019bb213439bb21bb2ff22c7
:1033dc0013401ab21d4b1b68db089bb21b0219b2bf
:1033ec00e023db000b401bb213431ab2154b92b215
:1033fc001a85144b0322da70124b02225a70114bad
:10340c00c02252011a61c0460e4b5b7edbb25bb22e
:10341c00002bf9db0b4b0e4a9a80c046094b5b7ea6
:10342c00dbb25bb2002bf9db064b0f221a76c046df
:10343c00044b5b7edbb25bb2002bf9dbc046bd46b6
:10344c0002b080bd004000422060800024608000fb
:04345c000407000061
:020000040000fa
:1034600080b500af2c4b2d4a1a602b4b2c4a1a61a9
:10347000294a42230121d154274a43230021d15410
:10348000254a47230121d154234a48230121d154fd
:10349000214a49230121d1541f4a4b230021d154f1
:1034a0001d4a4e230021d1541b4a52230421d154da
:1034b000194a53230521d154174a56230121d154c7
:1034c000154a57230121d154134a58234021d1547e
:1034d000114a31230121d1540f4a33233021d154d1
:1034e0000d4a34232221d1540b4a35230021d154d3
:1034f000094a37230021d154074a39230021d154e6
:10350000054a3b232221d154034a3c230021d154b4
:10351000c046bd4680bdc046004400410848040185
:04352000004804015a
:020000040000fa
:10352400f0b40125ed070c005c402c40a446ae0a23
:103534004c18df18f4423dd2f74245d2640d4cd00a
:103544007f0d3cd0e41bc9022943cf0adb022b4385
:10355400db0a0600b61a9f4104d2013cb6197f412a
:10356400b6185f416812800d241838dd00188442b3
:1035740025d8e80c0021b6197f41b61a9f4103d320
:1035840040414941f7d304e0b6185f41001849416e
:10359400f1d32405b6197f41b61a9f4105d33743a9
:1035a400c20717430022012f504161416246114373
:1035b400f0bc70470cd100280ad1f74208d2002091
:1035c400c143490d0905f1e7002a01d1f74206d0ac
:1035d4000020c143090dc904eae77f0df8d000209b
:0435e4006146e5e770
:020000040000fa
:1035e80030b405004d400124e407254042004b005b
:1035f800120e32d01b0e3cd0ff2a33d0ff2b3fd007
:10360800d21800022043000a09022143090ac4b261
:103618004c43000ac3b24b43000a4843210a5b18d3
:10362800190a091801d44900013a080a7f3a2adb25
:10363800fe2a0fd2d2051c43240601d001242143bf
:10364800c9b280295041802901d14008400028434f
:1036580030bc7047ff20c005f9e71b0eff2b0ad0ce
:103668002800f5e7400206d1ff2bf3d1490202d129
:10367800f0e7ff2af4d17f2000010c300005e7e7ce
:103688004902f8d1e6e743020132e9d15b1202337d
:08369800e6d9d805e4e7c046bd
:020000040000fa
:1036a0004b005b0d264af0b55c1e944238d8254a83
:1036b0009e1825d4332e22dc234a9b1827d4234a74
:1036c000da400700214b9743f3403c000f000240d3
:1036d0009f4319403d000a430fd0002f0dda2023ed
:1036e0005b42f11824d480204003c84002008021ae
:1036f0004903f1400b00a4185d4120002900f0bdf2
:103700000020002901db0021f9e71149f7e7202219
:103710000e4b921b934001225242f2401a43d0e7d3
:10372000002becd10022c90fcb0710001900e6e7ef
:1037300020218020891b400388400200d7e7c04633
:10374000fd07000001fcffffe1fbffffffff0f0093
:043750000000f0bfc6
:020000040000fa
:10375400f0b54b6889b005930b6807009c46079346
:10376400cb680c008e68049310685168cd0f44d068
:103774000b000200002150429941059b002b08dbfd
:103784000222634693430793002d02d1079b5a07f5
:103794002ad5731e07aa02920a22009301920b00f3
:1037a4000200200000f03afd002d02d1079b5a07c9
:1037b4001ed501382d23002d00d1023b049a135449
:1037c40023695a1e049b121a1918079b3800009388
:1037d400330000f019fe7b68db0503d5636898426b
:1037e40000da180009b0f0bd1b07db0ff31ad1e7ac
:1037f4001b07e5d501382023e0e7059b002bbfda42
:02380400c4e717
:020000040000fa
:02380600704709
:020000040000fa
:1038080090b587b002af244b5c683b1de3221a7069
:103818003a00391d02230093130001224020a047db
:10382800c0461d4b1b689847031efad13b001b7806
:103838009bb21b0299b23b005b789bb2fc221340ff
:103848009ab20e203b188a181a803b181b88180059
:1038580001f0c4fe114a124bfff722f803000c00d6
:103868001800210000220f4bfff758fe03000c0040
:10387800180021000c4a0d4b02f006f803000c005a
:103888001800210000f0a0fe031cbb60bb68181cd8
:10389800bd4605b090bdc04670010020d7a3703d5d
:1038a8000af765400000f040cdcccccccc6c47404a
:020000040000fa
:1038b80080b584b000af002001f078f9fff726fb4f
:1038c800204b1b78dbb2002b02d01e4b00221a7053
:1038d8001d4b1b78dbb2002bf2d01c4b802252040c
:1038e8005a61194b00221a70fff78aff021c184b05
:1038f8001a6000f04ffc021c164b1a600020fcf7ff
:10390800b1fd3b000233144a12881449180001f033
:103918004dff3b0000221a703b0014225a703b00f6
:10392800180001f0c1ff03005a1c3b0011001800e9
:10393800fcf714ff0020fcf7b9fd044b8022520469
:103948009a61bde79a0100209b01002000440041d4
:103958008001002084010020980100201c590000eb
:020000040000fa
:10396800026df0b51100436d85b0040019430cd009
:10397800c16d994209db02d1836d934205d30023bf
:103988000120e364404205b0f0bd200001f062fd73
:103998000028f4db226d636d00920193019a216c7b
:1039a800009be56b13430a00002b19d0a26de36d51
:1039b80002920393029e039f009a019b921bbb41b4
:1039c8001f004b1b16001a00db179c4667451adcc4
:1039d80001d1964217d8009b029a013b9a1aaa185d
:1039e800e264002909d0a66de76d491b01310a0080
:1039f800cb1792197b41a265e3656b1e1a78824248
:0a3a0800c1d01870bfe70a00eae71a
:020000040000fa
:103a1400002941d010b4041c4c40a44601230022c8
:103a2400002900d54942002800d5404288422cd3c1
:103a340001242407a14204d2814202d209011b01bc
:103a4400f8e7e400a14204d2814202d249005b00bb
:103a5400f8e7884201d3401a1a434c08a04202d323
:103a6400001b5c0822438c08a04202d3001b9c0864
:103a74002243cc08a04202d3001bdc0822430028c6
:103a840003d01b0901d00909e3e7101c6446002c8c
:103a940000d5404210bc704701b5002001f080ff02
:103aa40002bdc0460029f7d003b5fff7b3ff0ebc33
:083ab4004243891a1847c0467d
:020000040000fa
:103abc0080b582b000af234b9b8c9bb2214a8021f6
:103acc008b439bb29384c0461e4bdb681022134081
:103adc00102bf9d11c4b1b689b0e7b607b683f2b1a
:103aec0001d07b6800e01f237b607b689b021b047a
:103afc001a0c144b802189000a439a62134b8222c0
:103b0c00d2015a80c0460f4bdb6810221340102b99
:103b1c00f9d10c4b0e4ada62c0460a4bdb68102214
:103b2c001340102bf9d1074b06229a84c046054b43
:103b3c00db6840221340402bf9d1c046bd4602b091
:103b4c0080bdc0460008004024608000000c00408e
:043b5c00b8050104a3
:020000040000fa
:103b600030b5882933d015dc812941d003dc802988
:103b70003ed0002030bd822911d08429f9d11c68a3
:103b800002cc1c60002a1ed009b20160c917416036
:103b90000120efe7a02923d00adc9029e9d10724ee
:103ba00019680731a14330c9196004604560efe727
:103bb000c02901d0f029dcd11a68111d19601368e1
:103bc0000360002312e089b201604260e0e71c68f4
:103bd00002cc1c60002a01d049b2d6e7c9b2f3e793
:103be0001a68111d196013680360db174360cfe783
:103bf00019680c1d1c600b680360002ae5d0f4e70f
:020000040000fa
:103c0000f0b51f00936887b0019313690400029315
:103c10000391d66801f03ef93b681818019b3860a3
:103c2000002b02d1029b013b01930025019b9d4289
:103c300014da029b013bab4210dde36be26c934272
:103c40001dd25a1ce26318780300303b072b1fd9a2
:103c5000e36c002b02d0e36b013be36300230822fb
:103c6000735505a9300001f0cffd039b1860596022
:103c7000059b0120b34209d10220404206e020000a
:103c8000fff772fe431cdfd1002de7d107b0f0bd76
:0c3c900070553b68013501333b60c7e70d
:020000040000fa
:103c9c0030b405004d400124e407254042004b00a0
:103cac00120e26d01b0e34d0ff2a2dd0ff2b35d070
:103cbc00d21a000220430902214343084908a00def
:103ccc005b1a02d2013a5b005b185b008b4200d39b
:103cdc005b1a4041f9d37f3222ddff2a06d2d2058e
:103cec00c91a8b425041284330bc7047ff20c00595
:103cfc00f9e71b0e03d0ff2b12d1490210d07f2005
:103d0c0000010c300005efe74002f8d1ff2bedd19c
:103d1c00f5e7ff2aead14002f1d1e7e74902eed1fb
:043d2c002800e1e7a3
:020000040000fa
:103d3000f7b50b6916000193cb68050000938f68f7
:103d400001f0a8f8336818183060002f01d1019bea
:103d50005f1e0024bc422bda019b013ba34227ddfe
:103d6000eb6bea6c93420fd25a1cea63187803009b
:103d700002222b3b934323430ed1009b0124187056
:103d8000336801333360e5e72800fff7edfd431c9e
:103d9000edd1002c0cd1febd0200009b303a1b1966
:103da000092a09d9eb6c002b02d0eb6b013beb63ca
:103db0000020009b1855eee718703368013401337a
:043dc0003360c7e7be
:020000040000fa
:103dc400f7b505000c0017001e00002a04d001f00e
:103dd4005ff8336818183060a36800240193019bce
:103de400002b01d09c421fdaeb6bea6c934214d295
:103df4005a1cea631878002f1dd0202803d0030032
:103e0400093b042b17d8eb6c002b02d0eb6b013b66
:103e1400eb63089b002b19d109e02800fff7a2fdf2
:103e2400431ce8d1002c05d0089b002b0cd12000aa
:103e3400441ea041febd089b002b00d018553368da
:103e4400013401333360cae7002ff0d00023089a0d
:043e54001355ece72f
:020000040000fa
:103e580030303a33303a35380000c0464175672073
:103e6800323320323032320025643a25643a2564f0
:103e78000000c04625732025642025640000c04644
:103e88004a616e00466562004d61720041707200c1
:103e98004d6179004a756e004a756c00417567007e
:103ea800536570004f6374004e6f7600446563007d
:103eb800883e00008c3e0000903e0000943e0000ca
:103ec800983e00009c3e0000a03e0000a43e00007a
:103ed800a83e0000ac3e0000b03e0000b43e00002a
:020000040000fa
:103ee800f0b5c6461f4a204b00b50021934203d2c5
:103ef800197001339342fbd10b231c4a9c46083ba3
:103f080098461368546819000026214311d01700f9
:103f180091680c3700290fd11a19002c03d01e7094
:103f280001339342fbd13a001368546819002143c6
:103f3800edd104bc9046f0bd6146c91a1d1951184f
:103f4800002c05d05a1c505c187013009542f9d10a
:103f5800434623405a1e9341a4081c19a4003f1944
:103f68003a00e1e70000002000000020fc290000e2
:020000040000fa
:103f7800b0b584b000afb9607a603b600e23fb181f
:103f8800021c1a801c4b20229b5c5bb2002b01d0c8
:103f980000232de0184b0e203a1812889a80164bf1
:103fa8003a68da60144b3a6a5a61134bba689a60f5
:103fb800114b7a681a61104b1c2408257a191219ba
:103fc80012789a700c4b202208218c46bc4462441b
:103fd80012781a70084b2122002199547b191b1959
:103fe8001a783b181b881100180000f0affb01235a
:0c3ff8001800bd4604b0b0bdf40000206d
:020000040000fa
:10400400002934d00123002210b488422cd3012487
:104014002407a14204d2814202d209011b01f8e71c
:10402400e400a14204d2814202d249005b00f8e7d5
:10403400884201d3401a1a434c08a04202d3001b01
:104044005c0822438c08a04202d3001b9c08224334
:10405400cc08a04202d3001bdc082243002803d072
:104064001b0901d00909e3e7101c10bc704701b516
:10407400002001f095fc02bd0029f8d003b5fff73c
:0c408400c1ff0ebc4243891a1847c04619
:020000040000fa
:104090002e2e2f7372632f4c6f52612e6300c04619
:1040a00076657273696f6e203d3d204c4f52415fc3
:1040b00053454d544543485f56455253494f4e2052
:1040c00026262022756e737570706f727465642079
:1040d00053454d544543482076657273696f6e228f
:1040e0000000c046860900008a0900008e09000011
:1040f00092090000960900009a0900009e0900003c
:10410000a2090000a6090000aa0900004c6f526134
:08411000426567696e00c046bc
:020000040000fa
:1041180080b582b000af78600a00fb1c1a707b681b
:104128005b69783b9a067b681b6901339b051a43d8
:104138007b68db685b041a437b689b681b031a4334
:104148007b685b689b011a437b681b681900104bee
:104158000a439a61c0460e4b9b7adbb21a00802351
:104168001340802bf7d00a4afb1c1b781377c046f4
:10417800074b9b7adbb21a0080231340802bf7d0c1
:10418800034b0122da7101231800bd4602b080bd3d
:0441980000140040cf
:020000040000fa
:10419c0090b587b002af1d4b5c683b1de5221a70d1
:1041ac003a00391d02230093130001224020a0473e
:1041bc00c046164b1b689847031efad13b001b7870
:1041cc009bb21b0299b23b005b789bb2fc22134062
:1041dc009ab20e203b188a181a803b181a881300c2
:1041ec005b019b1a9b009b18002b02da084a944631
:1041fc0063441b14063b180001f0eef8031cbb6073
:10420c00bb68181cbd4605b090bdc04670010020af
:04421c00ffff0000a0
:020000040000fa
:10422000f0b5050085b019000c9b100001931a68c9
:104230002b696c68013bef681d00002c00da01243b
:104240000026fe540a9e0123361b029602261640c3
:104250000b9ad2170392002d04dc002b17d02800f4
:1042600005b0f0bd02000a4307d1002c05dc029a1c
:104270001219002af1dd002eefd00b9a039b00f0fb
:10428000e9fd013d130030327a55013ce3e710238c
:0e429000019a12689a431300019a1360dfe747
:020000040000fa
:10429e0030b588292cd012dc812930d003dc80295e
:1042ae002dd0002030bd82290ed08429f9d1196875
:1042be0000680c1d1c600b6818800120f2e7a02915
:1042ce000fd00adc9029ecd1046845681968081de6
:1042de0018600b681c605d60efe7c02901d0f02903
:1042ee00dfd11a680168101d186013681960e4e7c1
:1042fe00196800680c1d1c600b681870dde71968e2
:0c430e0000680c1d1c600b681860d6e7ee
:020000040000fa
:10431c0080b500af00f0b2fb00f0a4fe00f0c6ffc9
:10432c00fff7c6fb00f0acff0d4b0e4a5a800c4b4e
:10433c000d4a5a800a4b0d4a5a80094b0c4a5a8036
:10434c00074b0c4a5a80064b0b4a5a800b4b0c4ab3
:10435c001a620c4b00221a62c046bd4680bdc04694
:10436c00000c004004430000054000001440000015
:10437c00174000001b4100001e40000000040040dc
:08438c002408010000080040b4
:020000040000fa
:1043940080b588b000af78600023fb61184b5b6880
:1043a40001333b617b68174a5343fb60144b1b6822
:1043b40001221340012b1ed1114b9b687b6116e037
:1043c4000f4b9b68bb607a69bb68d31abb61ba6840
:1043d4007b699a4205d93a69bb68d31a7a69d318ba
:1043e400bb61bb687b61fa69bb69d318fb61fa697d
:1043f400fb689a42e4d3c046bd4608b080bdc046bf
:0844040010e000e064bb0000c1
:020000040000fa
:10440c00f0b51e00012389b014000e9a07001a4063
:10441c000291019220d1b4421eda351b03952a0079
:10442c00102d00d91022202104a801f033fa0f2df1
:10443c001bdc0f22039b04a913401a00380000f068
:10444c00f5fd019b002b04d122000299380000f0ed
:10445c00edfd300009b0f0bd22000299380000f0eb
:10446c00e5fdb442d9db2600f3e7102204a938009d
:08447c0000f0dcfd103ddae761
:020000040000fa
:1044840080b500af184b01221a60c046164bdb6999
:10449400002bfbd1144b802252005a60c046124bb1
:1044a400db69002bfbd1104be822da600e4b0f4a7c
:1044b4001a60c0460c4bdb69002bfbd10a4b10225f
:1044c4005a83c046084bdb69002bfbd1084b2122e1
:1044d40000219954064b202200219954024b832237
:1044e4009a75c046bd4680bd0014004216001000f7
:0444f400f4000020b0
:020000040000fa
:1044f800f0b50b680c008f68cd68496887b0060076
:104508000593002902db02218b43059305a9536813
:10451800126802910821009701912000fff77cfea4
:10452800059bdb0602d5302301382b54059b1b075e
:1045380002d5202301382b54236929185a1e059bbc
:10454800121a009330003b00fff75cff7368db052d
:0e45580003d56368984200da180007b0f0bd82
:020000040000fa
:1045660010b584291fd007dc812915d0822922d0d5
:10457600802911d0002010bd90291cd008dc882984
:10458600f8d119680c1d1c600b6803601a7010e0e6
:10459600a02901d0c029edd119680c1d1c600b683b
:1045a60003601a6005e019680c1d1c600b68036047
:1045b6001a800120dfe719680c1d1c600b68036078
:0845c6001a60d2175a60f4e7f5
:020000040000fa
:1045d0004b1801225205da4217d25b0d0722d20195
:1045e0009b1a0fd9ff2b13d2db05ca0fd207134337
:1045f0000903020d1143490ac200524100d9013199
:10460000c8187047c80fc007704706d1002804d1ea
:10461000c80f0002ff30c00570470123db070a0006
:10462000c900400f084398431a4010435b0a1843df
:044630007047c046c9
:020000040000fa
:1046340080b500af154b1b78dbb2144a01210b4344
:10464400dbb21370c046114b5b78dbb21a008023d7
:104654001340802bf7d00d4b00229a610b4b0022a4
:10466400da610a4b1b78dbb2084a02210b43dbb246
:104674001370c046054b5b78dbb21a0080231340ed
:10468400802bf7d0c046bd4680bdc0460018004010
:020000040000fa
:1046940080b582b000af78607b685b69783b9a062e
:1046a4007b681b6901339b051a437b68db685b04e9
:1046b4001a437b689b681b031a437b685b689b01f6
:1046c4001a437b681b681900084b0a431a61c046e9
:1046d400064b9b7adbb21a0080231340802bf7d061
:1046e40001231800bd4602b080bdc046001400403e
:020000040000fa
:1046f40080b582b000af0200bb1d1a807b1d0a1c6e
:104704001a707b1d1b78002b04d00f4b2022032131
:10471400995403e00c4b202204219954bb1d1b889f
:1047240059007b1d1b78002b01d0012200e00022e0
:10473400064b0a435a62c046044bdb69002bfbd18b
:10474400c046bd4602b080bdf40000200014004203
:020000040000fa
:1047540080b582b000af0200bb1d1a807b1d0a1c0d
:104764001a70104b00229a610e4b0022da610e4b34
:1047740083221a760c4b5a680b4b0c490a405a6038
:10478400c046094bdb69002bfbd17b1d1a78bb1d8e
:104794001b8811001800fff7abffc046bd4602b0ee
:1047a40080bdc046f400002000140042fffffbff60
:020000040000fa
:1047b400002370b59eb004000d00160005931390fd
:1047c400069098421fdb114bc31814930022002358
:1047d40004a800f02dfe229a239b3100009201933d
:1047e40004a80122fcf78aff002d0ad0139b029330
:1047f400149b0393039a029b9b1a1a9a9b18e4181e
:104804002c601eb070bd01235b42dee7ffffff7f1b
:020000040000fa
:1048140037b504000d00002801d100203ebd4368d7
:104824009b0607d543698269934217d80023a36284
:10483400a3616361e26b236c9a4206d20121d21a0e
:10484400d3170091206801f0adf800232364e363db
:104854009d42e2d0206801f08df8dfe70022c36ab0
:10486400110098476369002be0d101204042d5e74d
:020000040000fa
:10487400f0b59db004000d0016000021542207a8d5
:104884001f0001f00bf801235b4202930433ff3352
:104894000393002c00d101ac0023049405959d42a0
:1048a40000d06b1e0693002d06da4f220120074b21
:1048b40040421a601db0f0bd00233a00237031005d
:1048c40002a80894079400f00bfff3e7940100207a
:020000040000fa
:1048d40080b500af134b1b889bb2124a01210b43d6
:1048e4009bb21380c0460f4b9b7adbb21a00802325
:1048f4001340802bf7d00b4b802252009a80094b37
:10490400094a1a80c046074b9b7adbb21a008023ff
:104914001340802bf7d0034b0122da71c046bd4609
:0c49240080bdc046001400400a0a0000dc
:020000040000fa
:1049300000230e4a10b513600d4a13600d4a136030
:104940000d4a13600d4a13600d4a5362136101331f
:10495000936000f0c5fffef7b2fc0a4c0a4b9c4284
:1049600000d310bd08cc9847f8e7c046900100205e
:104970007400002070000020680000206c000020ff
:0c49800078000020c4000000c800000007
:020000040000fa
:10498c00f0b50b680c008f68cd68496887b00600dd
:10499c000593002902db02218b43059305a953687b
:1049ac00126802910a21009701912000fff732fc56
:1049bc00236929185a1e059b121a009330003b00dc
:1049cc00fff71efd7368db0503d56368984200dab8
:0649dc00180007b0f0bd59
:020000040000fa
:1049e40080b500af114b01221a80c0460f4bdb7b10
:1049f400dbb25bb2002bf9db0c4b8c22d2001a80a9
:104a04000a4b02221a83094b3b229a73084b002259
:104a14001a60064b01225a73c046044bdb7bdbb29f
:104a24005bb2002bf9dbc046bd4680bd002c0042c2
:044a340068010020f5
:020000040000fa
:104a3800f0b50f0087b0039015001049072204a8ad
:104a48001c0000f005ffbb687e6802933f68002ddc
:104a580000d104ad002c03d1280000f025ff04008c
:104a6800002e02dbb44200d934000097029b2200da
:104a780029000398fff7c6fc07b0f0bd8059000075
:020000040000fa
:104a880090b583b000af0f4b5c681b68a109002389
:104a98001a000a007f2313407b607b681a04fe23f8
:104aa800db031a40084b06210a439a61c046064bad
:104ab800db6804221340042bf9d1c046bd4603b07d
:0c4ac80090bdc046206080000008004047
:020000040000fa
:104ad40010b581290fd0832903d0802914d0002058
:104ae40010bd1368191d11601b68416800681860c7
:104af40059600120f4e71368191d11601b680168ef
:104b0400426819605a60f4e71368416800681c1d24
:0c4b140014601c68fff75afd2060eae7ff
:020000040000fa
:104b20000200002310b54832d3560400591e0b432f
:104b3000137043698269934203d90022c36a11004a
:104b4000984700236068a362a3616361830705d56a
:104b50001023184360600120404210bda368e26842
:0c4b600000079b182364e363c017f6e70e
:020000040000fa
:104b6c0010b5064c2378002b07d1054b002b02d037
:104b7c00044800e000bf0123237010bd4001002059
:104b8c000000000000000000044b10b5002b03d007
:104b9c000349044800e000bf10bdc04600000000ff
:084bac0044010020000000009c
:020000040000fa
:104bb40080b582b000af78600e4b06225a60fef7d3
:104bc4004dfcfff7a9fbfff75bfc00f0fdfd00f0d7
:104bd4009df900f085fbfef7dffbfff729fdfff7ea
:104be40077fefff7fdfe00f0ebf9c046bd4602b0cc
:084bf40080bdc04600400041f5
:020000040000fa
:104bfc0010b50a4b98470a4b9847fff76ff9094bca
:104c0c00ff229343084a9360084b9847084b9847f8
:104c1c00084b9847fef74afefee7c046f730000007
:104c2c00f73000000000000000ed00e0314900000a
:084c3c00f7300000f730000022
:020000040000fa
:104c440080b582b000affb1d01221a700b4b2022ed
:104c54009b5c5bb2002b0ad1094b5b8b9bb21a00a5
:104c640030231340102b02d1fb1d00221a70fb1db0
:104c74001b781800bd4602b080bdc046f400002079
:044c840000140042d6
:020000040000fa
:104c880030b401256d054c00e54215d85c00e542bd
:104c980012d80c001c436400044314430fd005d2ff
:104ca80082428b418041013030bc7047904299412b
:104cb8008041013030bc7047002030bc7047012073
:044cc80030bc704745
:020000040000fa
:104ccc00d3b51f004368040016009b0607d5436943
:104cdc00826993420bd80023a362a3616361069b94
:104cec003200009320003b0000f0c6fbdcbd00222c
:104cfc00c36a110098476369002becd10120404234
:044d0c00c117f3e7f1
:020000040000fa
:104d1000f7b597b201933b00140c86b2050c7343b0
:104d20006f4366436543f6191c0ca4199c46a742c1
:104d300002d980235b02ed186346260c7519240402
:104d40009eb2019ba4194343200051435b1959189b
:044d500003b0f0bdff
:020000040000fa
:104d540030b401256d054c00e54215d85c00e542f0
:104d640012d80c001c436400044314430cd005d235
:104d740082428b418041404230bc7047904299410d
:104d84008041404230bc7047002030bc7047c04670
:020000040000fa
:104d940030b401256d054c00e54215d85c00e542b0
:104da40012d80c001c436400044314430cd005d2f5
:104db400904299418041404230bc704782428b41cd
:104dc4008041404230bc7047002030bc7047c04630
:020000040000fa
:104dd400030010b51a78202a0dd0110009390429ce
:104de40009d900212b2a02d02d2a01d10131013306
:104df40000200a2404e00133ece760430133801a05
:104e04001a78303a092af8d9002900d1404210bd55
:020000040000fa
:104e1400f7b5551c846bff35070001910092002102
:104e24002a00200000f0b9fc002800d0051b009bdc
:104e34002e009d4200d91e0032002100019800f08e
:104e440009fda31964193000fb633c64bc63febd17
:020000040000fa
:104e5400002b11d1002a0fd1002900d1002802d043
:104e64000021c943081c07b4024802a1401802905b
:104e740003bdc0462d0b000003b4684601b502987b
:104e8400fef7aaf9019b9e4602b00cbc7047c046cf
:020000040000fa
:104e940070b504000025e36be26c934211d25a1cf6
:104ea400e263187820280ad00938042807d9e36c6b
:104eb400002b02d0e36b013be363280070bd013596
:0e4ec400e9e72000fef74efd431cebd1f5e7b9
:020000040000fa
:104ed40080b500af0b4b1b7adab20b4b1a70094b3f
:104ee400c1221a72084b5b68002b07d0064b5a6824
:104ef400054b1878044b9b6819009047c046bd4683
:0c4f040080bdc046001400405c0100208d
:020000040000fa
:104f100080b500af0b4b802292025a60c046094b0d
:104f2000db69002bfbd1074b16221a73054b064a8f
:104f30001a60c046034bdb69002bfbd1c046bd465f
:0c4f400080bdc046000800420e001300b7
:020000040000fa
:104f4c0080b582b000af0b4afb1d927b1a70094be7
:104f5c003b229a73084b1b68002b07d0064b1a6830
:104f6c00054b5968fb1d1b7818009047c046bd4681
:0c4f7c0002b080bd002c00426801002043
:020000040000fa
:104f88001c2101231b04984201d3000c10391b0a71
:104f9800984201d3000a08391b09984201d3000935
:104fa800043902a2105c40187047c046040302028c
:0c4fb800010101010000000000000000e9
:020000040000fa
:104fc40080b500afbff35f8f62b603210320fef705
:104fd40075f9032000f064f803210c20fef76ef944
:104fe4000c2000f05df803211220fef767f912206f
:0a4ff40000f056f8c046bd4680bd2f
:020000040000fa
:104ffe00b0b588b004afb9607a603b600e257b19fe
:10500e00021c1a803c687a68b9687b1918880023dc
:10501e000293002301933b6a00932300fef7a5ff42
:0a502e0003001800bd4604b0b0bd39
:020000040000fa
:10503800436870b50400d80510d52569954200d994
:1050480015002a00606900f003fc226963695b1996
:10505800551b0022636125611a7070bddb06fcd404
:08506800200000f0e1fbf8e775
:020000040000fa
:1050700080b500af084b094a5a60074b084a9a604e
:10508000c046054b5b78dbb21a0080231340802baf
:10509000f7d0c046bd4680bd000c004003040100af
:0450a00003200000e9
:020000040000fa
:1050a40080b582b000af0200fb1d1a70fb1d1b7897
:1050b4007f2b09d8fb1d1b781a001f231a40044bb1
:1050c400012191400a001a60c046bd4602b080bd6d
:0450d40000e100e017
:020000040000fa
:1050d800f4464a1805d200f061f801d5c017400817
:1050e800604701235b05d34206d200f057f801d58b
:1050f8000120c0074042604701d10042f5d0d017d7
:0451080040087047a4
:020000040000fa
:10510c00f0b5050000200a4c4200165d002e02d1bd
:10511c00a2185078f0bd296801300f78c0b2b742a0
:10512c0003d1a2180131507829600a28ecd9f1e793
:04513c001c560000fd
:020000040000fa
:1051400080b582b000af0200bb1d1a80074abb1dac
:105150001b881383c046054bdb7bdbb25bb2002ba5
:10516000f9dbc046bd4602b080bdc046002c0042ff
:020000040000fa
:1051700070b4012676054c005d00e6420cd8ee4284
:105180000ad825430543154303d0994204d19042e0
:1051900002d1012070bc7047002070bc7047c0462f
:020000040000fa
:1051a0004a0010d2520d03231b02ff33d21a0ad435
:1051b00052421f3209d4400dc90208430123db07c4
:1051c0001843d040704700207047d0177047c04642
:020000040000fa
:1051d00010b50b680c001b78202b03d0093b002274
:1051e000042b0bd8fff756fe02002368591c2160e0
:1051f0005b78202bf9d0093b042bf6d9100010bda9
:020000040000fa
:1052000070b50d00160004009ab0682200216846af
:1052100000f046fb054b32002900684602940e94cc
:10522000119300f06bfa1ab070bdc04669590000c6
:020000040000fa
:1052300037b50d00d46811001a00fef779fd431c44
:105240000cd00a2201a9200000f0e8fa019b286096
:0e52500069600120a34201d1022040423ebd10
:020000040000fa
:10525e0037b50d00d46811001a00fef762fd431c2d
:10526e000cd00a2201a9200000f0c7fa019b286089
:0e527e0069600120a34201d1022040423ebde2
:020000040000fa
:10528c0080b500af074b084a5a60c046054b5b78a7
:10529c00dbb21a0080231340802bf7d0c046bd46ea
:0c52ac0080bdc046000c0040000701005f
:020000040000fa
:1052b80080b500af074b084a5a60c046054b5b787b
:1052c800dbb21a0080231340802bf7d0c046bd46be
:0c52d80080bdc046000c00400104010035
:020000040000fa
:1052e40080b500af074b00221a60064b00229a607b
:1052f400044b054a5a60034b04221a60c046bd465b
:0c53040080bdc04610e000e063bb00006c
:020000040000fa
:1053100080b500af084b1b889bb2074a02210b43a4
:105320009bb21380c046044bdb7bdbb25bb2002b2d
:0c533000f9dbc046bd4680bd002c0042e9
:020000040000fa
:10533c0010b500280cd1084b04001a68002a03d0c1
:10534c001868fff7f5ff040000f023fb204310bda5
:0c535c00002100f084fafae78c01002028
:020000040000fa
:10536800002380290fdb812901dd83290bd1072147
:10537800136807338b431900083111601a685b689a
:0a5388000260436001231800704723
:020000040000fa
:1053940080b582b000af02003960fb1d1a70fb1d9e
:1053a4001b78012b02d1034b01221a70c046bd4663
:0853b40002b080bd9a01002047
:020000040000fa
:1053bc0080b582b000af02003960fb1d1a70fb1d76
:1053cc001b78002b02d0034b01221a70c046bd463d
:0853dc0002b080bd9b0100201e
:020000040000fa
:1053e400c20f12029d3201000cd001d5494202d4f1
:1053f400013a4900fcd5d205080a0906494100d3ff
:08540400012950417047c04628
:020000040000fa
:10540c0013b5074c24680192009302000b0020682e
:10541c00044900f0a8f90020fff78aff00f09afa7f
:08542c003c0100206055000066
:020000040000fa
:10543400f0b51700016cc66b02658c1be51743655c
:105444008465c5651f4305d09d4202dc02d19442a8
:0854540000d9b118c164f0bddc
:020000040000fa
:10545c0037b50400fff75efb002802d00120404264
:10546c003ebd6b46dd1d0122636c29002000984770
:08547c000128f3d12878f3e7c1
:020000040000fa
:1054840013b5049904000091006800f08bfa002918
:1054940006db08230020002162689a4362601cbd79
:0854a40001204042c117fae7a4
:020000040000fa
:1054ac0080b582b000af78603960054b7a685a607d
:1054bc00034b3a689a60c046bd4602b080bdc046f8
:0454cc005c0100205f
:020000040000fa
:1054d00080b582b000af78603960054b7a685a6257
:1054e000034b3a689a62c046bd4602b080bdc046d2
:0454f000f4000020a4
:020000040000fa
:1054f40080b582b000af78603960054b7a681a6075
:10550400034b3a685a60c046bd4602b080bdc046ef
:04551400680100200a
:020000040000fa
:1055180080b582b000af78603960054b7a681a6050
:10552800034b3a685a60c046bd4602b080bdc046cb
:0455380070010020de
:020000040000fa
:10553c0041000dd2090e7f390ad449421f3105d4de
:10554c0000020122d2071043c8407047c8177047a9
:04555c000020704774
:020000040000fa
:10556000417373657274696f6e206661696c6564fe
:105570003a202573202825733a2025733a20256484
:03558000290a00f5
:020000040000fa
:1055840080b582b000af78603960396878680023ec
:105594000022fcf785ff03001800bd4602b080bd61
:020000040000fa
:1055a40080b582b000af786039603b687a680021ca
:1055b4000020fcf775ff03001800bd4602b080bd53
:020000040000fa
:1055c4009d2201000ad002d4013a4900fcd5d2053b
:1055d400080a0906494100d3012950417047c046d1
:020000040000fa
:1055e400054b004206d5404200b5984708bc01224d
:0c55f400d20711431847000001560000c8
:020000040000fa
:1056000042221201033a010007d002d4013a0018e5
:0c561000fcd51205c30a4005991870472c
:020000040000fa
:10561c0068076c094c836a9074a07ac00080688813
:0c562c0000846c820081286e696c2900eb
:020000040000fa
:105638000300303b02000120092b06d9202300205b
:0c56480013430522613b9a424041704729
:020000040000fa
:1056540080b500af034b21229b5cdbb21800bd4632
:0856640080bdc046f4000020e7
:020000040000fa
:10566c0080b584b000aff860b9607a6001235b420a
:08567c001800bd4604b080bd1a
:020000040000fa
:1056840080b500af034b8022d2015a61c046bd46ab
:0856940080bdc0460044004146
:020000040000fa
:10569c0080b500af034b8022d2019a61c046bd4653
:0856ac0080bdc046004400412e
:020000040000fa
:1056b40080b500af034b8022d2025a61c046bd467a
:0856c40080bdc0460044004116
:020000040000fa
:1056cc0080b500af034b8022d2029a61c046bd4622
:0856dc0080bdc04600440041fe
:020000040000fa
:1056e40013b50400019201aafcf72efc6368db06e3
