:020000040000fa
:10000000f03f0020d5420000ad4f0000b34f00008c
:1000100000000000000000000000000000000000e0
:10002000000000000000000000000000732200003b
:100030000000000000000000732200007322000096
:10004000732200007322000073220000ad450000ff
:10005000732200007322000073220000732200004c
:1000600073220000591d000073220000732200005b
:10007000351900000000000000000000732200009d
:100080007322000073220000e94500007322000083
:100090007322000000000000000000007322000036
:1000a00073220000732200007322000073220000fc
:0800b0000000000073220000b3
:020000040000fa
:1000b800f8b5c046f8bc08bc9e467047254200000b
:1000c800f8b5c046f8bc08bc9e467047fd41000024
:020000040000fa
:0800d8008c290000010000006a
:020000040000fa
:1000e000f0b59db016930b6854680a938b6817900f
:1000f0000b930b6910911a93cb684d6804931368a6
:100100002100089300220023089804f0aff900288a
:100110000bd10a9b5b0737d408230a9a1a400b9b22
:100120000c9205930cd0202303e080231b06e418d7
:100130002d23049a13700b9b013b059301230c9311
:100140000c99049a8c4608996244630011925b08ea
:10015000894a00291ad1934218d1169b874c413bfa
:100160002100192b00d9211d119804f0fbfe201d40
:1001700004f0dafe0a9b0200009304990b9b179887
:1001800003f000fc1db0f0bd2b23d2e7934203d84f
:1001900011d1089b002b0ed0169b784c413b2100bf
:1001a000192b06d80831119804f0dcfe20000c3021
:1001b000dee70c31f7e7002200230898210004f065
:1001c00009fb00266e4f00282fd0002303931698ba
:1001d00004f0bafec3b20d93002d00dad4e1069309
:1001e000672b00d0d9e0002d00d1c9e1039b043377
:1001f00003db039bab4200dacae06523dee0039b2e
:10020000069e079f0133039300225e4b30003900a6
:1002100001f086ff089a23000690079104f006f982
:100220000028ecd00023069326e00390ece7039b24
:100230001a00554b9a4214da069b002b11d100226a
:10024000524b0898210001f06bff504b08900c00b6
:1002500030003900002201f063ff012306000f0087
:100260000693484b30003900002202f09ffd060043
:100270000f00039b013b039332003b0008982100d1
:1002800004f0f4f80028d2d1a1e708960997069b5c
:10029000039c652b00d004e1002402e1089a099b2d
:1002a0000e98129902f082fd02f0e2fd1490159171
:1002b00004f044fa10220a9b1340034323d10d9b00
:1002c000672b20d1002c2bda0135802000068446d4
:1002d00012990e9a61440b0014981599009201939b
:1002e000089a099b04f028fe80231b06cb180e9069
:1002f0001293089809990022224b02f057fd013c05
:1003000008900991d2e0002e0ad1002c08da059b52
:10031000049a013b05932e23139901375354013658
:10032000ea193b009446302102e0049ad15401338b
:100330009c45fad16246059b0137013b5b1b059347
:10034000049b30307f1998540025bee70398310094
:1003500002f03aff049b3031013c195503983100fb
:1003600002f0e8fe059b0390013b0593cae0049a66
:10037000125c1a540138f6e00000f07f084f0000cc
:100380000000f03f00002440d4feffff0000504377
:10039000039b002b11da66230693069b0135662b1f
:1003a0000dd1039b002b03da00230026794f039322
:1003b0000d9b672b01d0039bed1866230693089bca
:1003c0000e960f9712930023139414930e9a0f9b7b
:1003d0001298139902f0eafc02f04afd1890199164
:1003e00004f0acf91b908020000684461399129a01
:1003f00061440b0018981999009201930e9a0f9b73
:1004000004f09afd80231b06cb18129013930e98cc
:100410000f99614b002202f0c9fc149b0e900f91c2
:10042000013314939d42d1d100225c4b01f078fe40
:100430000e900f9102000b001298139904f016f819
:1004400000280ad10e9a0f9b1298139904f0c2f952
:10045000002806d01b9bdb0703d4002200230e924a
:100460000f930e9a0f9b0898210001f059fd00226e
:100470000e901291484b3000390001f051fe0e9a57
:10048000129b0890099103f06bff002800d1fce655
:10049000039b01330393069b662b00d0f7e6039c76
:1004a0000135631b00252e000c9f1893189b139792
:1004b000a34206d0109b1b691493053b9f4200d2b8
:1004c000ece6002e07d10a9bdb0604d52e23049a06
:1004d0001399013753540025049bdb1908931d70b1
:1004e000069b652b31d11a9b5c1e049b1d55039bfb
:1004f000ab4202da5b420393013503261a9bf31adf
:100500000d930736039b002b00d01fe70d9b1b1993
:10051000002b00dd1ae7621e2d23002d00d1023bc7
:100520000499023c8b54169b413b192b01d845235f
:100530000693049b1919069b0b70059b023b0593c0
:10054000a74202da089804f00dfd03230a9a13402b
:10055000022b13d1059b002b10dd049804f0e4fc62
:10056000049b059a9b180c9a824200dcffe6059ad0
:100570003021119804f0b8fc00230b930498f7e5a0
:10058000012533e6062531e60d9b672bfad006934d
:10059000062502e70000f03f000024400000144060
:020000040000fa
:1005a000f0b51c000b6897b008934b6813900d933f
:1005b0008b6809930b690e93cb68029313680693bb
:1005c00053680698059300220023059903f04eff17
:1005d00000280ad1089b5b073cd40820089b099a95
:1005e000034004930ed0202306e080221206944696
:1005f000059b634405932d23029a1370099b5a1e91
:100600000123049302990498059b081806995b003e
:10061000413c5b080c9400291ed1b5498b421bd18b
:10062000029a049b944663441800b24c0c9b210030
:10063000192b00d9211d04f095fc201d04f074fc39
:10064000089b020000930299099b139803f09af902
:1006500017b0f0bd2b23cfe7a5498b4203d80fd1ac
:10066000069b002b0cd0a34c0c9b2100192b05d80a
:10067000083104f077fc20000c30dfe70c31f8e79c
:10068000049b591c302303700c982833192800d977
:10069000203304980230049002984354931e079329
:1006a000002200230698059904f094f8002800d150
:1006b0006ee100230026904f03930d9b1293002bb5
:1006c00001da1823129300230a960b97069d059cc6
:1006d000109328000a9a0b9b210002f067fb02f09e
:1006e000c7fb0a9a0b9b1490159101f019fd0200ab
:1006f0000b002800210004f0effb804b05000c00ec
:100700000a980b99002201f00bfd109b0a900b91a7
:1007100001330f930d9b002b07da002200232800e2
:10072000210004f057f8002806d1129b109a93423a
:1007300000dd31e101330f9300220a980b99704bd1
:1007400001f0eefc0a900b9102000b002800210042
:1007500003f08cfe00280dd10a9a0b9b2800210083
:1007600004f038f8002809d01498159903f0e6ff32
:10077000c30703d4002300240a930b940a9a0b9b0b
:100780000698059901f0ccfb1291490006904908a2
:10079000002803d1564b994200d141e70025049c23
:1007a0000a9505950e9b053ba34230dd3b003200c8
:1007b0000698129902f0fafa02f05afb1090119181
:1007c00003f0bcff031e00d0e8e0059a002a00d128
:1007d000e4e001353200109811993b0001f0a0fcd3
:1007e00002000b000698129904f076fb0022069096
:1007f0001291424b3000390001f092fc059b06003b
:1008000001330593059a0f9b0f009342cad10a9baf
:10081000002b1cd1029b1b19002d00d10ae10d9a5f
:10082000002a00dc06e1089ad20700d502e12e2258
:1008300002991a702a198a1830215970013393428b
:10084000fbd12c19ed43079b0134eb1807930026cd
:10085000029b1b191e7005930e9b5d1e029b5e552d
:10086000039bb34202da5b420393013602230a2759
:100870000e9a9b1a0693039b002b00d0c4e0069ba4
:100880005b19012b00d1bfe06a1e2d23002e00d181
:10089000023b0299023d8b540c9a5023192a00d92d
:1008a0002033029a51190b70ac4202da059804f019
:1008b00059fb0323089a1340022b17d1079c023cd3
:1008c000002c13dd029804f02ffb029b1b19049ae5
:1008d000904200dba9e01300029a30219446634461
:1008e0001800220004f000fb002309930298a5e6fb
:1008f0000000f07ff84e00000000f03f0000b03f25
:100900000000204026002f00039b01330393320098
:100910003b003000390001f003fb04000d00020031
:100920000b000698059903f0a1fd0028ead03200db
:100930003b000698059903f099fd002800d1bce61c
:100940000022404b3000390001f0eafb0022002376
:1009500003f040ff00280fd000223b4b300039004d
:1009600001f0defb002206000f0006980599364bc9
:1009700001f0d6fb06900591324b30003900002281
:1009800001f0cefb039b0600013b0f000393cee773
:10099000039000262d4fbae70f9b99e60a9a002a8a
:1009a0000bd1059a002a08d0079a0299013a0792ba
:1009b0002e220a552d3a01340a92291922008c461a
:1009c00003e030210298815401329445f9d1180096
:1009d000029a013462441492079a6419013a521b34
:1009e00007925730092b01dc303318000c9b192b70
:1009f00006d820230343613b192b01d804f0abfa3e
:100a0000149b00251870e5e60398390002f0dcfb22
:100a1000029b3031013d59550398390002f08afba1
:100a2000079b0390013b079325e7029a125c1a5437
:100a300001384ce7089ad20600d408e72e22013488
:100a40001a7004e70000e03f000050430000f03f50
:020000040000fa
:100a5000f0b58bb0040000910192242901d801293e
:100a600003d11622bc4b1a6056e0e36be26c934252
:100a700024d25a1ce2631d78202df6d02b00093bae
:100a8000042bf2d90222223b934300220892934284
:100a90000bd12d3d6b425d416b420893e26ce36be1
:100aa000934210d25a1ce2631d78009be26c002b2b
:100ab0000ed0102b56d1302d0cd053e0200002f078
:100ac000e3fa0500d8e7200002f0defa0500ece7c3
:100ad000302d45d1e36b934224d25a1ce2631d783a
:100ae00020232b43782b2fd1e36be26c93421ed251
:100af0005a1ce2631d781022984b00925b5d0f2b0d
:100b000000d8cce0e36c002b00d1b3e1019ae36b99
:100b1000002a11d0023be363002600273000390091
:100b20000bb0f0bd200002f0affa0500d8e72000be
:100b300002f0aafa0500dee7013be363002200238e
:100b4000200003f0a9ffe7e7009b002b00d1a4e001
:100b5000009b0a2b00d0a2e00023009f01931ce021
:100b60000a2300937d4b00995b5d8b42f0d3002af2
:100b700002d0e36b013be36300220023200003f07b
:100b80008bff6ee7019ee36b7e437519303d019547
:100b900093426cd25a1ce2631d782b00303be26c0e
:100ba000092b03d86e4b01999942ebd90027019e7e
:100bb0002b00303b0193e36c0493019b092b33d84a
:100bc000684b9f4213d802d1674b9e420fd8002337
:100bd0000a223000390003f007fc019b0293002336
:100be0000393029bdb434a1c46d1984244d95b4b9a
:100bf000009a5b5d934217d2e36be26c934200d3a1
:100c00001de15a1ce2631878544b009a1b5c934216
:100c1000f2d3109e119f22224f4b1a600123109a8b
:100c2000134201d000230893e36c002b02d0e36b46
:100c3000013be363119bbb4200d911e103d1109b3f
:100c4000b34200d90ce10123109a134200d0fae01c
:100c5000089b002b00d0f6e0222201267642f717ef
:100c60003d4b1a60109b119cf618674156e7200017
:100c700002f00afa050090e7e36b049a029e039fd4
:100c800036184f41934203d25a1ce2631d788fe716
:100c9000200002f0f9f905008ae708230093009b81
:100ca0005e1e3340019300d0c1e0009a17335343d6
:100cb0002e4a1b065b0fd35c0293284b009a5b5da8
:100cc000e16c9a4203d92a4a019890422dd9029a9e
:100cd00001204042c11704f04ff80027019e0990ff
:100ce00004911e4b5b5d0193e36c019a0693009b9c
:100cf000934200d87be7049b9f4200d977e703d15a
:100d0000099b9e4200d972e7029a3000390004f034
:100d10003ff8019b069a03431e00e36b0f009342ca
:100d200014d25a1ce2631d78dbe7019e029a9640ba
:100d30001e43e36b01968b4203d25a1ce2631d787b
:100d4000bbe7200002f0a0f90500b6e7200002f0a2
:100d50009bf90500c5e7c046ac0100208c260000c9
:100d600098999919999999199999999982260000b0
:100d7000ffffff07019e009a5643f3180193e36bb0
:100d80008b424fd25a1ce2631d783e4b009a5b5d4a
:100d9000e16c9a4203d93c4a01989042ead9002773
:100da000019e384b5b5d0193e36c019a0293009bbb
:100db000934200d81be7002f17d01a000023300001
:100dc000190003f011fb002309913a001900009863
:100dd00003f00afb099b069300230793069a079bdf
:100de00080185941002900d001e73b0032000098eb
:100df000002103f0f9fa019b049300230593049b5f
:100e0000db434a1c02d1984200d9f0e6049e059fbc
:100e1000e36b029a36184f4193420bd25a1ce2639d
:100e20001d78bee7200002f02ff90500ade7002392
:100e30000193aae7200002f027f90500b1e720009e
:100e400002f022f9e0e6119b9f4203d808d1109be3
:100e50009e4205d9109e119f22220c4b1a605de61e
:100e6000089b013300d059e633003c0000275e4266
:100e7000a74153e6019b00260027002b00d04de63a
:100e80005ce6c0468c260000c6711c07ac01002041
:020000040000fa
:100e90000023f0b504001600f1b007910893059304
:100ea000079b1b78002b68d0002309930a930b93b0
:100eb0000eab0c93802307a920000d9303f0bafc1e
:100ec0000500079b1a78002a01d0252a42d1089aea
:100ed000551908951a78252a32d100255a1c0792ef
:100ee0000b955a782a2a02d10233079301350798c5
:100ef00003f0dcfa02000b90c317200003f0ccfdd6
:100f0000079b1a78303a092a4dd907a803f030fc1c
:100f1000079b0700187804f017f8672865dc652838
:100f200000dbcce0612800d1c9e03fdc079b25282d
:100f300000d1f3e05b2800d10ee1079b013307935a
:100f4000039b013300d0fae0059b002b15d1013b38
:100f5000059312e0e36be26c934211d25a1ce263f8
:100f60001b780393079b039a1b7893420fd0e36c83
:100f7000002b02d0e36b013be363059871b0f0bd39
:100f8000200002f081f8030003900133ead1089bae
:100f900007a901330893079b20000133079303f04f
:100fa00049fc2d188de701330793a9e7632800d189
:100fb00099e06428c1d108ab09aa2ea9200003f04a
:100fc00069fc002800da67e1079b01330793002dd5
:100fd00000d0b4e03300012239002ea802f01bfc3f
:100fe000051e69da6b1cafd0c7e7702843d00bdc55
:100ff0006e2852d031dc69289fd108ab09aa2ea9ee
:10100000200001f0f7f9dce7752815d078282bd0ff
:10101000732800d091e7802f00d08ee7079b013323
:10102000079300239d4203d133681a1d32601b6869
:101030000093012208ab6ce008ab09aa2ea920009e
:1010400003f03ffc002800da26e1079b01330793f9
:10105000002d74d133002a00bee708ab09aa2ea9df
:10106000200002f05df9ede708ab09aa2ea92000e7
:1010700001f010fce6e708ab09aa2ea9200001f058
:1010800009fc002800da07e1079b01330793002dd4
:1010900055d133002a00f0219fe7079b01330793c6
:1010a000089b2e93db172f93002d48d133002a0085
:1010b00039002ea802f0affb059b5b19efe608abe9
:1010c00009aa2ea9200003f07aff002800dae3e045
:1010d000079b01330793002d31d1320039002ea830
:1010e00003f040f87ce7802f00d026e70b9b0493a9
:1010f000002b01d101330b93079b0133079300238e
:101100009d4203d133681a1d32601b680022009390
:1011100008ab09a9200002f09bf961e7802f00d0fd
:101120000be701330793e26ce36b934209d25a1c3d
:10113000e2631878252808d1089b0133089300251d
:10114000bae7200001f0a0fff4e7e36c002bf6d033
:10115000e36b013be363f2e7802f00d0ede6002272
:101160000492954204d13268111d316012680492d4
:101170005a1c07925a7800255e2a02d1023307933f
:10118000013502222eafff322900380003f0acfef9
:1011900000233b70079b1a782d2a26d10133079331
:1011a0000123a93204a95b1b5218137001235d1b94
:1011b000ebb29c462ea9079a13785d2b1fd100270e
:1011c000049bbb423ed1e36be26c93425fd25a1c5c
:1011d000e2631b780393039a2eab9b185d78002d76
:1011e0003fd0089b01330893ede75d2aded1013340
:1011f0000793012304aa07325b1bff32d5e7002bbc
:10120000ddd02d2b06d0079b1a780133ba18557004
:101210000793d0e7089b1b78002bf4d05d2bf2d00e
:10122000531c0793069b1b7850788342ebda604689
:1012300001335854f8e7049b039ada55089b0137a9
:1012400001330893e36be26c3d0093421ad25a1cbf
:10125000e2631b780393039a2eab9b185b78002bf9
:10126000e9d1e36c002b02d0e36b013be363002d7b
:1012700000d162e6049b002b00d15ee60023049ab5
:1012800053555ae6200001f0fffe0390e3e72000eb
:0c12900001f0fafe03909ee70500a3e6c3
:020000040000fa
:10129c0080b584b000aff860b9607a603b60114be8
:1012ac00fa681a600f4bba685a600e4b7a689a60eb
:1012bc000c4b3a68da600b4bba691a61094bfa6944
:1012cc005a61084b3a6a9a61064b7a6ada61054ba5
:1012dc00ba6a1a62034bfa6a5a6201231800bd46b5
:1012ec0004b080bd10010020b0b584b000af7860b0
:1012fc0000f040f80f257c19422000f03cf9030067
:10130c0023707b191b78122b05d0174b17491848e3
:10131c00392203f0a7fb00f043f87b68180000f0bb
:10132c0048f800210e2000f00df900210f2000f0ec
:10133c0009f90c2000f01ff903001a0003231343d2
:10134c00dbb219000c2000f0fdf80421262000f07f
:10135c00f9f80021112000f06bf800f0eaf80023f6
:10136c001800bd4604b0b0bd403e0000ec3d00008e
:10137c00fc3d000080b500af084bdb699847074b7c
:10138c005b6a32209847054b1b6a9847034b5b6a94
:10139c0032209847c046bd4680bdc0461001002093
:1013ac0080b500af8021012000f0ccf8c046bd46ce
:1013bc0080bdb0b588b000af786179690a000021b2
:1013cc000b00510b7960d3043b60184a002338683a
:1013dc00796803f0a5f802000b00ba61fb61fb69a8
:1013ec001b04ba69120cba60ba681a43ba60fb697a
:1013fc001b0cfb603b7a1900062000f0a3f8fb697c
:10140c001b06ba69140a1c43fb691d0ae3b21900d6
:10141c00072000f097f8bb69fc69dbb219000820c3
:10142c0000f090f8c046bd4608b0b0bd0048e801d9
:10143c0080b582b000af786039603b68002b0ed16c
:10144c007b680e2b01d90e237b607b68dbb270228c
:10145c001343dbb21900092000f074f82ae07b6812
:10146c00112b0fd97b68142b01d914237b607b685b
:10147c00033b7b6087214d2000f064f88c2000f04a
:10148c001df80be07b68012b01d802237b608421c3
:10149c004d2000f057f8642000f010f87b68dbb2a8
:1014ac00023bdbb2802252421343dbb2190009200b
:1014bc0000f048f8c046bd4602b080bd90b585b07e
:1014cc0000af0200fb1d1a700f243b191b221a706f
:1014dc00fb1d1b78782b0bd8fb1d1b782d3b052196
:1014ec00180001f021fe03001a003b191a700fe0de
:1014fc00fb1d1b78f02b0bd8fb1d1b781e330a2110
:10150c00180001f011fe03001a000f23fb181a70cb
:10151c000f23fb181b781f221340dbb2202213432e
:10152c00dbb219000b2000f00df8c046bd4605b02b
:10153c0090bd80b500af8121012000f003f8c046ba
:10154c00bd4680bd80b582b000af0200fb1d1a7095
:10155c00bb1d0a1c1a70fb1d1b78802252421343c0
:10156c00dab2bb1d1b781900100000f018f8c04649
:10157c00bd4602b080bd80b582b000af0200fb1d3d
:10158c001a70fb1d1b787f221340dbb20021180060
:10159c0000f005f803001800bd4602b080bdb0b5e0
:1015ac0084b000af0200fb1d1a70bb1d0a1c1a7020
:1015bc0008257b1900221a70114b5b699847104b58
:1015cc001c680c217b18fa1d12781a707b18ba1d36
:1015dc0012785a707a19781801230121a047c04655
:1015ec00074bdb689847031efad1054b9b6998475c
:1015fc000823fb181b781800bd4604b0b0bdc046cc
:04160c0010010020a9
:020000040000fa
:101610000023f0b506001500afb0059101930599c0
:101620000b78002b00d10fe101235b420a930eab34
:1016300000240c93802309940b940d930b5d002bd5
:1016400001d0252b2ad1002c06d02200300003f037
:1016500024f8059b1b190593059b1a78252a00d0b1
:10166000e7e0013302930593022310219c460827eb
:10167000059803782b2b1bd025d8202b1bd0232b90
:101680001dd02a2b2ad002f011ff0b90059b1a784f
:10169000303a092a33d801330593f7e70134cde70f
:1016a0000122099b80180393134309930590dfe7f8
:1016b0000423099a0ee0099b03933b430be0099b2b
:1016c00003930b4307e02d2bead0302bd9d1624690
:1016d000099b0393134309930130e7e72b6801301b
:1016e0001a1d1b6805902a600b93002b07da099ad4
:1016f0005b420392012203990b934a400992099b92
:10170000da0702d5022293430993059b1a782e2a01
:101710000ed10022581c0a9205905a782a2a28d104
:10172000023305932b681a1d1b682a6003930a93e2
:1017300005a803f01df8059b0700187803f004fcca
:10174000692800d183e035dc632800d1d6e01bdcba
:10175000252800d1dfe0612859d0252306aa13707f
:10176000029b0593002309930b93013b0a930233d9
:10177000b2e002f09bfe0a90059b1a78303a092ae3
:10178000d6d801330593f7e7642860d06728e4dcf6
:101790002a00390006a803f019f9002800d1a9e0b1
:1017a000059b09a95a1c05921b7806aa3000fef772
:1017b00097fc3de0702800d17de016dc6e2800d15a
:1017c00091e06f28c9d12b000022390006a801f052
:1017d00057fd002800d18de0059b06aa013309a919
:1017e0003000059302f044f922e0752840d07828b3
:1017f0004fd07328b1d1802f00d07be0059b2a68a1
:1018000001330593131d2b601268002364e02a0046
:10181000390006a803f0daf8002800d16ae0059b39
:1018200009a95a1c05921b7806aa3000fef7b8fedb
:101830002418019b1c19a34200dc74e04f223b4b8f
:101840001a6001235b42019301982fb0f0bd2b0079
:101850000122390006a801f013fd00284ad0059b9b
:1018600006aa013309a93000059301f05bfbdfe70d
:101870002b000022390006a801f002fd002839d013
:10188000059b06aa013309a93000059302f0c6fba7
:10189000cee72b000022390006a801f0f1fc002859
:1018a00028d0059b5a1c05921b7806aa09a930006e
:1018b00000f04ffebce72b000022f02106a801f04b
:1018c000dffc002816d0059b079a01330593069b81
:1018d000134306d1164a163209a9300002f0f4fb70
:1018e000a6e77823e1e7019b39001a1906a82b0027
:1018f00002f0f5f8059b013305939ae7802ff9d1a3
:10190000059b013305932b681a1d1b682a6006aae4
:1019100013700123e0e7802fecd1059b06aa013369
:1019200005931070f5e7019479e6c046ac010020fc
:041930009c4c0000cb
:020000040000fa
:1019340080b500af894b9b7ddbb2002b00d10ae15f
:10194400864b5b8b9bb21a0002231340022b08d1f7
:10195400834b2022ff219954814b21220221995447
:10196400b0e07e4b5b8b9bb21a0001231340012b2a
:1019740008d17b4b2022ff219954794b212202214b
:1019840099549fe0754b5b8b9bb21a000423134060
:10199400042b08d1724b2022ff219954704b212231
:1019a400012199548ee06e4b20229b5c5bb2022b8a
:1019b40009d003dc002b00d183e083e0032b54d057
:1019c400042b12d07ee0664b1b69002b06d0644bbf
:1019d4009b880021180002f077f973e0604b9b8824
:1019e4000121180002f070f96ce05d4b9a695c4bc0
:1019f4001b699a4225d15a4b5b69002b10d0584b76
:101a04009b885a00554b01210a435a62c046534be6
:101a1400db69002bfbd1524b20220321995451e066
:101a24004e4b5a684d4bc02189020a435a60c04646
:101a34004a4bdb69002bfbd1494b202206219954e8
:101a440040e0474b9a68464b9b69d318434a197840
:101a54002823d154424b9b695a1c414b9a61c0467e
:101a64003e4bdb69002bfbd12ce03d4bda693c4b50
:101a74005b69013b9a420fd1384b5a68374be021de
:101a8400c9020a435a60c046344bdb69002bfbd1c0
:101a9400334b202206219954c046304bdb69002b7e
:101aa400fbd12e492e4bda682d4bdb69d318282243
:101ab4008a5cd2b21a702a4bdb695a1c284bda6151
:101ac40000e0c046264b20229b5c5bb201331dd153
:101ad400234b202200219954204b5a681f4bc021cc
:101ae40089020a435a60c0461c4bdb69002bfbd1b8
:101af4001a4b83221a761a4b5b6a002b2bd0184b95
:101b04005a6a174b9b6a1800904724e0144b202212
:101b14009b5c5bb2062b1ed1114b202200219954f1
:101b24000f4b2122002199540c4b83221a76c04674
:101b34000a4b5b8b9bb21a0030231340102bf7d156
:101b4400074b5b6a002b06d0054b5a6a044b9b6a11
:101b540018009047c046c046bd4680bd00140042f0
:041b6400b8000020a5
:020000040000fa
:101b680080b586b000aff860b9607a603b60172333
:101b7800fb1800221a7000233b61bb68002b02d0bf
:101b8800fb68002b07d13b68002b00d1d3e07b68b2
:101b9800002b00d1cfe06b4b1b7f01225340dbb2ff
:101ba800002b00d1c7e0684b5b6807221340012b6c
:101bb80011d1bb68002b03d0bb680122134006d1aa
:101bc8003b68002b07d03b680122134003d0172342
:101bd800fb181b78b2e01723fb1801221a70594b27
:101be800fa681a60574b7a685a60564b00225a6155
:101bf800544b00229a61534b00221a61fb68002b58
:101c080003d0504bba689a6002e04e4b00229a60ab
:101c18007b68002b03d04b4b3a68da6002e0494bf3
:101c28000022da60474b01221a7702e0464b9b6a92
:101c38003b61454b1b7edbb21a0004231340042b87
:101c4800f4d0414b5b8b9bb23f4a04210b439bb2c0
:101c580053833d4b1b7edbb23b49802252421343e8
:101c6800dbb20b76374bda68364b9b689a4206d95b
:101c7800344bda68334b9b68d21a324b1a61324bb9
:101c88005b68072213401dd12e4b9a692d4b9b6828
:101c98009a420ad22b4b1b681a782b4b9a62294b13
:101ca8009b695a1c274b9a613be0264b1b69002b0a
:101cb80037d0254bff229a62224b1b695a1e214bb3
:101cc8001a612ee01f4b9b685a081e4b9a601d4be9
:101cd8001b695a081b4b1a611a4bdb685a08194bc7
:101ce800da60184b9a69174b9b689a420dd2154bcc
:101cf8001b681b881a00144bd205d20d9a62114b2f
:101d08009b695a1c0f4b9a610be00e4b1b69002b09
:101d180007d00d4b0d4a9a620a4b1b695a1e094b94
:101d28001a613b68002b03d0074b04229a7502e026
:101d3800054b01229a751723fb181b781800bd461e
:101d480006b080bde400002000080042ff0100004a
:020000040000fa
:101d580080b582b000af00237b6000233b606a4bf4
:101d68009b7ddbb2002b00d1cae0674b5b68072282
:101d780013407b60644b1b7edbb21a0004231340c4
:101d8800042b27d1604b9b6a3b60604b5a695f4bc1
:101d9800db689a421ed27b68002b0dd15b4b5a68d8
:101da8005a4b5b69d3183a68d2b21a70574b5b69c1
:101db8005a1c564b5a610de0544b5a68534b5b6999
:101dc8005b00d3183a6892b21a80504b5b695a1c70
:101dd8004e4b5a614c4b1b7edbb21a000123134059
:101de800012b61d1484b01221a757b68002b20d149
:101df800464b9a69454b9b689a420dd2434b1a68e9
:101e0800424b9b69d3181a783f4b9a623f4b9b69a8
:101e18005a1c3e4b9a612de03c4b1b69002b29d084
:101e2800394bff229a62394b1b695a1e374b1a618c
:101e380020e0364b9a69354b9b689a420ed2334b59
:101e48001a68324b9b695b00d3181a882e4b9a622a
:101e58002e4b9b695a1c2d4b9a610be02b4b1b692f
:101e6800002b07d0284b2a4a9a62284b1b695a1e16
:101e7800264b1a61254b9a69244b9b689a4207d1d5
:101e8800224b1b69002b03d1224b01221a700be055
:101e98001e4b5a691d4bdb689a4205d11a4b012229
:101ea8009a75194b04221a75174b1b7edbb21a0060
:101eb80002231340022b1cd1164b1b78002b18d081
:101ec800124b5a69114bdb689a4212d10f4b002210
:101ed8001a770d4b07221a750e4b00221a700b4bfe
:101ee8001b6a002b05d0094b1a6a084b5b6a18005d
:101ef8009047084b1b78002b02d0034b02229a759f
:101f0800c046bd4602b080bd00080042e400002083
:081f1800ffff0000b0010020f2
:020000040000fa
:101f2000f0b40125ed070f005f405ad48b4200d179
:101f3000824205d950404240504059404b405940a0
:101f40004e18760ddf187f0d3bd0741c640529d028
:101f5000f41b352c26d80e0ddb022b43db0ac902fd
:101f60002943c9121700202c1ed2e741e2405740f6
:101f7000e3415a40a340e3405a40002480185941ad
:101f80000ad3b21c520521d0c207012f62411700ab
:101f90004008cb0718434908013636054208af41cf
:101fa00060417141f0bc7047203c06d01f00e74102
:101fb000e3405f400024012a6741c0186141ebd330
:101fc000dfe7002eeed129400020ebe70136310596
:101fd0000020e7e7e742e5d10020c143090dc9042d
:101fe000e0e76b400e00871a9e4104d26e40c01b92
:101ff000b141d21973414e18df18ac0ae642e9d25a
:10200000760d7f0d31d0f41b362ccbd8b4460e0d97
:10201000db022b43db0ac9022943c90a012c32d84f
:1020200004d1d4075208df073a435b08ef0a644241
:10203000904199411ed0002239424dd1241940418e
:1020400049410124394204d101340018494139423f
:10205000fad06246a24204d9361b013e36058919e0
:10206000a0e7f10ac90700209ce736429ad1002078
:10207000002197e70200224394d0b842ded201004b
:1020800020002024e3d1202c13dd203ce241170066
:10209000a240e2405740e3415a40a340e3405a4047
:1020a000012fbf410137174300227c4298419141e3
:1020b0000ce01700e741e2405740e3415a40a3409b
:1020c000e3405a407c429041994100220f0303d2e1
:1020d000013e241940414941013e36054708ac41c3
:0820e00050417141f0bc704752
:020000040000fa
:1020e80008d1002806d1f54204d801d3002a01d12d
:1020f8006d0d09d10020c143090dc904f0bdf9d106
:102108001242f7d1640df5d00020c14349054908b2
:10211800a6e000206146f0bdf0b50127ff070e00dc
:102128005e403e40b446be0a4c18dd18f442d7d291
:10213800f542e4d2640decd06d0dead06419c90201
:102148003943460dc0023143db023b43db0a10b47e
:102158008e4685b297b26f43140c6c433e0ca4199b
:10216800260c2404bfb227439cb26c43a419190c53
:102178006943250ca4b249190d04090c6419000c13
:1021880095b245433e0c76193743bfb2360c150c51
:102198004543ad19a6b2240cad192e0437432e0cb5
:1021a80036199db24543ad19acb22e0c89191d0cd8
:1021b80045436d182e04290c3443704680b295b2fd
:1021c80045433e0c76193743bfb2360c150c4543d0
:1021d800ad19a6b2ad19240c2e0437432e0c3619ae
:1021e8009db24543ad19acb22e0c89191d0c45435f
:1021f8006d182e043443290c75462d0c90b2684393
:102208003e0c80190604bfb23e43070ca0b23f182b
:10221800120c6a43d019020c80b2240ca4189ab28a
:102228006a43121914042043120c89181b0c6b43bf
:10223800c91810bc01273d05294203d1b6194041f0
:102248004941013cff077d0d013d641b0bdb6d001f
:10225800ac4209da240500254208be4168416141c3
:0a22680066463143f0bd54e74ee72f
:020000040000fa
:02227200fee785
:020000040000fa
:10227400580100201c000000000000007401002030
:102284000c00000000000000b80000202c0000003a
:1022940000000000e40000202c000000000000000a
:1022a400b0010020010000000000000080010020b7
:1022b4000800000000000000880100200800000061
:1022c40000000000b1010020010000000000000037
:1022d400b20100200100000000000000980100206d
:1022e40004000000000000009c0100200400000025
:1022f4000000000010010020280000000000000081
:10230400a00100200400000000000000680000207c
:102314005000000000000000a401002004000000a0
:10232400000000003801002020000000010000002f
:102334000100000003000000000000000000000095
:1023440000000000000000000000000090010020d8
:10235400900100200800000000000000a8010020f7
:102364000400000000000000ac0100200400000094
:1023740000000000000000206800000001000000d0
:102384000100000003000000000000000000000045
:10239400000000000000000000000000ad3e00004e
:1023a4000000000000000000000000007b4f00005f
:1023b400a543000000000000000000000000000031
:1023c4000000000000000000000000000000000009
:1023d40000000000000000000000000000000000f9
:1023e40000000000000000000000000000000000e9
:020000040000fa
:1023f400f0b51f00936889b0039313690400049334
:10240400d3680591019302f0aff83b681818039b59
:102414003860002b02d1049b013b03930a230093f1
:1024240000231e000293039b9e4241da049b013b5e
:10243400b3423ddde36be26c93420fd25a1ce2637c
:102444001d782b0002222b3b9343334311d1019b74
:102454001d703b6801333b600123e2e7200000f07c
:1024640011fe0500431cecd1002e21d1280009b037
:10247400f0bd029b9e4209d1731c0293009b0a2b60
:102484002cd1023b302d54d0002302932b00303b3f
:10249400092b48d9009b102b04d1280002f0eefb35
:1024a400002847d1e36c002b02d0e36b013be363cc
:1024b4000023019a9355009b0a2b42d11a0007a9c5
:1024c400019802f0cffc059b019a18605960079ba4
:1024d40001259342cad102256d42c7e7009b082b10
:1024e400d2d118332b43782bced1e36be26c9342d9
:1024f40015d25a1ce2631878e36c002b02d0e36b0c
:10250400013be36302f0bafb0028cbd0019b9d554d
:102514003b68013601333b601023009383e72000be
:1025240000f0b0fde8e7009b082b03d1372d01dd57
:1025340002330093019b9d553b68013601333b6098
:0e25440071e7009a07a9019802f082fcbbe73c
:020000040000fa
:10255200f0b58fb00d934b680c9008938b680d000b
:102562000993cb6816000393089b0f68002b60db6e
:1025720002239f4310233b400a93336805937368f9
:102582000693099b04930a9b002b06d0059b069a8f
:10259200134302d0099b023b049308233b400b9355
:1025a2005a1e9341049ad31a04932b69039a5c1e10
:1025b20000231355089b0793012c10dd059b069af7
:1025c200134339d1079b002b36dc089a049b9b1ad4
:1025d200079a9b18002b02dd02231f422cd10a9b73
:1025e200002b0bd00cce134308d0039b0d9a1b1962
:1025f200013b1a703023039a023c13550b9b002bac
:1026020003d02023039a013c13552b6900975a1ecd
:10261200039b121b19190c98099b01f0b2f90c9b30
:102622005b68db0503d56b68984200da18000fb0cf
:10263200f0bd012308939de70f22059b013c134047
:1026420018005730092b01dc303318000d9b413b39
:10265200192b06d820230343613b192b01d802f022
:1026620079fc039b1855079b013b0793069b1a07ae
:10267200059b1b091a43069b05921b0906939be7c0
:020000040000fa
:10268200000102040703060500ffffffffffffff33
:10269200ffffffffffffffffffffffffffffffff48
:1026a200ffffffffffffffffffffffffffffffff38
:1026b200ffffffffffffffffffff00010203040513
:1026c20006070809ffffffffffffff0a0b0c0d0eb5
:1026d2000f101112131415161718191a1b1c1d1e90
:1026e2001f20212223ffffffffffff0a0b0c0d0e0d
:1026f2000f101112131415161718191a1b1c1d1e70
:102702001f20212223ffffffffffffffffffffff2d
:10271200ffffffffffffffffffffffffffffffffc7
:10272200ffffffffffffffffffffffffffffffffb7
:10273200ffffffffffffffffffffffffffffffffa7
:10274200ffffffffffffffffffffffffffffffff97
:10275200ffffffffffffffffffffffffffffffff87
:10276200ffffffffffffffffffffffffffffffff77
:10277200ffffffffffffffffffffffffffffffff67
:0a278200ffffffffffffffffffff57
:020000040000fa
:10278c0090b59db006af2e4b802252045a613b008f
:10279c0018002c231a00002102f0a0fb3b000122a0
:1027ac001a602c243b19180000f0e4f83b191800af
:1027bc0001f026fa3b000121180000f063ff214aca
:1027cc00214b1100180002f0e5f9204c204a214958
:1027dc002148224b0593224b0493224b0393224b0b
:1027ec000293224b0193224b00932300fef750fde2
:1027fc00204b1800fef778fd1f4b0021180002f04b
:10280c0081f91e4b0021180002f0b2f91c4b00217b
:10281c00180002f089f91b4b0021180002f096f900
:10282c00a023db01180001f0b7ff02f087f8044b7e
:10283c00802252049a61c046bd4617b090bdc04676
:10284c0000440041614600001d4300002d3d000086
:10285c00294c0000094c0000691b00000d390000d8
:10286c00314d0000194d0000014d0000e94c0000f5
:10287c00e94b00008050de19f9490000214a0000a4
:08288c002d4e0000c74e0000b4
:020000040000fa
:10289400f0b51f00936887b0019313690400029395
:1028a400d3680391009301f05ffe3b681818019b05
:1028b4003860002b02d1029b013b01930026019b4f
:1028c4009e4231da029b013bb3422ddde36be26ca5
:1028d40093423cd25a1ce2631d78280002f0cef9e0
:1028e400002843d1012e19d1280002f02bfb7828af
:1028f40014d1009b1b78302b10d1e36be26c934214
:1029040030d25a1ce2631878e36c002b02d0e36bdc
:10291400013be36302f0b2f9002827d1e36c002bfa
:1029240002d0e36b013be3630023009a05a99355ae
:102934000098102202f08cfa039b009a18605960e8
:10294400059b012593420ad102256d4207e0200030
:1029540000f098fb0500431cbfd1002ee4d12800f1
:1029640007b0f0bd200000f08dfbcde7009b9d5526
:0a2974003b68013601333b60a1e728
:020000040000fa
:02297e007047a0
:020000040000fa
:10298000b0b594b002af786044257b192f4a1a8005
:102990002f4b3b642f4bfb630c23fb182e4a13caaf
:1029a00013c313ca13c313ca13c313ca13c37b6855
:1029b00008331a007b681c1d7b682849386c00931b
:1029c000230002f0fdf97b680c331c007b68143394
:1029d0000822ba182249f86b0093230002f0f0f99c
:1029e0007b685a697b1900215b5ed21a7b685a6149
:1029f0004623fb1800221a801ee046243b190022c1
:102a00009a5e0c23fb189200d2580823fb18110081
:102a1000180002f0ebf9031e05d13b1900229a5e63
:102a20007b681a610ee046217b1800229b5e9bb2f8
:102a300001339ab27b181a804623fb1800229b5e52
:102a40000b2bdaddbd4612b0b0bdc0466c070000ee
:102a5000e4340000f034000044350000fc34000091
:102a600008350000f0b5060085b00f0015001c0009
:102a70008b4265d801d1824262d82100280002f041
:102a800093f939000090300002f08ef9009b21008c
:102a90001b1a1a002800039302f07af900900191a2
:102aa000019bbb4246d802d1009bb34242d8009b57
:102ab000019c039a01200021f61aa74102f068f94f
:102ac000039b002b2fd0019b009adb0754081c436b
:102ad000019b5d08039b9c46bd422ed801d1b442a8
:102ae0002bd832003b00121bab41012692185b41f0
:102af0000027b6185f4101235b429c446346002bcc
:102b0000ead180197941039a04000d0030003900a0
:102b100002f032f9039a06000f0002f039f9241a84
:102b20008d41200029000a9b002b01d01e605f60b0
:102b300005b0f0bd00200021c2e7b6197f41dae7f9
:062b400000200021efe778
:020000040000fa
:022b46007047d6
:020000040000fa
:102b480090b583b000af02003960fb1d1a70fb1d01
:102b58001b787f2b28d82f4afb1d1b785bb29b085c
:102b6800c0339b009b58fa1d1278110003220a40bb
:102b7800d200ff2191400a00d2431a4011003b685d
:102b88009b01ff221a40fb1d1b78180003230340fa
:102b9800db009a401f48fb1d1b785bb29b080a4369
:102ba800c0339b001a5031e01b4afb1d1b781900eb
:102bb8000f230b40083b9b0806339b00d3180433b4
:102bc8001b68fa1d1278110003220a40d200ff2167
:102bd80091400a00d2431a4011003b689b01ff2232
:102be8001a40fb1d1b78180003230340db009a40a2
:102bf8000948fb1d1b781c000f232340083b9b083a
:102c08000a4306339b00c31804331a60c046bd4606
:0c2c180003b090bd00e100e000ed00e022
:020000040000fa
:102c240080b582b000af2b4b01221a70c046294bed
:102c34005b7edbb25bb2002bf9db274b1b68db0e40
:102c44007b60264b1b68072213403b607b689ab26b
:102c54003b689bb25b019bb213439bb21bb2ff2246
:102c640013401ab21d4b1b68db089bb21b0219b23e
:102c7400e023db000b401bb213431ab2154b92b294
:102c84001a85144b0322da70124b02225a70114b2c
:102c9400c02252011a61c0460e4b5b7edbb25bb2ae
:102ca400002bf9db0b4b0e4a9a80c046094b5b7e26
:102cb400dbb25bb2002bf9db064b0f221a76c0465f
:102cc400044b5b7edbb25bb2002bf9dbc046bd4636
:102cd40002b080bd0040004220608000246080007b
:042ce40004070000e1
:020000040000fa
:102ce80080b500af2c4b2d4a1a602b4b2c4a1a6129
:102cf800294a42230121d154274a43230021d15490
:102d0800254a47230121d154234a48230121d1547c
:102d1800214a49230121d1541f4a4b230021d15470
:102d28001d4a4e230021d1541b4a52230421d15459
:102d3800194a53230521d154174a56230121d15446
:102d4800154a57230121d154134a58234021d154fd
:102d5800114a31230121d1540f4a33233021d15450
:102d68000d4a34232221d1540b4a35230021d15452
:102d7800094a37230021d154074a39230021d15465
:102d8800054a3b232221d154034a3c230021d15434
:102d9800c046bd4680bdc046004400410848040105
:042da80000480401da
:020000040000fa
:102dac00f0b40125ed070c005c402c40a446ae0aa3
:102dbc004c18df18f4423dd2f74245d2640d4cd08a
:102dcc007f0d3cd0e41bc9022943cf0adb022b4305
:102ddc00db0a0600b61a9f4104d2013cb6197f41aa
:102dec00b6185f416812800d241838dd0018844233
:102dfc0025d8e80c0021b6197f41b61a9f4103d3a0
:102e0c0040414941f7d304e0b6185f4100184941ed
:102e1c00f1d32405b6197f41b61a9f4105d3374328
:102e2c00c20717430022012f5041614162461143f2
:102e3c00f0bc70470cd100280ad1f74208d2002010
:102e4c00c143490d0905f1e7002a01d1f74206d02b
:102e5c000020c143090dc904eae77f0df8d000201a
:042e6c006146e5e7ef
:020000040000fa
:102e70004b005b0d264af0b55c1e944238d8254abb
:102e80009e1825d4332e22dc234a9b1827d4234aac
:102e9000da400700214b9743f3403c000f0002400b
:102ea0009f4319403d000a430fd0002f0dda202325
:102eb0005b42f11824d480204003c84002008021e6
:102ec0004903f1400b00a4185d4120002900f0bd2a
:102ed0000020002901db0021f9e71149f7e7202252
:102ee0000e4b921b934001225242f2401a43d0e70c
:102ef000002becd10022c90fcb0710001900e6e728
:102f000020218020891b400388400200d7e7c0466b
:102f1000fd07000001fcffffe1fbffffffff0f00cb
:042f20000000f0bffe
:020000040000fa
:102f2400f0b54b6889b005930b6807009c4607937e
:102f3400cb680c008e68049310685168cd0f44d0a0
:102f44000b000200002150429941059b002b08db35
:102f54000222634693430793002d02d1079b5a072d
:102f64002ad5731e07aa02920a22009301920b002b
:102f74000200200000f00efc002d02d1079b5a072e
:102f84001ed501382d23002d00d1023b049a135481
:102f940023695a1e049b121a1918079b38000093c0
:102fa400330000f0edfc7b68db0503d563689842d1
:102fb40000da180009b0f0bd1b07db0ff31ad1e7e4
:102fc4001b07e5d501382023e0e7059b002bbfda7a
:022fd400c4e750
:020000040000fa
:022fd600704742
:020000040000fa
:102fd80090b587b002af244b5c683b1de3221a70a2
:102fe8003a00391d02230093130001224020a04714
:102ff800c0461d4b1b689847031efad13b001b783f
:103008009bb21b0299b23b005b789bb2fc22134037
:103018009ab20e203b188a181a803b181b88180091
:1030280001f00efe114a124bfff776f803000c0070
:103038001800210000220f4bfff7b4fe03000c001c
:10304800180021000c4a0d4b01f042ff03000c0050
:103058001800210000f074fd031cbb60bb68181c3d
:10306800bd4605b090bdc04688010020d7a3703d7d
:103078000af765400000f040cdcccccccc6c474082
:020000040000fa
:10308800026df0b51100436d85b0040019430cd0f2
:10309800c16d994209db02d1836d934205d30023a8
:1030a8000120e364404205b0f0bd200001f004fdba
:1030b8000028f4db226d636d00920193019a216c64
:1030c800009be56b13430a00002b19d0a26de36d3a
:1030d80002920393029e039f009a019b921bbb419d
:1030e8001f004b1b16001a00db179c4667451adcad
:1030f80001d1964217d8009b029a013b9a1aaa1846
:10310800e264002909d0a66de76d491b01310a0068
:10311800cb1792197b41a265e3656b1e1a78824230
:0a312800c1d01870bfe70a00eae703
:020000040000fa
:10313400002941d010b4041c4c40a44601230022b1
:10314400002900d54942002800d5404288422cd3aa
:1031540001242407a14204d2814202d209011b01a5
:10316400f8e7e400a14204d2814202d249005b00a4
:10317400f8e7884201d3401a1a434c08a04202d30c
:10318400001b5c0822438c08a04202d3001b9c084d
:103194002243cc08a04202d3001bdc0822430028af
:1031a40003d01b0901d00909e3e7101c6446002c75
:1031b40000d5404210bc704701b5002001f002ff69
:1031c40002bdc0460029f7d003b5fff7b3ff0ebc1c
:0831d4004243891a1847c04666
:020000040000fa
:1031dc0080b582b000af234b9b8c9bb2214a8021df
:1031ec008b439bb29384c0461e4bdb68102213406a
:1031fc00102bf9d11c4b1b689b0e7b607b683f2b03
:10320c0001d07b6800e01f237b607b689b021b0462
:10321c001a0c144b802189000a439a62134b8222a8
:10322c00d2015a80c0460f4bdb6810221340102b82
:10323c00f9d10c4b0e4ada62c0460a4bdb681022fd
:10324c001340102bf9d1074b06229a84c046054b2c
:10325c00db6840221340402bf9d1c046bd4602b07a
:10326c0080bdc0460008004024608000000c004077
:04327c00b80501048c
:020000040000fa
:1032800030b5882933d015dc812941d003dc802971
:103290003ed0002030bd822911d08429f9d11c688c
:1032a00002cc1c60002a1ed009b20160c91741601f
:1032b0000120efe7a02923d00adc9029e9d10724d7
:1032c00019680731a14330c9196004604560efe710
:1032d000c02901d0f029dcd11a68111d19601368ca
:1032e0000360002312e089b201604260e0e71c68dd
:1032f00002cc1c60002a01d049b2d6e7c9b2f3e77c
:103300001a68111d196013680360db174360cfe76b
:1033100019680c1d1c600b680360002ae5d0f4e7f7
:020000040000fa
:10332000f0b51f00936887b00193136904000293fe
:103330000391d66801f01af93b681818019b3860b0
:10334000002b02d1029b013b01930025019b9d4272
:1033500014da029b013bab4210dde36be26c93425b
:103360001dd25a1ce26318780300303b072b1fd98b
:10337000e36c002b02d0e36b013be36300230822e4
:10338000735505a9300001f065fd039b1860596075
:10339000059b0120b34209d10220404206e02000f3
:1033a000fff772fe431cdfd1002de7d107b0f0bd5f
:0c33b00070553b68013501333b60c7e7f6
:020000040000fa
:1033bc00f7b50b6916000193cb68050000938f6875
:1033cc0001f0cef8336818183060002f01d1019b42
:1033dc005f1e0024bc422bda019b013ba34227dd7c
:1033ec00eb6bea6c93420fd25a1cea631878030019
:1033fc0002222b3b934323430ed1009b01241870d4
:10340c00336801333360e5e72800fff737fe431cd0
:10341c00edd1002c0cd1febd0200009b303a1b19e3
:10342c00092a09d9eb6c002b02d0eb6b013beb6347
:10343c000020009b1855eee71870336801340133f7
:04344c003360c7e73b
:020000040000fa
:10345000f7b505000c0017001e00002a04d001f08b
:1034600085f8336818183060a36800240193019b25
:10347000002b01d09c421fdaeb6bea6c934214d212
:103480005a1cea631878002f1dd0202803d00300af
:10349000093b042b17d8eb6c002b02d0eb6b013be4
:1034a000eb63089b002b19d109e02800fff7ecfd26
:1034b000431ce8d1002c05d0089b002b0cd1200028
:1034c000441ea041febd089b002b00d01855336858
:1034d000013401333360cae7002ff0d00023089a8b
:0434e0001355ece7ad
:020000040000fa
:1034e40030313a33393a32350000c04641756720ed
:1034f400313920323032320025643a25643a256469
:103504000000c04625732025642025640000c046c1
:103514004a616e00466562004d617200417072003e
:103524004d6179004a756e004a756c0041756700fb
:10353400536570004f6374004e6f760044656300fa
:1035440014350000183500001c350000203500003b
:1035540024350000283500002c35000030350000eb
:1035640034350000383500003c350000403500009b
:020000040000fa
:10357400f0b5c6461f4a204b00b50021934203d242
:10358400197001339342fbd10b231c4a9c46083b20
:1035940098461368546819000026214311d0170077
:1035a40091680c3700290fd11a19002c03d01e7012
:1035b40001339342fbd13a00136854681900214344
:1035c400edd104bc9046f0bd6146c91a1d195118cd
:1035d400002c05d05a1c505c187013009542f9d188
:1035e400434623405a1e9341a4081c19a4003f19c2
:1035f4003a00e1e7000000200000002074220000ef
:020000040000fa
:10360400b0b584b000afb9607a603b600e23fb189c
:10361400021c1a801c4b20229b5c5bb2002b01d045
:1036240000232de0184b0e203a1812889a80164b6e
:103634003a68da60144b3a6a5a61134bba689a6072
:10364400114b7a681a61104b1c2408257a19121937
:1036540012789a700c4b202208218c46bc44624498
:1036640012781a70084b2122002199547b191b19d6
:103674001a783b181b881100180000f025fb012361
:0c3684001800bd4604b0b0bdb800002026
:020000040000fa
:1036900080b582b000af78600a00fb1c1a707b68ae
:1036a0005b69783b9a067b681b6901339b051a436b
:1036b0007b68db685b041a437b689b681b031a43c7
:1036c0007b685b689b011a437b681b681900104b81
:1036d0000a439a61c0460e4b9b7adbb21a008023e4
:1036e0001340802bf7d00a4afb1c1b781377c04687
:1036f000074b9b7adbb21a0080231340802bf7d054
:10370000034b0122da7101231800bd4602b080bdcf
:043710000014004061
:020000040000fa
:1037140090b587b002af1d4b5c683b1de5221a7063
:103724003a00391d02230093130001224020a047d0
:10373400c046164b1b689847031efad13b001b7802
:103744009bb21b0299b23b005b789bb2fc221340f4
:103754009ab20e203b188a181a803b181a88130054
:103764005b019b1a9b009b18002b02da084a9446c3
:1037740063441b14063b180001f064f9031cbb608e
:10378400bb68181cbd4605b090bdc046880100202a
:04379400ffff000033
:020000040000fa
:10379800f0b5050085b019000c9b100001931a685c
:1037a8002b696c68013bef681d00002c00da0124ce
:1037b8000026fe540a9e0123361b02960226164056
:1037c8000b9ad2170392002d04dc002b17d0280087
:1037d80005b0f0bd02000a4307d1002c05dc029aaf
:1037e8001219002af1dd002eefd00b9a039b00f08e
:1037f80099fe013d130030327a55013ce3e710236e
:0e380800019a12689a431300019a1360dfe7d9
:020000040000fa
:1038160030b588292cd012dc812930d003dc8029f0
:103826002dd0002030bd82290ed08429f9d1196807
:1038360000680c1d1c600b6818800120f2e7a029a7
:103846000fd00adc9029ecd1046845681968081d78
:1038560018600b681c605d60efe7c02901d0f02995
:10386600dfd11a680168101d186013681960e4e753
:10387600196800680c1d1c600b681870dde7196874
:0c38860000680c1d1c600b681860d6e781
:020000040000fa
:1038940080b500af00f03efc00f01aff01f03cf8e8
:1038a400fff79afc01f022f80d4b0e4a5a800c4b9c
:1038b4000d4a5a800a4b0d4a5a80094b0c4a5a80c9
:1038c400074b0c4a5a80064b0b4a5a800b4b0c4a46
:1038d4001a620c4b00221a62c046bd4680bdc04627
:1038e400000c0040044300000540000014400000a8
:1038f400174000001b4100001e400000000400406f
:08390400240801000008004046
:020000040000fa
:10390c0080b588b000af78600023fb61184b5b6812
:10391c0001333b617b68174a5343fb60144b1b68b4
:10392c0001221340012b1ed1114b9b687b6116e0c9
:10393c000f4b9b68bb607a69bb68d31abb61ba68d2
:10394c007b699a4205d93a69bb68d31a7a69d3184c
:10395c00bb61bb687b61fa69bb69d318fb61fa690f
:10396c00fb689a42e4d3c046bd4608b080bdc04651
:08397c0010e000e064bb000054
:020000040000fa
:10398400f0b51e00012389b014000e9a07001a40f6
:103994000291019220d1b4421eda351b03952a000c
:1039a400102d00d91022202104a801f09bfa0f2d1c
:1039b4001bdc0f22039b04a913401a00380000f0fb
:1039c4006afe019b002b04d122000299380000f00a
:1039d40062fe300009b0f0bd22000299380000f008
:1039e4005afeb442d9db2600f3e7102204a93800ba
:0839f40000f051fe103ddae77e
:020000040000fa
:1039fc0080b500af184b01221a60c046164bdb692c
:103a0c00002bfbd1144b802252005a60c046124b43
:103a1c00db69002bfbd1104be822da600e4b0f4a0e
:103a2c001a60c0460c4bdb69002bfbd10a4b1022f1
:103a3c005a83c046084bdb69002bfbd1084b212273
:103a4c0000219954064b202200219954024b8322c9
:103a5c009a75c046bd4680bd001400421600100089
:043a6c00b80000207e
:020000040000fa
:103a7000f0b50b680c008f68cd68496887b0060008
:103a80000593002902db02218b43059305a95368a6
:103a9000126802910821009701912000fff77cfe37
:103aa000059bdb0602d5302301382b54059b1b07f1
:103ab00002d5202301382b54236929185a1e059b4f
:103ac000121a009330003b00fff75cff7368db05c0
:0e3ad00003d56368984200da180007b0f0bd15
:020000040000fa
:103ade0010b584291fd007dc812915d0822922d068
:103aee00802911d0002010bd90291cd008dc882917
:103afe00f8d119680c1d1c600b6803601a7010e079
:103b0e00a02901d0c029edd119680c1d1c600b68cd
:103b1e0003601a6005e019680c1d1c600b680360d9
:103b2e001a800120dfe719680c1d1c600b6803600a
:083b3e001a60d2175a60f4e787
:020000040000fa
:103b48004b1801225205da4217d25b0d0722d20127
:103b58009b1a0fd9ff2b13d2db05ca0fd2071343c9
:103b68000903020d1143490ac200524100d901312b
:103b7800c8187047c80fc007704706d1002804d17d
:103b8800c80f0002ff30c00570470123db070a0099
:103b9800c900400f084398431a4010435b0a184372
:043ba8007047c0465c
:020000040000fa
:103bac0080b500af154b1b78dbb2144a01210b43d7
:103bbc00dbb21370c046114b5b78dbb21a0080236a
:103bcc001340802bf7d00d4b00229a610b4b002237
:103bdc00da610a4b1b78dbb2084a02210b43dbb2d9
:103bec001370c046054b5b78dbb21a008023134080
:103bfc00802bf7d0c046bd4680bdc04600180040a3
:020000040000fa
:103c0c0080b582b000af78607b685b69783b9a06c0
:103c1c007b681b6901339b051a437b68db685b047b
:103c2c001a437b689b681b031a437b685b689b0188
:103c3c001a437b681b681900084b0a431a61c0467b
:103c4c00064b9b7adbb21a0080231340802bf7d0f3
:103c5c0001231800bd4602b080bdc04600140040d0
:020000040000fa
:103c6c0080b582b000af0200bb1d1a807b1d0a1c00
:103c7c001a707b1d1b78002b04d00f4b20220321c4
:103c8c00995403e00c4b202204219954bb1d1b8832
:103c9c0059007b1d1b78002b01d0012200e0002273
:103cac00064b0a435a62c046044bdb69002bfbd11e
:103cbc00c046bd4602b080bdb800002000140042d2
:020000040000fa
:103ccc0080b582b000af0200bb1d1a807b1d0a1ca0
:103cdc001a70104b00229a610e4b0022da610e4bc7
:103cec0083221a760c4b5a680b4b0c490a405a60cb
:103cfc00c046094bdb69002bfbd17b1d1a78bb1d21
:103d0c001b8811001800fff7abffc046bd4602b080
:103d1c0080bdc046b800002000140042fffffbff2e
:020000040000fa
:103d2c0080b582b000affb1d00221a70124b9b684d
:103d3c00002b07d1104bdb68002b03d1fb1d00229d
:103d4c001a7013e00d4b1b7edbb21a0002231340da
:103d5c0003d0094b1b7f002b01d0012200e0002275
:103d6c00fb1d1a701a7801210a401a70fb1d1b7872
:103d7c001800bd4602b080bde400002000080042df
:020000040000fa
:103d8c0080b500af002000f07bfafef7f9fc0f4b7a
:103d9c001b78dbb2002b02d00c4b00221a700c4ba0
:103dac001b78dbb2002bf2d00a4b80225204da6172
:103dbc00074b00221a70fff709f9021c064b1a6018
:103dcc00fff7a2fc021c054b1a60e0e7b1010020d2
:103ddc00b201002000440041980100209c01002009
:020000040000fa
:103dec002e2e2f7372632f4c6f52612e6300c046c0
:103dfc0076657273696f6e203d3d204c4f52415f6a
:103e0c0053454d544543485f56455253494f4e20f8
:103e1c0026262022756e737570706f72746564201f
:103e2c0053454d544543482076657273696f6e2235
:103e3c000000c0464c6f5261426567696e00c04617
:020000040000fa
:103e4c00002370b59eb004000d001600059313906e
:103e5c00069098421fdb114bc318149300220023c9
:103e6c0004a800f013fe229a239b310000920193c8
:103e7c0004a80122fcf7e6fd002d0ad0139b029347
:103e8c00149b0393039a029b9b1a1a9a9b18e4188f
:103e9c002c601eb070bd01235b42dee7ffffff7f8d
:020000040000fa
:103eac0037b504000d00002801d100203ebd436849
:103ebc009b0607d543698269934217d80023a362f6
:103ecc00a3616361e26b236c9a4206d20121d21a80
:103edc00d3170091206801f073f800232364e36387
:103eec009d42e2d0206801f053f8dfe70022c36a5c
:103efc00110098476369002be0d101204042d5e7bf
:020000040000fa
:103f0c0080b500af134b1b889bb2124a01210b43a7
:103f1c009bb21380c0460f4b9b7adbb21a008023f6
:103f2c001340802bf7d00b4b802252009a80094b08
:103f3c00094a1a80c046074b9b7adbb21a008023d1
:103f4c001340802bf7d0034b0122da71c046bd46db
:0c3f5c0080bdc046001400400a0a0000ae
:020000040000fa
:103f680000230e4a10b513600d4a13600d4a136002
:103f78000d4a13600d4a13600d4a536213610133f1
:103f8800936000f0c5fffef7dafd0a4c0a4b9c422d
:103f980000d310bd08cc9847f8e7c046a801002018
:103fa8007400002070000020680000206c000020d1
:0c3fb80078000020c4000000c8000000d9
:020000040000fa
:103fc40080b500af114b00221a62104b00221a7701
:103fd4000e4b00229a600d4b0022da600c4b8022bb
:103fe40092025a60c0460a4bdb69002bfbd1084b96
:103ff40016221a73064b074a1a60c046044bdb6943
:10400400002bfbd1c046bd4680bdc046e400002065
:08401400000800420e00130039
:020000040000fa
:10401c00f0b50b680c008f68cd68496887b0060056
:10402c000593002902db02218b43059305a95368f4
:10403c00126802910a21009701912000fff7a6fb5c
:10404c00236929185a1e059b121a009330003b0055
:10405c00fff792fc7368db0503d56368984200dabe
:06406c00180007b0f0bdd2
:020000040000fa
:1040740080b500af114b01221a80c0460f4bdb7b89
:10408400dbb25bb2002bf9db0c4b8c22d2001a8022
:104094000a4b02221a83094b3b229a73084b0022d3
:1040a4001a60064b01225a73c046044bdb7bdbb219
:1040b4005bb2002bf9dbc046bd4680bd002c00423c
:0440c4008001002057
:020000040000fa
:1040c800f0b50f0087b0039015001049072204a827
:1040d8001c0000f0d9febb687e6802933f68002d83
:1040e80000d104ad002c03d1280000f019ff040012
:1040f800002e02dbb44200d934000097029b220054
:1041080029000398fff73afc07b0f0bda44f000060
:020000040000fa
:1041180090b583b000af0f4b5c681b68a109002302
:104128001a000a007f2313407b607b681a04fe2371
:10413800db031a40084b06210a439a61c046064b26
:10414800db6804221340042bf9d1c046bd4603b0f6
:0c41580090bdc0462060800000080040c0
:020000040000fa
:1041640010b581290fd0832903d0802914d00020d1
:1041740010bd1368191d11601b6841680068186040
:1041840059600120f4e71368191d11601b68016868
:10419400426819605a60f4e71368416800681c1d9e
:0c41a40014601c68fff7cefc2060eae706
:020000040000fa
:1041b0000200002310b54832d3560400591e0b43a9
:1041c000137043698269934203d90022c36a1100c4
:1041d000984700236068a362a3616361830705d5e4
:1041e0001023184360600120404210bda368e268bc
:0c41f00000079b182364e363c017f6e788
:020000040000fa
:1041fc0010b5064c2378002b07d1054b002b02d0b1
:10420c00044800e000bf0123237010bd58010020ba
:10421c000000000000000000044b10b5002b03d080
:10422c000349044800e000bf10bdc0460000000078
:08423c005c01002000000000fd
:020000040000fa
:1042440080b500afbff35f8f62b603210320fef792
:1042540079fc032000f056fa03210920fef772fcd2
:10426400092000f04ffa03210c20fef76bfc0c2010
:1042740000f048fa03211220fef764fc122000f03b
:0842840041fac046bd4680bdb1
:020000040000fa
:10428c0080b582b000af78600e4b06225a60fef704
:10429c0025fdfff7f9fafff7abfb00f0b7fdfff7d1
:1042ac008bfe00f061fbfef7b7fcfff779fcfff724
:1042bc0027fefff7d9fefff7bfffc046bd4602b091
:0842cc0080bdc0460040004126
:020000040000fa
:1042d40010b50a4b98470a4b9847fff749f9094b21
:1042e400ff229343084a9360084b9847084b98472a
:1042f400084b9847fff748fdfee7c0467f290000ba
:104304007f2900000000000000ed00e0693f00008c
:084314007f2900007f29000051
:020000040000fa
:10431c0080b582b000affb1d01221a700b4b20221e
:10432c009b5c5bb2002b0ad1094b5b8b9bb21a00d6
:10433c0030231340102b02d1fb1d00221a70fb1de1
:10434c001b781800bd4602b080bdc046b8000020e6
:04435c000014004207
:020000040000fa
:1043600030b401256d054c00e54215d85c00e542ee
:1043700012d80c001c436400044314430fd005d230
:1043800082428b418041013030bc7047904299415c
:104390008041013030bc7047002030bc70470120a4
:0443a00030bc704776
:020000040000fa
:1043a400d3b51f004368040016009b0607d5436974
:1043b400826993420bd80023a362a3616361069bc5
:1043c4003200009320003b0000f08cfbdcbd002297
:1043d400c36a110098476369002becd10120404265
:0443e400c117f3e723
:020000040000fa
:1043e800f7b597b201933b00140c86b2050c7343e2
:1043f8006f4366436543f6191c0ca4199c46a742f3
:1044080002d980235b02ed186346260c7519240433
:104418009eb2019ba4194343200051435b195918cc
:0444280003b0f0bd30
:020000040000fa
:10442c0030b401256d054c00e54215d85c00e54221
:10443c0012d80c001c436400044314430cd005d266
:10444c0082428b418041404230bc7047904299413e
:10445c008041404230bc7047002030bc7047c046a1
:020000040000fa
:10446c0030b401256d054c00e54215d85c00e542e1
:10447c0012d80c001c436400044314430cd005d226
:10448c00904299418041404230bc704782428b41fe
:10449c008041404230bc7047002030bc7047c04661
:020000040000fa
:1044ac00030010b51a78202a0dd0110009390429ff
:1044bc0009d900212b2a02d02d2a01d10131013337
:1044cc0000200a2404e00133ece760430133801a36
:1044dc001a78303a092af8d9002900d1404210bd87
:020000040000fa
:1044ec00f7b5551c846bff35070001910092002134
:1044fc002a00200000f07ffc002800d0051b009b48
:10450c002e009d4200d91e0032002100019800f0bf
:10451c00b9fca31964193000fb633c64bc63febd99
:020000040000fa
:10452c00002b11d1002a0fd1002900d1002802d074
:10453c000021c943081c07b4024802a1401802908c
:10454c0003bdc046790a000003b4684601b5029861
:10455c00fef782fa019b9e4602b00cbc7047c04627
:020000040000fa
:10456c0070b504000025e36be26c934211d25a1c27
:10457c00e263187820280ad00938042807d9e36c9c
:10458c00002b02d0e36b013be363280070bd0135c7
:0e459c00e9e72000fef772fd431cebd1f5e7c6
:020000040000fa
:1045ac0080b500af0b4b1b7adab20b4b1a70094b70
:1045bc00c1221a72084b5b68002b07d0064b5a6855
:1045cc00054b1878044b9b6819009047c046bd46b4
:0c45dc0080bdc0460014004074010020a7
:020000040000fa
:1045e80080b582b000af0b4afb1d927b1a70094b55
:1045f8003b229a73084b1b68002b07d0064b1a689e
:10460800054b5968fb1d1b7818009047c046bd46ee
:0c46180002b080bd002c00428001002098
:020000040000fa
:104624001c2101231b04984201d3000c10391b0ade
:10463400984201d3000a08391b09984201d30009a2
:10464400043902a2105c40187047c04604030202f9
:0c46540001010101000000000000000056
:020000040000fa
:10466000b0b588b004afb9607a603b600e257b19a5
:10467000021c1a803c687a68b9687b191888002384
:104680000293002301933b6a00932300fef7baffd5
:0a46900003001800bd4604b0b0bde1
:020000040000fa
:10469a00436870b50400d80510d52569954200d93c
:1046aa0015002a00606900f0eefb226963695b1954
:1046ba00551b0022636125611a7070bddb06fcd4ac
:0846ca00200000f0d6fbf8e728
:020000040000fa
:1046d40080b500af084b094a5a60074b084a9a60f4
:1046e400c046054b5b78dbb21a0080231340802b55
:1046f400f7d0c046bd4680bd000c00400304010055
:04470400032000008e
:020000040000fa
:1047080080b582b000af0200fb1d1a70fb1d1b783c
:104718007f2b09d8fb1d1b781a001f231a40044b56
:10472800012191400a001a60c046bd4602b080bd12
:0447380000e100e0bc
:020000040000fa
:10473c00f4464a1805d200f061f801d5c0174008bc
:10474c00604701235b05d34206d200f057f801d530
:10475c000120c0074042604701d10042f5d0d0177c
:04476c00400870474a
:020000040000fa
:10477000f0b5050000200a4c4200165d002e02d163
:10478000a2185078f0bd296801300f78c0b2b74246
:1047900003d1a2180131507829600a28ecd9f1e739
:0447a0009c4c00002d
:020000040000fa
:1047a40080b582b000af0200bb1d1a80074abb1d52
:1047b4001b881383c046054bdb7bdbb25bb2002b4b
:1047c400f9dbc046bd4602b080bdc046002c0042a5
:020000040000fa
:1047d40070b4012676054c005d00e6420cd8ee422a
:1047e4000ad825430543154303d0994204d1904286
:1047f40002d1012070bc7047002070bc7047c046d5
:020000040000fa
:104804004a0010d2520d03231b02ff33d21a0ad4da
:1048140052421f3209d4400dc90208430123db0769
:104824001843d040704700207047d0177047c046e7
:020000040000fa
:1048340010b50b680c001b78202b03d0093b002219
:10484400042b0bd8fff790fe02002368591c21604b
:104854005b78202bf9d0093b042bf6d9100010bd4e
:020000040000fa
:1048640070b50d00160004009ab068220021684655
:1048740000f038fb054b32002900684602940e9480
:10488400119300f06bfa1ab070bdc0468d4f000052
:020000040000fa
:1048940037b50d00d46811001a00fef78dfd431cd6
:1048a4000cd00a2201a9200000f0dcfa019b286048
:0e48b40069600120a34201d1022040423ebdb6
:020000040000fa
:1048c20037b50d00d46811001a00fef776fd431cbf
:1048d2000cd00a2201a9200000f0bbfa019b28603b
:0e48e20069600120a34201d1022040423ebd88
:020000040000fa
:1048f00080b500af074b084a5a60c046054b5b784d
:10490000dbb21a0080231340802bf7d0c046bd468f
:0c49100080bdc046000c00400007010004
:020000040000fa
:10491c0080b500af074b084a5a60c046054b5b7820
:10492c00dbb21a0080231340802bf7d0c046bd4663
:0c493c0080bdc046000c004001040100da
:020000040000fa
:1049480080b500af084b1b889bb2074a02210b4376
:104958009bb21380c046044bdb7bdbb25bb2002bff
:0c496800f9dbc046bd4680bd002c0042bb
:020000040000fa
:1049740080b500af074b00221a60064b00229a60f4
:10498400044b054a5a60034b04221a60c046bd46d4
:0c49940080bdc04610e000e063bb0000e6
:020000040000fa
:1049a00010b500280cd1084b04001a68002a03d067
:1049b0001868fff7f5ff040000f003fb204310bd6b
:0c49c000002100f06efafae7a4010020cc
:020000040000fa
:1049cc00002380290fdb812901dd83290bd10721ed
:1049dc00136807338b431900083111601a685b6840
:0a49ec0002604360012318007047c9
:020000040000fa
:1049f80080b582b000af02003960fb1d1a70fb1d44
:104a08001b78012b02d1034b01221a70c046bd4608
:084a180002b080bdb1010020d5
:020000040000fa
:104a200080b582b000af02003960fb1d1a70fb1d1b
:104a30001b78002b02d0034b01221a70c046bd46e2
:084a400002b080bdb2010020ac
:020000040000fa
:104a4800c20f12029d3201000cd001d5494202d496
:104a5800013a4900fcd5d205080a0906494100d3a4
:084a6800012950417047c046ce
:020000040000fa
:104a700013b5074c24680192009302000b002068d4
:104a8000044900f0a8f90020fff78aff00f07afa45
:084a900054010020c44b00009a
:020000040000fa
:104a9800f0b51700016cc66b02658c1be517436502
:104aa8008465c5651f4305d09d4202dc02d194424e
:084ab80000d9b118c164f0bd82
:020000040000fa
:104ac00037b50400fff774fb002802d001204042f4
:104ad0003ebd6b46dd1d0122636c29002000984716
:084ae0000128f3d12878f3e767
:020000040000fa
:104ae80013b5049904000091006800f06bfa0029de
:104af80006db08230020002162689a4362601cbd1f
:084b080001204042c117fae749
:020000040000fa
:104b100080b582b000af78603960054b7a685a6022
:104b2000034b3a689a60c046bd4602b080bdc0469d
:044b300074010020ec
:020000040000fa
:104b340080b582b000af78603960054b7a685a62fc
:104b4400034b3a689a62c046bd4602b080bdc04677
:044b5400b800002085
:020000040000fa
:104b580080b582b000af78603960054b7a681a6218
:104b6800034b3a685a62c046bd4602b080bdc04693
:044b7800e400002035
:020000040000fa
:104b7c0080b582b000af78603960054b7a681a60f6
:104b8c00034b3a685a60c046bd4602b080bdc04671
:044b9c008001002074
:020000040000fa
:104ba00080b582b000af78603960054b7a681a60d2
:104bb000034b3a685a60c046bd4602b080bdc0464d
:044bc0008801002048
:020000040000fa
:104bc400417373657274696f6e206661696c6564a4
:104bd4003a202573202825733a2025733a2025642a
:034be400290a009b
:020000040000fa
:104be80080b500af054b1b7edbb21a0002231340d1
:104bf8005a425341dbb21800bd4680bd000800424e
:020000040000fa
:104c080080b582b000af7860396039687868002371
:104c18000022fcf7a5ff03001800bd4602b080bdc6
:020000040000fa
:104c280080b582b000af786039603b687a6800214f
:104c38000020fcf795ff03001800bd4602b080bdb8
:020000040000fa
:104c4800054b004206d5404200b5984708bc0122f2
:0c4c5800d207114318470000654c000013
:020000040000fa
:104c640042221201033a010007d002d4013a00188b
:0c4c7400fcd51205c30a400599187047d2
:020000040000fa
:104c80000300303b02000120092b06d9202300201d
:0c4c900013430522613b9a4240417047eb
:020000040000fa
:104c9c0068076c094c836a9074a07ac0008068889d
:0c4cac0000846c820081286e696c290075
:020000040000fa
:104cb80080b500af034b21229b5cdbb21800bd46d8
:084cc80080bdc046b8000020c9
:020000040000fa
:104cd00080b584b000aff860b9607a6001235b42b0
:084ce0001800bd4604b080bdc0
:020000040000fa
:104ce80080b500af034b8022d2015a61c046bd4651
:084cf80080bdc04600440041ec
:020000040000fa
:104d000080b500af034b8022d2019a61c046bd46f8
:084d100080bdc04600440041d3
:020000040000fa
:104d180080b500af034b8022d2025a61c046bd461f
:084d280080bdc04600440041bb
:020000040000fa
:104d300080b500af034b8022d2029a61c046bd46c7
:084d400080bdc04600440041a3
:020000040000fa
:104d480013b50400019201aafcf75efc6368db0658
:084d580001d50120404216bd07
:020000040000fa
:104d600013b50400019201aafcf792f86368db0610
:084d700001d50120404216bdef
:020000040000fa
:104d7800d0400b1cd1409c46203ad34018435242a5
:104d880063469340184370479140031c90409c46eb
:104d9800203a9340194352426346d340194370471f
:104da80010b5002903d1fff739fc203002e0081cb8
:084db800fff734fc10bdc046fa
:020000040000fa
:104dc0000eb403b503aa02ca0192fff74bfd02b06d
:064dd00008bc03b0184707
:020000040000fa
:104dd6000eb403b503aa02ca0192fff7b2ff02b0ee
:064de60008bc03b01847f1
:020000040000fa
:104dec00002210b5835c8c5ca34202d10132002bf3
:064dfc00f8d1181b10bde8
:020000040000fa
:104e0200c9b28218904201d10020704703788b42c8
:064e1200fbd00130f6e7c1
:020000040000fa
:104e180080b500af024b82225a60c046bd4680bdb5
:044e28000040004105
:020000040000fa
:104e2c0080b582b000af7860fff740ffc046bd464a
:044e3c0002b080bd83
:020000040000fa
:104e400010b500f0a7f8024b1860586010bdc046be
:044e500090010020ad
:020000040000fa
:104e540037b501246442e51700940195fef7f4ff89
:044e640003b030bdaa
:020000040000fa
:104e680037b5802500242d0600940195fef7eaff4a
:044e780003b030bd96
:020000040000fa
:104e7c00c36a10b5002b01d0984710bd0068fff72e
:044e8c0021fffae721
:020000040000fa
:104e9000002310b59a4200d110bdcc5cc45401333c
:024ea000f8e731
:020000040000fa
:104ea20010b5031e04d0c269101e01d0180090472d
:024eb20010bd31
:020000040000fa
:104eb40003000a7818001a7001310133002af8d16e
:024ec400704735
:020000040000fa
:104ec60080b582b000af7860c046bd4602b080bdf6
:020000040000fa
:104ed800f0b40125ed076b40004c2047271f000068
:020000040000fa
:104ee80003001218934200d1704719700133f9e793
:020000040000fa
:104ef800494e4600696e66004e414e006e616e0076
:104f0800494e4600696e66004e414e006e616e0065
:020000040000fa
:104f180010b5fef75cf8fff78ffffef758f810bde5
:020000040000fa
:104f280003001a78002a01d1181a70470133f8e7ec
:020000040000fa
:104f380010b5fdf7f1f8029a039bfcf7edff10bde1
:020000040000fa
:0e4f48000300413b192b01d82023184370476a
:020000040000fa
:0e4f56000300613b192b01d85f231840704700
:020000040000fa
:0c4f640010b50400fff7a4ff200010bdf2
:020000040000fa
:0a4f700080b582b000af7860fee764
:020000040000fa
:0a4f7a0010b50068fff7a7fe10bd98
:020000040000fa
:084f840010b57f2000f016f8c3
:020000040000fa
:084f8c0010b5fff7adfa10bdee
:020000040000fa
:084f94000048704700000020f6
:020000040000fa
:084f9c00012040427047c046ad
:020000040000fa
:074fa400286e756c6c2900fa
:020000040000fa
:064fac0080b500affee736
:020000040000fa
:064fb20080b500affee730
:020000040000fa
:064fb80010b5fff7d9ff60
:020000040000fa
:044fbe000020704718
:020000040000fa
:044fc2000020704714
:020000040000fa
:044fc8007047c04628
:020000040000fa
:044fcc00002070470a
:020000040000fa
:0200000400807a
:0440000077c700d8a6
:020000040000fa
:0200000400807a
:044004005c00ffff5e
:00000001FF
